:1000000000000110430100000D0100000F0100007D
:1000100011010000130100001501000068F9FEEF56
:1000200000000000000000000000000017010000B8
:1000300019010000000000001B0100001D0100006C
:100040001F0100001F0100001F0100001F01000030
:100050001F0100007D0400001F0100000D090000C9
:100060001F0100001F0100001F0100001F01000010
:100070001F0100001F0100001F0100001F01000000
:100080001F0100001F0100001F0100001F010000F0
:100090001F0100001F0100001F0100001F010000E0
:1000A0001F0100001F0100001F0100001F010000D0
:1000B0001F0100001F0100001F0100001F010000C0
:1000C0001F0100001F0100001F0100001F010000B0
:1000D0001F0100001F0100001F0100001F010000A0
:1000E0001F01000064160000000000100000000066
:1000F0006416000000000020000000000000001056
:10010000FC0100000000002000000000FEE7FEE708
:10011000FEE7FEE7FEE7FEE7FEE7FEE7FEE7FEE7B7
:1001200010B5002302E01C585C5004339342FAD30C
:1001300010BD00231A4601E01A5004338B42FBD352
:10014000704738B50C4C0D4D04E094E807000C34B2
:10015000FFF7E6FFAC42F8D305E094E8030008346B
:10016000FFF7E7FF00E0064DAC42F6D300F0AAFE31
:1001700000F0F8FEFEE700BFE4000000FC00000015
:100180000C010000FFFFFFFFFFFFFFFFFFFFFFFF6E
:10019000FFFFFFFFFFFFFFFFFFFFFFFFFFFFFFFF6F
:1001A000FFFFFFFFFFFFFFFFFFFFFFFFFFFFFFFF5F
:1001B000FFFFFFFFFFFFFFFFFFFFFFFFFFFFFFFF4F
:1001C000FFFFFFFFFFFFFFFFFFFFFFFFFFFFFFFF3F
:1001D000FFFFFFFFFFFFFFFFFFFFFFFFFFFFFFFF2F
:1001E000FFFFFFFFFFFFFFFFFFFFFFFFFFFFFFFF1F
:1001F000FFFFFFFFFFFFFFFFFFFFFFFFFFFFFFFF0F
:10020000FFFFFFFFFFFFFFFFFFFFFFFFFFFFFFFFFE
:10021000FFFFFFFFFFFFFFFFFFFFFFFFFFFFFFFFEE
:10022000FFFFFFFFFFFFFFFFFFFFFFFFFFFFFFFFDE
:10023000FFFFFFFFFFFFFFFFFFFFFFFFFFFFFFFFCE
:10024000FFFFFFFFFFFFFFFFFFFFFFFFFFFFFFFFBE
:10025000FFFFFFFFFFFFFFFFFFFFFFFFFFFFFFFFAE
:10026000FFFFFFFFFFFFFFFFFFFFFFFFFFFFFFFF9E
:10027000FFFFFFFFFFFFFFFFFFFFFFFFFFFFFFFF8E
:10028000FFFFFFFFFFFFFFFFFFFFFFFFFFFFFFFF7E
:10029000FFFFFFFFFFFFFFFFFFFFFFFFFFFFFFFF6E
:1002A000FFFFFFFFFFFFFFFFFFFFFFFFFFFFFFFF5E
:1002B000FFFFFFFFFFFFFFFFFFFFFFFFFFFFFFFF4E
:1002C000FFFFFFFFFFFFFFFFFFFFFFFFFFFFFFFF3E
:1002D000FFFFFFFFFFFFFFFFFFFFFFFFFFFFFFFF2E
:1002E000FFFFFFFFFFFFFFFFFFFFFFFFFFFFFFFF1E
:1002F000FFFFFFFFFFFFFFFFFFFFFFFFFFFFFFFF0E
:1003000080B400AFFEE700BF80B584B000AFF860F6
:10031000B9607A604FF416504FF000014FF00002C0
:1003200000F00EF87B6803F10103B868194600F08D
:1003300077F87B68184607F11007BD4680BD00BFFF
:1003400080B485B000AF786013460A46FA70BB707F
:100350004FF44043C4F20F034FF44042C4F20F0283
:10036000D2F8C42042F00802C3F8C4204FF440433E
:10037000C4F20003F978BA780A43D2B262F07C0280
:10038000D2B21A7343F67003C0F239037A68B3FB32
:10039000F2F3FB604FF44043C4F20003FA684FEA03
:1003A0001222D2B21A714FF44043C4F20003FA6829
:1003B000D2B21A704FF44043C4F200034FF44042EB
:1003C000C4F20002127BD2B202F07F02D2B21A73E0
:1003D0004FF44043C4F200034FF007021A724FF487
:1003E0004043C4F202034FF000029A604FF44043CE
:1003F000C4F202034FF00002DA604FF44043C4F24B
:1004000002034FF001029A604FF44043C4F202032A
:100410004FF00102DA6007F11407BD4680BC704757
:1004200080B485B000AF786039603B68FB604FF006
:100430000003FB6019E000BF4FF44043C4F2000327
:100440001B7DDBB203F02003002BF5D04FF44043BB
:10045000C4F200037A6812781A707B6803F1010312
:100460007B60FB6803F10103FB60FA683B689A421A
:10047000E1D307F11407BD4680BC704780B582B058
:1004800000AF4FF44043C4F200039B683B603B68FD
:1004900003F00E03022B22D14FF000037B6010E02B
:1004A0004FF44043C4F2000340F20002C1F20002E4
:1004B00011687A688A1812781A707B6803F1010350
:1004C0007B6040F20003C1F200035A687B689A42E5
:1004D000E6D840F20003C1F200031B6998473B686D
:1004E00003F00E030C2B1BD14FF44043C4F2000366
:1004F0001B78DAB240F28C03C1F200031A7040F2AA
:100500000003C1F200039A6840F28C03C1F20003B9
:100510001B78137040F20003C1F200039B699847F7
:100520003B6803F00E03042B40F0EB8140F2000324
:10053000C1F200031B7B032B00F2748101A252F86D
:1005400023F000BF5505000083050000FD050000F5
:10055000CF0600004FF44043C4F200031B78DAB228
:1005600040F28C03C1F200031A7040F20003C1F2A2
:1005700000039A6840F28C03C1F200031B781370E9
:10058000B9E14FF44043C4F200031B78DAB240F201
:100590008C03C1F200031A704FF44043C4F200030D
:1005A0001B78DAB240F28C03C1F200035A704FF4A8
:1005B0004043C4F200031B78DAB240F28C03C1F26C
:1005C00000039A704FF44043C4F200031B78DAB280
:1005D00040F28C03C1F20003DA7040F20003C1F272
:1005E00000039B681A4640F28C03C1F200031046D8
:1005F00019464FF0040200F0BFFC7CE14FF4404389
:10060000C4F200031B78DAB240F28C03C1F200039B
:100610001A704FF44043C4F200031B78DAB240F280
:100620008C03C1F200035A704FF44043C4F200033C
:100630001B78DAB240F28C03C1F200039A704FF4D7
:100640004043C4F200031B78DAB240F28C03C1F2DB
:100650000003DA704FF44043C4F200031B78DAB2AF
:1006600040F28C03C1F200031A714FF44043C4F20C
:1006700000031B78DAB240F28C03C1F200035A7116
:100680004FF44043C4F200031B78DAB240F28C030B
:10069000C1F200039A714FF44043C4F200031B7887
:1006A000DAB240F28C03C1F20003DA7140F20003C7
:1006B000C1F200039B681A4640F28C03C1F20003AA
:1006C000104619464FF0080200F056FC13E14FF4B3
:1006D0004043C4F200031B78DAB240F28C03C1F24B
:1006E00000031A704FF44043C4F200031B78DAB2DF
:1006F00040F28C03C1F200035A704FF44043C4F23D
:1007000000031B78DAB240F28C03C1F200039A7046
:100710004FF44043C4F200031B78DAB240F28C037A
:10072000C1F20003DA704FF44043C4F200031B78B7
:10073000DAB240F28C03C1F200031A714FF4404365
:10074000C4F200031B78DAB240F28C03C1F200035A
:100750005A714FF44043C4F200031B78DAB240F2FE
:100760008C03C1F200039A714FF44043C4F20003BA
:100770001B78DAB240F28C03C1F20003DA714FF455
:100780004043C4F200031B78DAB240F28C03C1F29A
:1007900000031A724FF44043C4F200031B78DAB22C
:1007A00040F28C03C1F200035A724FF44043C4F28A
:1007B00000031B78DAB240F28C03C1F200039A7294
:1007C0004FF44043C4F200031B78DAB240F28C03CA
:1007D000C1F20003DA724FF44043C4F200031B7805
:1007E000DAB240F28C03C1F200031A734FF44043B3
:1007F000C4F200031B78DAB240F28C03C1F20003AA
:100800005A7340F20003C1F200039B681A4640F29B
:100810008C03C1F20003104619464FF00E0200F09F
:10082000ABFB68E04FF44043C4F200031B78DAB23C
:1008300040F28C03C1F200031A704FF44043C4F23B
:1008400000031B78DAB240F28C03C1F200035A7045
:100850004FF44043C4F200031B78DAB240F28C0339
:10086000C1F200039A704FF44043C4F200031B78B6
:10087000DAB240F28C03C1F20003DA704FF4404365
:10088000C4F200031B78DAB240F28C03C1F2000319
:100890001A714FF44043C4F200031B78DAB240F2FD
:1008A0008C03C1F200035A714FF44043C4F20003B9
:1008B0001B78DAB240F28C03C1F200039A714FF454
:1008C0004043C4F200031B78DAB240F28C03C1F259
:1008D0000003DA7140F20003C1F200039B681A467C
:1008E00040F28C03C1F20003104619464FF0080293
:1008F00000F042FB00BF40F20003C1F200035B695D
:10090000984707F10807BD4680BD00BF80B582B09B
:1009100000AF4FF40043C4F209039B687B607B681F
:1009200003F00E03022B40F0B6804FF40043C4F2F4
:10093000090340F20002C1F20002926B12781A70B1
:100940004FF40043C4F2090340F20002C1F2000276
:10095000926B52781A704FF40043C4F2090340F2CC
:100960000002C1F20002926B92781A704FF40043B9
:10097000C4F2090340F20002C1F20002926BD27885
:100980001A704FF40043C4F2090340F20002C1F2AE
:100990000002926B12791A704FF40043C4F20903FB
:1009A00040F20002C1F20002926B52791A704FF4C9
:1009B0000043C4F2090340F20002C1F20002926B4C
:1009C00092791A704FF40043C4F2090340F2000216
:1009D000C1F20002926BD2791A704FF40043C4F254
:1009E000090340F20002C1F20002926B127A1A70FF
:1009F0004FF40043C4F2090340F20002C1F20002C6
:100A0000926B527A1A704FF40043C4F2090340F219
:100A10000002C1F20002926B927A1A704FF4004306
:100A2000C4F2090340F20002C1F20002926BD27AD2
:100A30001A704FF40043C4F2090340F20002C1F2FD
:100A40000002926B127B1A704FF40043C4F2090348
:100A500040F20002C1F20002926B527B1A704FF416
:100A60000043C4F2090340F20002C1F20002926B9B
:100A7000927B1A704FF40043C4F2090340F2000263
:100A8000C1F20002926BD27B1A7040F20003C1F2F5
:100A900000039B6C98477B6803F00E030C2B1BD163
:100AA0004FF40043C4F209031B78DAB240F29C030E
:100AB000C1F200031A7040F20003C1F200031A6C85
:100AC00040F29C03C1F200031B78137040F2000354
:100AD000C1F200031B6D98477B6803F00E03042BE3
:100AE00040F0EB8140F20003C1F2000393F8443080
:100AF000032B00F2738101A252F823F00D0B0000CA
:100B00003B0B0000B50B0000870C00004FF40043C6
:100B1000C4F209031B78DAB240F29C03C1F200036D
:100B20001A7040F20003C1F200031A6C40F29C03F9
:100B3000C1F200031B781370B9E14FF40043C4F213
:100B400009031B78DAB240F29C03C1F200031A7069
:100B50004FF40043C4F209031B78DAB240F29C035D
:100B6000C1F200035A704FF40043C4F209031B782A
:100B7000DAB240F29C03C1F200039A704FF40043D2
:100B8000C4F209031B78DAB240F29C03C1F20003FD
:100B9000DA7040F20003C1F200031B6C1A4640F207
:100BA0009C03C1F20003104619464FF0040200F006
:100BB000E3F97CE14FF40043C4F209031B78DAB295
:100BC00040F29C03C1F200031A704FF40043C4F2D8
:100BD00009031B78DAB240F29C03C1F200035A7099
:100BE0004FF40043C4F209031B78DAB240F29C03CD
:100BF000C1F200039A704FF40043C4F209031B785A
:100C0000DAB240F29C03C1F20003DA704FF4004301
:100C1000C4F209031B78DAB240F29C03C1F200036C
:100C20001A714FF40043C4F209031B78DAB240F2A0
:100C30009C03C1F200035A714FF40043C4F209034C
:100C40001B78DAB240F29C03C1F200039A714FF4B0
:100C50000043C4F209031B78DAB240F29C03C1F2EC
:100C60000003DA7140F20003C1F200031B6C1A4664
:100C700040F29C03C1F20003104619464FF00802EF
:100C800000F07AF913E14FF40043C4F209031B7832
:100C9000DAB240F29C03C1F200031A704FF4004331
:100CA000C4F209031B78DAB240F29C03C1F20003DC
:100CB0005A704FF40043C4F209031B78DAB240F2D1
:100CC0009C03C1F200039A704FF40043C4F209037D
:100CD0001B78DAB240F29C03C1F20003DA704FF4E1
:100CE0000043C4F209031B78DAB240F29C03C1F25C
:100CF00000031A714FF40043C4F209031B78DAB2FF
:100D000040F29C03C1F200035A714FF40043C4F255
:100D100009031B78DAB240F29C03C1F200039A7116
:100D20004FF40043C4F209031B78DAB240F29C038B
:100D3000C1F20003DA714FF40043C4F209031B78D7
:100D4000DAB240F29C03C1F200031A724FF400437E
:100D5000C4F209031B78DAB240F29C03C1F200032B
:100D60005A724FF40043C4F209031B78DAB240F21E
:100D70009C03C1F200039A724FF40043C4F20903CA
:100D80001B78DAB240F29C03C1F20003DA724FF42E
:100D90000043C4F209031B78DAB240F29C03C1F2AB
:100DA00000031A734FF40043C4F209031B78DAB24C
:100DB00040F29C03C1F200035A7340F20003C1F2F7
:100DC00000031B6C1A4640F29C03C1F2000310465C
:100DD00019464FF00E0200F0CFF868E04FF40043E0
:100DE000C4F209031B78DAB240F29C03C1F200039B
:100DF0001A704FF40043C4F209031B78DAB240F2D0
:100E00009C03C1F200035A704FF40043C4F209037B
:100E10001B78DAB240F29C03C1F200039A704FF4DF
:100E20000043C4F209031B78DAB240F29C03C1F21A
:100E30000003DA704FF40043C4F209031B78DAB2FE
:100E400040F29C03C1F200031A714FF40043C4F254
:100E500009031B78DAB240F29C03C1F200035A7115
:100E60004FF40043C4F209031B78DAB240F29C034A
:100E7000C1F200039A714FF40043C4F209031B78D6
:100E8000DAB240F29C03C1F20003DA7140F20003CF
:100E9000C1F200039B681A4640F29C03C1F20003B2
:100EA000104619464FF0080200F066F800BF40F205
:100EB0000003C1F20003DB6C984707F10807BD4649
:100EC00080BD00BF244B2122C3F8A0211A46D2F8CE
:100ED000A011214B4806FAD501220921C3F80C21A3
:100EE000C3F88410C3F88020AA22C3F88C205522AE
:100EF000C3F88C20D3F88810174A4905FAD5232364
:100F0000C2F8A4300123C2F8A030AA23C2F8AC3042
:100F10005523C2F8AC30D2F8A8100F4B4805FAD5CB
:100F200040F20112C3F8042102F58072C3F80821CF
:100F30000122C3F800210222C3F8A821074AC3F8FE
:100F4000C4204FF48072C3F8C82145F23A021A60F7
:100F5000034B00229A60704700C00F40DE872804D0
:100F600000ED00E0002008B50146024600F006F85A
:100F7000BDE80840FFF7C4B900F0F7BA10B500218A
:100F80004FF4A0721E4800F06BF8C02000F094F9F6
:100F90001C4C0021C022206000F062F8184B22682F
:100FA00003F5A0715A62283318328B42FAD100201F
:100FB0001549134A00F078F800214FF480534FF49C
:100FC00080620F4800F028F801201049104A00F014
:100FD0006BF800214FF480534FF480620C4800F00E
:100FE0001BF8022009490B4A00F05EF8094800216D
:100FF0004FF480624FF48053BDE8104000F00CB80D
:10100000B4000010B0000010481600004A1600009E
:10101000DC0000100401001070B5C46814F0030F68
:1010200017D0B2F5007F09D0B2F5806F03D0B2F5CA
:10103000807F0ED102E0416A012303E0074D5E1E6E
:10104000AE4208D8224301610160C361C260002042
:1010500070BD012070BD012070BD00BFFEFFFF000C
:1010600000F096BAC36810B523F02003C360436A4A
:1010700082695B6804469A420FD000F04BF8E3683F
:10108000626A23F4405323F0100343F01003E3603B
:101090005368A361236993602360E36823F480436A
:1010A00023F04003E36010BD70B50E4605461046C0
:1010B000144600F011F93378722B04D0772B09D045
:1010C000612B24D102E00023012205E0082348F22D
:1010D000020201E00423022216F8011F2B2902D08C
:1010E00062290AD104E042F0030243F00203F3E76D
:1010F00042F0040243F00103EEE71B07E260656182
:1011000006D520460021022200F036F900E0002436
:10111000204670BD38B5426A044605690368C06858
:10112000916820F40022E26000F08202022A17D1C6
:1011300010F4803019D0994238BF1946A94205D021
:10114000491B2846224600F011F860B9636A002066
:101150009D60E368256023F48033A060E36038BDC0
:101160004FF0FF3038BD4FF0FF3038BD2DE9F04172
:10117000D7680646FB020D461446D2F8148005D502
:10118000404600F01BFA47F01007A061174B3B40A8
:1011900093B14046A16900F01AFA002807DAE36823
:1011A0004FF0FF3043F08003E360BDE8F08127F4A7
:1011B000003727F01007E7602A4640463146FFF720
:1011C000A3F8A84214BF4FF0FF30002020F00043E6
:1011D000ED1AA3695D19A56128B1E3684FF0FF30EE
:1011E00043F08003E360BDE8F08100BF100002001F
:1011F000F8B52D4BC51C1C68AD08002853D000273E
:10120000EA1C3AE02168B1F1805F34D1A668336806
:10121000B3F1805F636806D171685B180333636064
:10122000B368A36029E0AB4205D120464FF00053DC
:1012300040F80C3BF8BD93420FD920464FF00052C6
:1012400040F80C2B5B1B00EB8502033B6560A26042
:1012500040F8251053609660F8BD66B99B00C01A2F
:1012600000F0BCF901301BD04FF0005384E8280097
:1012700004F10C00F8BD2746A468002CC2D10C3044
:1012800000F0ACF9431C0DD04FF0005380E828006B
:10129000846017B9044B186000E0B8600C30F8BDEA
:1012A0003046F8BD2046F8BDF40100104FF08053E1
:1012B00040F80C3C7047000010B5FFF799FF04465A
:1012C00028B904491722FFF71FF800F073F92046E8
:1012D00010BD00BF4C1600002DE9F04100F10C06D6
:1012E00096E8C001B10786B00446456A25D03207AA
:1012F00016D400F027F8404600F05DF9330502D51A
:101300003846FFF7D3FFB60DB60516F1A54F07D146
:1013100001A8216A142200F05DF901A800F0D4F8B8
:1013200000211822606AFFF79BFE20460021282238
:10133000FFF796FE6562002001E04FF0FF3006B037
:10134000BDE8F081F8B518B1BDE8F84000F0ECB8A0
:10135000084E04460546282707FB046000F0E4F821
:101360000134002818BF4FF0FF35082CF4D128466F
:10137000F8BD00BFB40000102DE9F0413E4BC66837
:10138000044633400D461746D0F81480002B6CD02D
:10139000404600F016F9002867D1012F04D0022F33
:1013A00007D0002F26D060E0204600F067F82D1807
:1013B00020E0404600F002F9002806DAE368012048
:1013C00043F08003E360BDE8F081626AA169976839
:1013D00023689F422CBFCB19CB1821695B1AE168A7
:1013E000890603D552689342B8BF13468342ACBF07
:1013F000ED182D18002D3BDBB20405D5636A226879
:101400009968914238BF9A60A3699D420EDB606A79
:1014100022688168914238BF11462269CF18BF1AED
:10142000BD4203DCC0681F18BD4207DB0023A36078
:101430006360636A46F020065D600EE0ED1AB30754
:1014400044BFC0EB0500A060F30702D5511A69182C
:1014500061605519256026F0200626F4022626F440
:101460008256E6600020BDE8F0810220BDE8F081F0
:101470000220BDE8F08100BF03001000C3689A0796
:1014800005D1104B21221A604FF0FF30704713F442
:10149000002F03F020030AD013B1436A586804E018
:1014A00083690268D2180369D01A0138704713B1F2
:1014B000436A5868704783690268D2180369D01A72
:1014C000704700BFAC00001010B5044600F006F8ED
:1014D00001462046BDE8104000F076B8411C04E00B
:1014E0001B7801300BB9401A704782070346F7D1C9
:1014F00000E004331A68A2F1013020EA020010F083
:10150000803FF6D012F0FF0F0BD012F47F4F06D0C1
:1015100012F47F0F01D0043304E0033302E00233FE
:1015200000E00133581A7047C36870B513F0030424
:10153000054618D09B0604D5436A5E68FFF792FD06
:1015400004E083690668F6180369F61AEB68284612
:1015500023F44053EB60FFF7DDFD314604460022E3
:101560002846FFF709FF204670BD0346091A043AD2
:1015700005D3043A51F803C043F804CBF9D2D2079B
:1015800024BFCA5A23F8022B44BFCA5C1A707047A2
:101590000346043A08D3C9B241EA012141EA0141B4
:1015A000043A43F8041BFBD2043202D0013A9954A6
:1015B000FCD17047FEE74FF0FF3070474FF0FF302F
:1015C00070474FF0FF3070474FF0FF3070474FF0DB
:1015D000FF3070474FF0FF307047000038B50C4BBC
:1015E0001A680AB90B4A1A60C51C1C6825F0030565
:1015F0006519284600F012F810B9054B1D6004E08B
:10160000054B0C221A604FF0FF34204638BD00BF56
:10161000F8010010FC010010AC000010084A6B46F5
:10162000934201D9984206D2064B33B1984234BF57
:10163000002001207047012070471846704700BF06
:10164000FC01001000000000720077002A2A2A2006
:101650005F437379735F616C6C6F63206661696C63
:0416600065640A00B3
:00000001FF
