:1000000000000110430100000D0100000F0100007D
:1000100011010000130100001501000068F9FEEF56
:1000200000000000000000000000000017010000B8
:1000300019010000000000001B0100001D0100006C
:100040001F0100001F010000E93A00001F0100002D
:100050001F0100001D430000AD470000ED4E0000F1
:100060001F0100001F0100001F0100001F01000010
:100070001F0100001F0100001F0100001F01000000
:100080001F0100001F0100001F0100001F010000F0
:100090001F0100001F0100001F0100001F010000E0
:1000A0001F0100001F0100001F0100001F010000D0
:1000B0001F0100001F0100001F0100001F010000C0
:1000C0001F0100001F0100001F0100001F010000B0
:1000D0001F0100001F0100001F0100001F010000A0
:1000E0001F01000030DC00000000001018000000BC
:1000F00030DC0000000000200000000018000010AC
:10010000480200000000002000000000FEE7FEE7BB
:10011000FEE7FEE7FEE7FEE7FEE7FEE7FEE7FEE7B7
:1001200010B5002302E01C585C5004339342FAD30C
:1001300010BD00231A4601E01A5004338B42FBD352
:10014000704738B50C4C0D4D04E094E807000C34B2
:10015000FFF7E6FFAC42F8D305E094E8030008346B
:10016000FFF7E7FF00E0064DAC42F6D305F000FDD7
:1001700005F050FDFEE700BFE4000000FC000000B9
:100180000C010000FFFFFFFFFFFFFFFFFFFFFFFF6E
:10019000FFFFFFFFFFFFFFFFFFFFFFFFFFFFFFFF6F
:1001A000FFFFFFFFFFFFFFFFFFFFFFFFFFFFFFFF5F
:1001B000FFFFFFFFFFFFFFFFFFFFFFFFFFFFFFFF4F
:1001C000FFFFFFFFFFFFFFFFFFFFFFFFFFFFFFFF3F
:1001D000FFFFFFFFFFFFFFFFFFFFFFFFFFFFFFFF2F
:1001E000FFFFFFFFFFFFFFFFFFFFFFFFFFFFFFFF1F
:1001F000FFFFFFFFFFFFFFFFFFFFFFFFFFFFFFFF0F
:10020000FFFFFFFFFFFFFFFFFFFFFFFFFFFFFFFFFE
:10021000FFFFFFFFFFFFFFFFFFFFFFFFFFFFFFFFEE
:10022000FFFFFFFFFFFFFFFFFFFFFFFFFFFFFFFFDE
:10023000FFFFFFFFFFFFFFFFFFFFFFFFFFFFFFFFCE
:10024000FFFFFFFFFFFFFFFFFFFFFFFFFFFFFFFFBE
:10025000FFFFFFFFFFFFFFFFFFFFFFFFFFFFFFFFAE
:10026000FFFFFFFFFFFFFFFFFFFFFFFFFFFFFFFF9E
:10027000FFFFFFFFFFFFFFFFFFFFFFFFFFFFFFFF8E
:10028000FFFFFFFFFFFFFFFFFFFFFFFFFFFFFFFF7E
:10029000FFFFFFFFFFFFFFFFFFFFFFFFFFFFFFFF6E
:1002A000FFFFFFFFFFFFFFFFFFFFFFFFFFFFFFFF5E
:1002B000FFFFFFFFFFFFFFFFFFFFFFFFFFFFFFFF4E
:1002C000FFFFFFFFFFFFFFFFFFFFFFFFFFFFFFFF3E
:1002D000FFFFFFFFFFFFFFFFFFFFFFFFFFFFFFFF2E
:1002E000FFFFFFFFFFFFFFFFFFFFFFFFFFFFFFFF1E
:1002F000FFFFFFFFFFFFFFFFFFFFFFFFFFFFFFFF0E
:1003000080B586B000AF3B46184602F061FE3B4622
:100310004FF44040C4F20A00194602F0D3FD4FF4F6
:100320004040C4F20A004FF0010102F075FE4FF0A8
:1003300001004FF00A014FF0000200F021FE4FF0E3
:1003400001004FF00E014FF0010200F019FE4FF0D6
:1003500001004FF00E014FF0010200F057FD4FF089
:1003600001004FF008014FF0010200F009FE4FF0CC
:1003700001004FF008014FF0010200F047FD4FF07F
:1003800001004FF00D014FF0010200F0F9FD4FF0B8
:1003900001004FF00D014FF0010200F037FD4FF06A
:1003A00001004FF001014FF0010200F0E9FD4FF0B4
:1003B00001004FF004014FF0000200F0E1FD49F2AE
:1003C000E863C0F20003184606F0D8F907F11807F1
:1003D000BD4680BD80B500AF4FF001004FF00E016B
:1003E0004FF0000200F012FD4FF44040C4F20A004A
:1003F0004FF0020102F02CFE4FF44040C4F20A001C
:100400004FF0000102F024FE4FF44040C4F20A0015
:100410004FF0080102F01CFE4FF44040C4F20A0005
:100420004FF0040102F014FE4FF0050003F096FABD
:100430004FF001004FF00E014FF0010200F0E6FC1A
:1004400000BF4FF001004FF00A0100F07DFF0346AE
:10045000002BF6D04FF001004FF00E014FF00002DC
:1004600000F0D4FC4FF44040C4F20A004FF0020107
:1004700002F0EEFD4FF44040C4F20A004FF00301D9
:1004800002F0E6FD4FF44040C4F20A004FF098013C
:1004900002F0DEFD4FF44040C4F20A004FF00001CC
:1004A00002F0D6FD4FF0050003F058FA4FF00100BE
:1004B0004FF00E014FF0010200F0A8FC49F2FC637E
:1004C000C0F20003184606F059F900BF4FF00100D2
:1004D0004FF00A0100F038FF0346002BF6D080BD34
:1004E00080B500AF00BF4FF001004FF00A0100F0EF
:1004F0002BFF0346002BF6D04FF001004FF00E010A
:100500004FF0000200F082FC4FF44040C4F20A00B9
:100510004FF0020102F09CFD4FF44040C4F20A008B
:100520004FF0000102F094FD4FF44040C4F20A0085
:100530004FF0080102F08CFD4FF44040C4F20A0075
:100540004FF0420102F084FD4FF0050003F006FA7F
:100550004FF001004FF00E014FF0010200F056FC89
:1005600049F20873C0F20003184606F007F900BF0D
:100570004FF001004FF00A0100F0E6FE0346002BA9
:10058000F6D080BD80B584B000AF4FF00003BB60F3
:100590004FF00003FB604DF21C73C0F200031846DD
:1005A00006F0ECF86AE0FB6803F120431B783B702F
:1005B000FB6803F10103FB60FB6803F120431B7838
:1005C0007B70FB6803F10103FB60FB6803F12043D0
:1005D0001B78BB70FB6803F10103FB60FB6803F150
:1005E00020431B78FB70FB6803F10103FB604FF0B5
:1005F00001004FF00D014FF0000200F007FC3B78C6
:100600004FF44040C4F20A00194602F021FD7B7805
:100610004FF44040C4F20A00194602F019FDBB78BD
:100620004FF44040C4F20A00194602F011FDFB7875
:100630004FF44040C4F20A00194602F009FD4FF0A1
:10064000050003F08BF94FF001004FF00D014FF062
:10065000010200F0DBFB00E000BF4FF001004FF0B3
:100660000A0100F071FE0346002B07D040F21C0384
:10067000C1F200031B68BA689A4294D340F21C038B
:10068000C1F200031B68BA689A42E5D34DF2347395
:10069000C0F20003184606F071F807F11007BD46D6
:1006A00080BD00BF80B483B000AF78600B46FB70A4
:1006B0007B681B78762B15D17B6803F101031B78CF
:1006C000002B0FD17B6803F102031B78FA789A4262
:1006D00008D17B6803F103031B78002B02D14FF094
:1006E000000301E04FF00103184607F10C07BD4677
:1006F00080BC704780B500AF4FF416404FF000014A
:100700004FF0000203F0B4FB00F00AF80346002BA0
:1007100002D04FF0010301E04FF00003184680BD06
:1007200080B588B000AF4FF00003FB774FF0560361
:100730003B764FF000037B764FF01103BB764FF012
:100740000003FB7607F1180318464FF0040103F08D
:1007500095FC07F1040318464FF0100103F0BCFCB0
:100760000346FB7707F1040318464FF01101FFF72A
:1007700099FF0346002B05D1FB7F002B02D14FF0E0
:10078000000301E04FF00103184607F12007BD46C2
:1007900080BD00BF80B586B000AF4FF056033B74FC
:1007A0004FF000037B744FF03603BB744FF001032E
:1007B000FB744FF000033B7507F1100318464FF030
:1007C000050103F05BFC07F1040318464FF0050137
:1007D00003F082FC0346FB7507F1040318464FF053
:1007E0003601FFF75FFF0346002B08D13B7A002B51
:1007F00005D1FB7D002B02D14FF0000301E04FF04B
:100800000103184607F11807BD4680BD80B586B0C4
:1008100000AF4FF00003FB754FF056033B744FF0F1
:1008200000037B744FF03603BB744FF00103FB747D
:100830004FF003033B7507F1100318464FF0050115
:1008400003F01CFC07F1040318464FF0050103F008
:1008500043FC0346FB7507F1040318464FF03601CD
:10086000FFF720FF0346002B08D13B7A002B05D170
:10087000FB7D002B02D14FF0000301E04FF001039C
:10088000184607F11807BD4680BD00BF80B586B089
:1008900000AF4FF000037B614FF00003FB744FF09B
:1008A00056033B734FF000037B734FF03403BB736D
:1008B0004FF00103FB734FF000033B7407F10C038F
:1008C00018464FF0050103F0D9FB3B4618464FF0A0
:1008D000090103F001FC0346FB747B797B617B69B2
:1008E0004FEA03237B61BB797A69D3187B617B690B
:1008F0004FEA03237B61FB797A69D3187B617B69BB
:100900004FEA03237B613B7A7A69D3187B613B46CC
:1009100018464FF03401FFF7C5FE0346002B07D100
:100920003B79042B04D1FB7C002B01D17B6901E0D6
:100930004FF00003184607F11807BD4680BD00BF01
:1009400080B59EB000AF78604FF000037B674FF03A
:100950000003FB664FF0000387F86B304FF056033F
:1009600087F854304FF0000387F855304FF03203CA
:1009700087F856304FF00C0387F857304FF00003DC
:1009800087F858304FF00A0387F85930ADE07B6F95
:100990004FEA1363DBB287F85A307B6F4FEA134399
:1009A000DBB287F85B307B6F4FEA1323DBB287F84B
:1009B0005C307B6FDBB287F85D304FF0000387F867
:1009C0005E304FF0000387F85F304FF0000387F888
:1009D00060304FF0200387F861304FF0000387F854
:1009E00062304FF0000387F8633007F15403184674
:1009F0004FF0100103F042FB07F12C0318464FF0B3
:100A0000050103F069FB034687F86B3007F12C03FF
:100A100018464FF03201FFF745FE0346002B03D185
:100A200097F86B30002B09D04DF24873C0F20003E9
:100A3000184605F0A3FE4FF001035FE007F10C0339
:100A400018464FF0200103F047FB034687F86B3050
:100A500097F86B30002B09D04DF25C73C0F20003A5
:100A6000184605F08BFE4FF0010347E007F12C0319
:100A700018464FF0050103F02FFB034687F86B3053
:100A800007F12C0318464FF03201FFF70BFE034627
:100A9000002B03D197F86B30002B09D04DF2707307
:100AA000C0F20003184605F069FE4FF0010325E08F
:100AB0004FF0000387F873300FE097F8733007F1B9
:100AC0007802D31813F86C3C97F8732002F10102F6
:100AD00087F87320184603F099FA97F873301F2BA4
:100AE000EBD97B6F03F120037B677B6803F1200266
:100AF0007B6F9A423FF64BAF4FF00003184607F169
:100B00007807BD4680BD00BF80B483B000AF034608
:100B1000FB71FB79032B23D801A252F823F000BF0D
:100B2000310B00003D0B0000490B0000550B00008D
:100B300040F20C03C1F200031B6812E040F208030C
:100B4000C1F200031B680CE040F20403C1F2000391
:100B50001B6806E040F20003C1F200031B6800E0DE
:100B6000FEE7184607F10C07BD4680BC704700BF82
:100B700080B483B000AF78600B46FB70FB78012B2C
:100B80000FD14FF44043C4F20F034FF44042C4F27C
:100B90000F02D2F8C42011467A680A43C3F8C42071
:100BA00013E0FB78002B10D14FF44043C4F20F0345
:100BB0004FF44042C4F20F02D2F8C42011467A68C2
:100BC0006FEA02020A40C3F8C42007F10C07BD46D1
:100BD00080BC704780B582B000AF4FF003004FF08B
:100BE0001E014FF0000200F0CBF94FF003004FF070
:100BF0001F014FF0000200F0C3F94FF005004FF065
:100C000002014FF0010200F0BBF94FF005004FF078
:100C100000014FF0010200F0B3F94FF005004FF072
:100C200001014FF0010200F0ABF94FF003004FF06B
:100C300014014FF0010200F0A3F94FF003004FF050
:100C400012014FF0010200F09BF94FF003004FF04A
:100C500013014FF0010200F093F94FF005004FF03F
:100C600002014FF0000200F0D1F84FF005004FF004
:100C700000014FF0010200F0C9F84FF005004FF0FD
:100C800001014FF0010200F0C1F84FF003004FF0F6
:100C900014014FF0000200F0B9F84FF003004FF0DC
:100CA00012014FF0010200F0B1F84FF003004FF0D5
:100CB00013014FF0010200F0A9F84FF00003FB719F
:100CC00023E04FF003004FF012014FF0000200F05C
:100CD0009DF84FF005004FF000014FF0000200F0CA
:100CE00095F84FF003004FF012014FF0010200F0B1
:100CF0008DF84FF005004FF000014FF0010200F0B9
:100D000085F8FB7903F10103FB71FB791F2BD8D91F
:100D10004FF003004FF013014FF0000200F076F89F
:100D20004FF00003FB7113E04FF003004FF012018E
:100D30004FF0000200F06AF84FF003004FF012018C
:100D40004FF0010200F062F8FB7903F10103FB713F
:100D5000FB79022BE8D94FF005004FF001014FF06D
:100D6000000200F053F84FF00003FB7113E04FF066
:100D700005004FF000014FF0000200F047F84FF07F
:100D800005004FF000014FF0010200F03FF8FB7941
:100D900003F10103FB71FB79032BE8D907F1080785
:100DA000BD4680BD80B584B000AF0346FB714FF0F7
:100DB0000103FB73FB79012B02D0022B09D011E058
:100DC0004FF003004FF01E0100F0BEFA0346FB7324
:100DD00008E04FF003004FF01F0100F0B5FA0346A2
:100DE000FB7300BFFB7B184607F11007BD4680BDB3
:100DF00080B500AF4FF0200004F018FF03461A46FC
:100E000040F2F003C1F200031A6080BD80B485B0E7
:100E100000AFF860B9607A607B68012B00F2AB80AC
:100E2000FB68052B00F2A68001A252F823F000BF58
:100E3000490E00007B0E0000AD0E0000DF0E00002A
:100E4000110F0000430F00007B68012B0AD14FF403
:100E50000043C2F20903BA684FF0010101FA02F23D
:100E60009A6188E04FF40043C2F20903BA684FF078
:100E7000010101FA02F2DA617DE07B68012B0AD1FF
:100E800048F22003C2F20903BA684FF0010101FAE7
:100E900002F29A616FE048F22003C2F20903BA68D5
:100EA0004FF0010101FA02F2DA6164E07B68012B84
:100EB0000AD148F24003C2F20903BA684FF00101B7
:100EC00001FA02F29A6156E048F24003C2F20903C5
:100ED000BA684FF0010101FA02F2DA614BE07B6877
:100EE000012B0AD148F26003C2F20903BA684FF03D
:100EF000010101FA02F29A613DE048F26003C2F298
:100F00000903BA684FF0010101FA02F2DA6132E036
:100F10007B68012B0AD148F28003C2F20903BA6848
:100F20004FF0010101FA02F29A6124E048F28003D5
:100F3000C2F20903BA684FF0010101FA02F2DA6164
:100F400019E07B68012B0AD148F2A003C2F2090321
:100F5000BA684FF0010101FA02F29A610BE048F21F
:100F6000A003C2F20903BA684FF0010101FA02F2CC
:100F7000DA6100E000BF07F11407BD4680BC70478E
:100F800080B485B000AFF860B9607A60FB68052B6B
:100F900000F2C88101A252F823F000BFB50F000093
:100FA00049100000DD100000711100000512000062
:100FB000951200004FF40043C2F209031B681A4661
:100FC000BB684FF0010101FA03F31340002B14D169
:100FD0007B68012B11D14FF40043C2F209034FF497
:100FE0000042C2F2090212681146BA684FF00100CD
:100FF00000FA02F20A431A6096E14FF40043C2F28B
:1010000009031B681A46BB684FF0010101FA03F39C
:101010001340002B00F088817B68002B40F0848116
:101020004FF40043C2F209034FF40042C2F2090236
:1010300012681146BA684FF0010000FA02F26FEA36
:1010400002020A401A606FE148F22003C2F209036B
:101050001B681A46BB684FF0010101FA03F3134005
:10106000002B14D17B68012B11D148F22003C2F26E
:10107000090348F22002C2F2090212681146BA6856
:101080004FF0010000FA02F20A431A604EE148F202
:101090002003C2F209031B681A46BB684FF0010126
:1010A00001FA03F31340002B00F040817B68002B12
:1010B00040F03C8148F22003C2F2090348F22002CA
:1010C000C2F2090212681146BA684FF0010000FA34
:1010D00002F26FEA02020A401A6027E148F2400376
:1010E000C2F209031B681A46BB684FF0010101FAFE
:1010F00003F31340002B14D17B68012B11D148F26C
:101100004003C2F2090348F24002C2F20902126827
:101110001146BA684FF0010000FA02F20A431A6061
:1011200006E148F24003C2F209031B681A46BB6895
:101130004FF0010101FA03F31340002B00F0F88097
:101140007B68002B40F0F48048F24003C2F20903B0
:1011500048F24002C2F2090212681146BA684FF022
:10116000010000FA02F26FEA02020A401A60DFE0B0
:1011700048F26003C2F209031B681A46BB684FF0CD
:10118000010101FA03F31340002B14D17B68012BFA
:1011900011D148F26003C2F2090348F26002C2F2C0
:1011A000090212681146BA684FF0010000FA02F213
:1011B0000A431A60BEE048F26003C2F209031B68EA
:1011C0001A46BB684FF0010101FA03F31340002BEC
:1011D00000F0B0807B68002B40F0AC8048F26003E8
:1011E000C2F2090348F26002C2F209021268114613
:1011F000BA684FF0010000FA02F26FEA02020A40F8
:101200001A6097E048F28003C2F209031B681A468D
:10121000BB684FF0010101FA03F31340002B14D116
:101220007B68012B11D148F28003C2F2090348F216
:101230008002C2F2090212681146BA684FF001003A
:1012400000FA02F20A431A6076E048F28003C2F222
:1012500009031B681A46BB684FF0010101FA03F34A
:101260001340002B68D07B68002B65D148F28003C7
:10127000C2F2090348F28002C2F209021268114662
:10128000BA684FF0010000FA02F26FEA02020A4067
:101290001A6051E048F2A003C2F209031B681A4623
:1012A000BB684FF0010101FA03F31340002B14D186
:1012B0007B68012B11D148F2A003C2F2090348F266
:1012C000A002C2F2090212681146BA684FF001008A
:1012D00000FA02F20A431A6030E048F2A003C2F2B8
:1012E00009031B681A46BB684FF0010101FA03F3BA
:1012F0001340002B22D07B68002B1FD148F2A003A3
:10130000C2F2090348F2A002C2F2090212681146B1
:10131000BA684FF0010000FA02F26FEA02020A40D6
:101320001A600BE000BF0AE000BF08E000BF06E063
:1013300000BF04E000BF02E000BF00E000BF07F113
:101340001407BD4680BC704780B485B000AF78609C
:1013500039604FF00003FB737B68052B7AD801A23C
:1013600052F823F07D130000A1130000C513000004
:10137000E91300000D140000311400004FF4004385
:10138000C2F209035B691A463B684FF0010101FA9A
:1013900003F31340002B0CBF00230123FB735AE01F
:1013A00048F22003C2F209035B691A463B684FF01A
:1013B000010101FA03F31340002B0CBF00230123AA
:1013C000FB7348E048F24003C2F209035B691A4626
:1013D0003B684FF0010101FA03F31340002B0CBFEF
:1013E00000230123FB7336E048F26003C2F20903D5
:1013F0005B691A463B684FF0010101FA03F31340A1
:10140000002B0CBF00230123FB7324E048F2800370
:10141000C2F209035B691A463B684FF0010101FA09
:1014200003F31340002B0CBF00230123FB7312E0D6
:1014300048F2A003C2F209035B691A463B684FF009
:10144000010101FA03F31340002B0CBF0023012319
:10145000FB7300E000BFFB7B184607F11407BD4695
:1014600080BC704780B588B000AF01F0A5FCFFF7E5
:10147000BFFC4FF0200004F0D9FB03463B614FF066
:101480000003FB774FF00003BB773B694FF0050289
:101490009A603B694FF000025A603B464FF00000F3
:1014A000194602F0C3F83B464FF040204FF00001D0
:1014B0001A4602F0DBF84FF48040C4F2020000F05C
:1014C00055FD4FF48040C4F202004FF0010100F0DE
:1014D00089FD4FF48040C4F2020000F069FD00F085
:1014E000EFFD01F0A9FA01F0C5FDFFF773FB4FF026
:1014F000010003F0D7FFFEF703FFFEF76BFFFEF7D7
:10150000EFFF4FF00003BB614DF2E873C0F2000340
:10151000184605F033F940F20413C1F200031B68CA
:10152000022B15D14DF60003C0F20003184605F05A
:1015300025F94FF4967001F019FF4FF0FA0001F011
:1015400041FF40F20413C1F200034FF001021A60A0
:1015500040F20413C1F200031B68032B0FD14DF6B8
:101560002003C0F20003184605F008F901F04AFC18
:1015700040F20413C1F200034FF001021A6040F27E
:101580000413C1F200031B68042B58D14DF640032D
:10159000C0F20003184605F0F1F8FFF7ABF8034678
:1015A000002B06D04DF66003C0F20003184605F08C
:1015B000E5F8FFF7EFF80346FB60FFF767F903462E
:1015C000BB604DF67C03C0F200031846B96805F015
:1015D000D5F8BB687B6123E0796946F26763C6F2A0
:1015E000666383FB01234FEAA3024FEAE173D21A39
:1015F00013464FEA83039B184FEA4303CA1AD3B238
:10160000184602F003FD7A6946F26763C6F2666324
:1016100083FB02134FEAA3014FEAE273CB1A7B610B
:101620007B69002BD8D1B868FFF78AF9FFF7EEF88D
:1016300040F20413C1F200034FF001021A6040F2BD
:101640000413C1F200031B68062B0FD14DF68C0367
:10165000C0F20003184605F091F8FEF793FF40F240
:101660000413C1F200034FF001021A6040F20413A8
:10167000C1F200031B68072B0AD14FF0000001F0F4
:10168000F7FA40F20413C1F200034FF001021A60AE
:1016900040F20413C1F200031B68082B0AD14FF07B
:1016A000010001F0E5FA40F20413C1F200034FF02B
:1016B00001021A6040F20413C1F200031B68092BF7
:1016C00006D140F20413C1F200034FF001021A6088
:1016D00040F2F003C1F200031B684FF48040C4F2F3
:1016E0000200194600F09EFC40F2F003C1F2000334
:1016F0001B689A683B699B6803F101039A4205D114
:10170000BB7F012B02D14FF00003BB773B699A6886
:1017100040F2F003C1F200031B689B689A4211D1AA
:101720003B695A6840F2F003C1F200031B685B6832
:101730009A4207D2BB7F002B04D101F063FB4FF02C
:101740000103BB774FF00003BB6143E040F2F003BD
:10175000C1F200031B689A6840F2E003C1F2000383
:10176000B96953F821309B6803F101039A4205D10E
:10177000FB7F012B02D14FF00003FB7740F2E00327
:10178000C1F20003BA6953F822309A6840F2F003BC
:10179000C1F200031B689B689A4217D140F2E00334
:1017A000C1F20003BA6953F822305A6840F2F003DC
:1017B000C1F200031B685B689A4207D2FB7F002BD3
:1017C00004D101F04FFE4FF00103FB77BB6903F139
:1017D0000103BB6140F21A03C1F200031B781A46F1
:1017E000BB699A42B2DC96E680B485B000AF02468F
:1017F0000B46FA71BB714FF00003FB60FB794FEAB7
:101800004312BB79D31803F1805303F530434FEAF9
:101810008303FB60FB68184607F11407BD4680BCD4
:10182000704700BF80B485B000AF02460B46FA7126
:10183000BB714FF00503FB73FB79052B7FD801A229
:1018400052F823F05D180000ED1800000F19000099
:101850000F1900000F19000017190000BB79062BA3
:101860000BD9BB79092B02D9BB790B2B05D9BB79D5
:101870000D2B06D9BB79162B03D84FF00003FB7351
:1018800033E0BB790C2B08D0BB790D2B05D0BB798D
:10189000162B06D9BB791A2B03D84FF00103FB7323
:1018A00023E0BB791D2B05D0BB791E2B02D0BB7961
:1018B0001F2B03D14FF00203FB7316E0BB791B2BE8
:1018C00002D0BB791C2B03D14FF00303FB730CE058
:1018D000BB79072B05D0BB79082B02D0BB79092B2C
:1018E0002FD14FF00403FB732BE02AE0BB791D2BB3
:1018F00003D84FF00003FB7325E0BB791E2B02D009
:10190000BB791F2B1FD14FF00103FB731BE04FF07E
:101910000003FB731AE0BB79012B02D9BB79042BBE
:1019200003D14FF00003FB730FE0BB79022B02D011
:10193000BB79032B09D14FF00303FB7305E000BF14
:1019400004E000BF02E000BF00E000BFFB7B1846E0
:1019500007F11407BD4680BC704700BF80B584B056
:1019600000AF13460246FA710A46BA717B714FF016
:101970000003FB60FA79BB7910461946FFF752FF66
:101980000346FB72FB7A052B04D14FF00103C1F231
:10199000000317E0FA79BB7910461946FFF724FFD8
:1019A0000346FB60FB681B6823F00702FB681A60B4
:1019B000FB681A687B7903F007031A43FB681A6017
:1019C0004FF00003184607F11007BD4680BD00BF69
:1019D00080B485B000AF0346FB71FB79002B02D0C9
:1019E000012B06D00BE04FF48043C4F20103FB60EF
:1019F00009E04FF40043C4F20103FB6003E04FF041
:101A00000003FB6000BFFB68184607F11407BD46E2
:101A100080BC704780B485B000AF03463960FB716D
:101A20003B68FB603B68BB60FB79002B08D1FB681F
:101A30004FF000021A70FB684FF001025A600AE092
:101A4000FB79012B07D1BB684FF000025A70BB68CD
:101A50004FF001021A7007F11407BD4680BC7047B1
:101A600080B58AB000AF0346B9607A60FB73FB7B38
:101A70001846FFF7ADFF03467B627B683B627B68DD
:101A8000FB61FB7B002B06D14FF020004FF00101E2
:101A9000FFF76EF80AE0FB7B012B06D14FF0400008
:101AA0004FF00101FFF764F800E0FEE74FF001009E
:101AB000FFF72AF801460A464FF00003C7E904235E
:101AC0007B6A4FF03F021A607B6A4FF000025A6057
:101AD0007B6A4FF000021A677B6A4FF000025A617E
:101AE0007B6A4FF000029A627B6A4FF00002DA6470
:101AF0007B6A4FF000021A65BB68002B2FD13B6A4E
:101B00001B78002B06D13B6A5B6803F1FF327B6ACE
:101B1000DA6038E03B6A59680A464FF000033969D9
:101B200003FB01F0796902FB01F141183869A0FB60
:101B30000223C9180B46104619464FF4742202F5C9
:101B400010724FF0000306F0A4FF02460B46C7E9EF
:101B500004233B6903F1FF327B6ADA6013E0BB6860
:101B6000012B10D17B6A1B6F1A46FB691B7803F0AF
:101B70000301FB695B7803F003034FEA83030B4324
:101B80001A437B6A1A6707F12807BD4680BD00BF6C
:101B900080B584B000AF02460B46FA71BB71FB7989
:101BA0001846FFF715FF0346FB60BB79012B06D1F2
:101BB000FB685B6843F00802FB685A6005E0FB685D
:101BC0005B6803F00302FB685A6007F11007BD462B
:101BD00080BD00BF80B584B000AF02460B46FA71ED
:101BE000BB71FB791846FFF7F3FE0346FB60BB7938
:101BF000012B06D1FB685B6843F00102FB685A6069
:101C000005E0FB685B6803F00A02FB685A6007F1B5
:101C10001007BD4680BD00BF80B584B000AF03464D
:101C2000FB71FB791846FFF7D3FE0346FB60FB68A8
:101C30005B6843F00202FB685A60FB685B6803F074
:101C40000902FB685A6007F11007BD4680BD00BF5E
:101C500080B584B000AF03463960FB71FB7918464C
:101C6000FFF7B6FE0346FB603B685B78012B15D19E
:101C7000FB685B691A463B681B7803F007034FEA71
:101C800043013B681B7803F00703CB184FF00101B9
:101C900001FA03F31A43FB685A611AE0FB685B69B7
:101CA0001A463B681B7803F007034FEA43013B6881
:101CB0001B7803F00703CB184FF0010101FA03F37F
:101CC0006FEA0303134023F07F4323F46003FA68B1
:101CD00053613B68DB78012B17D1FB685B691A46BF
:101CE0003B681B7803F007034FEA43013B681B780E
:101CF00003F00703CB1803F101034FF0010101FAD0
:101D000003F31A43FB685A611CE0FB685B691A46DF
:101D10003B681B7803F007034FEA43013B681B78DD
:101D200003F00703CB1803F101034FF0010101FA9F
:101D300003F36FEA0303134023F07F4323F46003AC
:101D4000FA6853613B689B78012B17D1FB685B698C
:101D50001A463B681B7803F007034FEA43013B68D0
:101D60001B7803F00703CB1803F102034FF00101C6
:101D700001FA03F31A43FB685A611CE0FB685B69D4
:101D80001A463B681B7803F007034FEA43013B68A0
:101D90001B7803F00703CB1803F102034FF0010196
:101DA00001FA03F36FEA0303134023F07F4323F4A4
:101DB0006003FA68536107F11007BD4680BD00BF9C
:101DC00080B584B000AF3A600246FA710A46BA7133
:101DD0007B71FB791846FFF7FBFD0346FB60BB797F
:101DE000062B2DD801A252F823F000BF091E0000D7
:101DF000111E0000191E0000211E0000291E0000F7
:101E0000311E0000391E0000FB683A689A6117E035
:101E1000FB683A68DA6113E0FB683A681A620FE01F
:101E2000FB683A685A620BE0FB683A681A6407E09C
:101E3000FB683A685A6403E0FB683A689A6400BF3A
:101E4000FB681B6D1A46BB79062B05D8BB794FF092
:101E5000010101FA03F301E04FF000031A43FB68AC
:101E60001A657B79002B0BD1FB685B6843F002029B
:101E7000FB685A60FB685B6803F00902FB685A6004
:101E800007F11007BD4680BD80B584B000AF134692
:101E90000246FA710A46BA717B71FB791846FFF760
:101EA00097FD0346FB607B79012B15D1FB68DB6C4A
:101EB0001A46BB7903F00703002B07DDBB7903F15A
:101EC00008034FF0010101FA03F301E04FF00003B2
:101ED0001A43FB68DA6419E0FB68DB6C1A46BB79CD
:101EE00003F00703002B0CDDBB7903F108034FF06F
:101EF000010101FA03F36FEA030147F67C630B402B
:101F000001E047F67C631A40FB68DA6407F11007CA
:101F1000BD4680BD80B584B000AFF860B9607A601E
:101F20004FF416504FF000014FF0000201F0A0FEF8
:101F30007B6803F10103B868194602F009F87B6871
:101F4000184607F11007BD4680BD00BF80B582B0BE
:101F500000AF07F1070318464FF0010102F026F821
:101F6000FB79184607F10807BD4680BD80B582B0F1
:101F700000AF78604FF400704FF00101FEF7F8FDFC
:101F80007B684FF000021A707B684FF000021A72F3
:101F90007B684FF000021A737B684FF0FF021A74DF
:101FA0007B684FF000021A6407F10807BD4680BD48
:101FB00080B483B000AF78607B681B7ADBB243F0FB
:101FC0000203DAB27B681A727B681B7ADBB203F019
:101FD0001103DAB27B681A7207F10C07BD4680BCA8
:101FE000704700BF80B483B000AF78600B46FB70D1
:101FF000FB78012B08D17B681B7ADBB243F001032D
:10200000DAB27B681A7207E07B681B7ADBB203F0F6
:102010001203DAB27B681A7207F10C07BD4680BC66
:10202000704700BF80B483B000AF786039607B68D0
:1020300093F82C30DBB203F01F023B68DA607B6858
:1020400093F83030DBB203F007023B681A617B681B
:102050009B8E9BB24FEAC3534FEAD3533A68536106
:102060007B6893F82830DBB203F01F023B689A606C
:102070007B6893F82430DBB203F03F023B685A6080
:102080007B6893F82030DBB203F03F023B681A60B4
:102090007B6893F83830DBB203F00F023B689A613B
:1020A0007B689B8F9BB24FEA03534FEA13533A6806
:1020B000D36107F10C07BD4680BC704700000000EB
:1020C00090B585B000AF4FF44043C4F202034FF423
:1020D0004042C4F20202D2F8402142F00102C3F8A9
:1020E00040214FF44043C4F202034FF44042C4F293
:1020F0000202D2F8442142F00102C3F844214FF415
:102100004043C4F202034FF44042C4F20202D2F848
:10211000482142F00102C3F848214FF44043C4F281
:1021200002034FF44042C4F20202D2F8502142F0BE
:102130000102C3F850214FF44043C4F202034FF4AC
:102140004042C4F20202D2F8602142F00102C3F818
:1021500060214FF44043C4F202034FF44042C4F202
:102160000202D2F8702142F00102C3F870214FF44C
:102170004043C4F202034FF44042C4F20202D2F8D8
:10218000742142F00102C3F874214FF44043C4F2B9
:1021900002034FF44042C4F20202D2F8802142F01E
:1021A0000102C3F880214FF44043C4F202034FF40C
:1021B0004042C4F20202D2F8842142F00102C3F884
:1021C00084214FF44043C4F202034FF44042C4F26E
:1021D0000202D2F8882142F00102C3F888214FF4AC
:1021E0004043C4F202034FF44042C4F20202D2F868
:1021F0008C2142F00102C3F88C214FF44043C4F219
:1022000002034FF44042C4F20202D2F8902142F09D
:102210000102C3F890214FF44043C4F202034FF48B
:102220004042C4F20202D2F8942142F00102C3F803
:1022300094214FF44043C4F202034FF44042C4F2ED
:102240000202D2F8982142F00102C3F898214FF41B
:102250004043C4F202034FF44042C4F20202D2F8F7
:102260009C2142F00102C3F89C214FF44043C4F288
:1022700002034FF44042C4F20202D2F8A02142F01D
:102280000102C3F8A0214FF44043C4F202034FF40B
:102290004042C4F20202D2F8A42142F00102C3F883
:1022A000A4214FF44043C4F202034FF44042C4F26D
:1022B0000202D2F8A82142F00102C3F8A8214FF48B
:1022C0004043C4F202034FF44042C4F20202D2F887
:1022D000AC2142F00102C3F8AC214FF44043C4F2F8
:1022E00002034FF44042C4F20202D2F8B02142F09D
:1022F0000102C3F8B0214FF44043C4F202034FF48B
:102300004042C4F20202D2F8B42142F00102C3F802
:10231000B4214FF44043C4F202034FF44042C4F2EC
:102320000202D2F8B82142F00102C3F8B8214FF4FA
:102330004043C4F202034FF44042C4F20202D2F816
:10234000BC2142F00102C3F8BC214FF44043C4F267
:1023500002034FF44042C4F20202D2F8002242F0DB
:102360000102C3F800224FF44043C4F202034FF4C9
:102370004042C4F20202D2F8042242F00102C3F841
:1023800004224FF44043C4F202034FF44042C4F22B
:102390000202D2F8082242F00102C3F808224FF4E8
:1023A0004043C4F202034FF44042C4F20202D2F8A6
:1023B0000C2242F00102C3F80C224FF44043C4F255
:1023C00002034FF44042C4F20202D2F8102242F05B
:1023D0000102C3F810224FF44043C4F202034FF449
:1023E0004042C4F20202D2F8142242F00102C3F8C1
:1023F00014224FF44043C4F202034FF44042C4F2AB
:102400000202D2F8182242F00102C3F818224FF457
:102410004043C4F202034FF44042C4F20202D2F835
:102420001C2242F00102C3F81C224FF44043C4F2C4
:1024300002034FF44042C4F20202D2F8202242F0DA
:102440000102C3F820224FF44043C4F202034FF4C8
:102450004042C4F20202D2F8242242F00102C3F840
:1024600024224FF44043C4F202034FF44042C4F22A
:102470000202D2F8282242F00102C3F828224FF4C7
:102480004043C4F202034FF44042C4F20202D2F8C5
:102490002C2242F00102C3F82C224FF44043C4F234
:1024A00002034FF44042C4F20202D2F8342242F056
:1024B0000102C3F834224FF44043C4F202034FF444
:1024C0004042C4F20202D2F8382242F00102C3F8BC
:1024D00038224FF44043C4F202034FF44042C4F2A6
:1024E0000202D2F8642242F00102C3F864224FF4DF
:1024F0004043C4F20F034FF44042C4F20F02D2F83B
:10250000A02122F00202C3F8A0214FF44043C4F2FC
:102510000F034FF44042C4F20F02D2F8C42042F439
:102520000062C3F8C4204FF00303BB604FF0030305
:102530007B6041F61F733B604FF44043C4F20F03CE
:102540003A68C3F8DC214FF44043C2F209034FF06C
:1025500001021A604FF44043C2F209034FF0000237
:102560009A604FF44043C2F209034FF49062C3F8FB
:1025700000214FF44043C2F20903BA684FEA022136
:102580007A688A18C3F804214FF44043C2F2090361
:102590004FF001029A624FF44044C2F2090440F243
:1025A0000403C1F200031B68184606F0BBFE024696
:1025B0000B4610461946B4A3D3E9002306F0C0FB2E
:1025C00002460B46104619464FF000024FF080437A
:1025D00003F5381306F018FB02460B461046194661
:1025E00006F052FE034603F1010323634FF4404417
:1025F000C2F2090440F20403C1F200031B6818464A
:1026000006F090FE02460B46104619469EA3D3E9FB
:10261000002306F095FB02460B46104619469CA384
:10262000D3E9002306F0F0FA02460B46104619469D
:1026300006F02AFE034603F1010363634FF44044AE
:10264000C2F2090440F20403C1F200031B681846F9
:1026500006F068FE02460B46104619468AA3D3E9E7
:10266000002306F06DFB02460B46104619468AA36E
:10267000D3E9002306F0C8FA02460B461046194675
:1026800006F002FE034603F10103A3634FF4404446
:10269000C2F2090440F20403C1F200031B681846A9
:1026A00006F040FE02460B461046194676A3D3E9D3
:1026B000002306F045FB02460B46104619464FF034
:1026C00000024FF0804303F5381306F09DFA0246EE
:1026D0000B461046194606F0D7FD034603F10103E9
:1026E000E3634FF44043C2F20903BA6802F1020205
:1026F0001A644FF44044C2F2090440F20403C1F2E8
:1027000000031B68184606F00DFE02460B461046F5
:1027100019465DA3D3E9002306F012FB02460B46DF
:10272000104619464FF000024FF0804303F5E013C6
:1027300006F06AFA02460B461046194606F0A4FD5A
:10274000034603F1020363644FF44044C2F20904F8
:1027500040F20403C1F200031B68184606F0E2FDD4
:1027600002460B461046194647A3D3E9002306F05C
:10277000E7FA02460B46104619464FF000024FF0AA
:10278000804303F59C0306F03FFA02460B461046D1
:10279000194606F079FD034603F10103A3644FF4E3
:1027A0004044C2F2090440F20403C1F200031B6872
:1027B000184606F0B7FD02460B461046194632A3EE
:1027C000D3E9002306F0BCFA02460B461046194630
:1027D00033A3D3E9002306F017FA02460B4610464E
:1027E000194606F051FD034603F10103E3644FF47B
:1027F0004044C2F2090440F20403C1F200031B6822
:10280000184606F08FFD02460B46104619461EA3D9
:10281000D3E9002306F094FA02460B461046194607
:102820001DA3D3E9002306F0EFF902460B4610463C
:10283000194606F029FD034603F1010323654FF411
:102840004044C2F2090440F20403C1F200031B68D1
:10285000184606F067FD02460B46104619460AA3C5
:10286000D3E9002306F06CFA02460B4610461946DF
:102870004FF000024FF0804303F5301306F0C4F927
:1028800012E000BFAFF300800000000065CDCD4135
:1028900000000000008042400000000000C05040E6
:1028A000000000000080504002460B4610461946CA
:1028B00006F0EAFC034603F1010363654FF440436D
:1028C000C2F209034FF002029A654FF44043C2F28C
:1028D000090340F283121A6240F20403C1F20003BA
:1028E0001B68184606F01EFD02460B4610461946A8
:1028F0004BA3D3E9002306F023FA02460B46104609
:10290000194649A3D3E9002306F07EF902460B4697
:102910001046194606F0B8FC034603F10103FB60BC
:1029200003E0FB6803F1FF33FB60FB68002BF8D189
:102930004FF44043C2F2090340F203121A624FF40B
:102940004043C2F209034FF002025A624FF0800383
:10295000FB6003E0FB6803F1FF33FB60FB68002BC7
:10296000F8D14FF44044C2F2090440F20403C1F22A
:1029700000031B68184606F0D5FC02460B461046BD
:10298000194627A3D3E9002306F0DAF902460B46DD
:102990001046194626A3D3E9002306F035F902466E
:1029A0000B461046194606F06FFC034603F101037F
:1029B0004FEA131363624FF44043C2F209034FF02E
:1029C00083021A624FF44053CAF203031B68FB6090
:1029D0004FF08003FB6003E0FB6803F1FF33FB6013
:1029E000FB68002BF8D14FF44043C2F209034FF0CB
:1029F00000021A624FF44043C2F209034FF440420E
:102A0000C2F20902D2F8002142F40022C3F80021E8
:102A10004FF00103184607F11407BD4690BD00BFF3
:102A20000000000065CDCD4100000000006AF840C4
:102A3000000000008084CE4080B584B000AF4FF429
:102A40004043C4F202034FF00002C3F8C8204FF421
:102A50004043C4F202034FF00202C3F8C82007F15A
:102A600008034FF000001946FEF7D4FF07F10803F2
:102A70004FF001004FF000011A46FEF7F1FF4FF052
:102A800001004FF000014FF64872C0F212024FF001
:102A90000003FFF795F94FF001004FF001014AF6EE
:102AA000C8724FF00003FFF78BF94FF000037B7102
:102AB0004FF000033B714FF00103FB714FF0000337
:102AC000BB7107F104034FF001001946FFF7C0F88E
:102AD0004FF000037B714FF001033B714FF0000397
:102AE000FB714FF00003BB7107F104034FF00100CD
:102AF0001946FFF7ADF84FF001004FF001014FF01C
:102B00000102FFF7C1F94FF00100FFF785F84FF020
:102B100001004FF00101FFF75DF84FF001004FF0A9
:102B20000101FFF735F807F11007BD4680BD00BF72
:102B300090B585B000AF0346FB71FB79184606F0EF
:102B400041FD03461846484906F0C6FC03461846B0
:102B500006F03CFD02460B46104619463CA3D3E95D
:102B6000002306F051F802460B46104619463AA3D8
:102B7000D3E9002306F092FA02460B4610461946A6
:102B800006F082FB0346FB60F86806F0CBFB0246CA
:102B90000B464FF001010C461046194630A3D3E90D
:102BA000002306F00FFC0346002B02D14FF0000378
:102BB0001C46E3B2002B05D040F65873C0F2020366
:102BC000FB601AE0F86806F0ADFB02460B464FF0DA
:102BD00001010C46104619461FA3D3E9002306F055
:102BE000C3FB0346002B02D14FF000031C46E3B2A7
:102BF000002B02D04AF6C873FB60FB6803F5921302
:102C000003F578634FF001004FF000011A464FF0D2
:102C10000003FFF7D5F84FF001004FF00101FA680B
:102C20004FF00003FFF7CCF84FF00100FEF7F4FF80
:102C30004FF001004FF00101FEF7CCFF4FF0010013
:102C40004FF00101FEF7A4FF07F11407BD4690BD48
:102C50000000000000F9F5400000000000F9E54028
:102C600000000000C07A004100003443AFF3008050
:102C700080B584B000AF0346FB71FB79002B43D0D5
:102C8000012B40F082804FF40043C4F20103DB6962
:102C9000184606F047FB02460B46104619463EA36F
:102CA000D3E9002306F000F902460B461046194608
:102CB0003BA3D3E9002305F0A7FF02460B461046CD
:102CC000194639A3D3E9002306F03AF802460B4629
:102CD0001046194636A3D3E9002306F0E5F802466C
:102CE0000B461046194606F0AFFA0346FB81B7F9CA
:102CF0000E30002B02DA4FF0000348E0FB89DBB214
:102D00001846FFF715FF40E04FF40043C4F20103FB
:102D1000DB69184606F006FB02460B4610461946CC
:102D20001DA3D3E9002306F0BFF802460B46104668
:102D300019461BA3D3E9002305F066FF02460B46A4
:102D40001046194618A3D3E9002305F0F9FF0246FF
:102D50000B461046194616A3D3E9002306F09EF948
:102D600002460B461046194606F06EFA0346FB81F2
:102D7000B7F90E30B42B02DD4FF0000307E0FB89FA
:102D8000DBB21846FFF7D4FE00BF4FF00103184630
:102D900007F11007BD4680BD0000000000F9E540C6
:102DA00000000000008066400000000000F9F540CF
:102DB000000000000080464080B500AF4FF00400E6
:102DC0004FF013014FF00102FEF7DAF800F00EF8B1
:102DD00080BD00BF80B500AF4FF004004FF013017D
:102DE0004FF00002FEF7CCF880BD00BF80B500AF09
:102DF0004FF004004FF013014FF00102FEF7C0F84E
:102E000080BD00BF80B500AFFFF7E4FF00BF4FF00B
:102E10000100FDF7C7FF0346002BF8D0FFF7E6FFE0
:102E200080BD00BF80B586B000AF786039604FF0DC
:102E30000100FDF769FE0346BB604FF000033B61F4
:102E40004FF0FF33FB604FF002037B611BE03B69F7
:102E500003F101037A6902FB03F3BA68B2FBF3F3EF
:102E6000FB60FA683B689A420DD93B6903F10103A4
:102E70003B613B69FF2B06D94FF000033B617B6947
:102E800003F102037B61FA683B689A42DFD87B68F2
:102E90001B68DAB27B681A607B681B681A463B695C
:102EA0004FEA03234FEA03434FEA13431A437B6875
:102EB0001A607B69DAB27B681A6107F11807BD46B0
:102EC00080BD00BF80B584B000AF786039607A689B
:102ED0004FF40043C4F208039A4206D14FF40010A5
:102EE0004FF00101FDF744FE4AE07A684FF000031D
:102EF000C4F203039A4206D14FF480604FF00101FF
:102F0000FDF736FE3CE07A684FF44043C4F20A0312
:102F10009A4257D14FF480104FF00101FDF728FE7F
:102F20004FF001004FF00D014FF00002FEF716FDCB
:102F30004FF001004FF004014FF00402FEF70EFDC8
:102F40004FF001004FF00E014FF00002FEF706FDBA
:102F50004FF001004FF001014FF00402FEF7FEFCBC
:102F60004FF001004FF000014FF00402FEF7F6FCB5
:102F70004FF001004FF00A014FF00002FEF7EEFCA7
:102F80003B685A683B689B681A433B681B691A4355
:102F90003B681B6813434FEA03434FEA1343FB604C
:102FA0007B68FA681A603B68DB6803F00F03FB601C
:102FB0007B68FA685A603B685B6978681946FFF776
:102FC00031FF00E000BF07F11007BD4680BD00BF24
:102FD00080B483B000AF78607B684FF000025A6025
:102FE0007B684FF000029A607A6844F24023C0F296
:102FF0000F0353617B684FF007021A607B684FF044
:103000000002DA607B684FF000021A6107F10C07DA
:10301000BD4680BC704700BF80B483B000AF78600D
:103020000B46FB70FB78012B06D17B685B6843F095
:1030300002027B685A6005E07B685B6803F00D0262
:103040007B685A6007F10C07BD4680BC704700BF23
:1030500080B582B000AF78600B467B807A887B6851
:103060009A604FF0020000F079FC07F10807BD46B6
:1030700080BD00BF80B500AF4FF004004FF00F01DE
:103080004FF00102FDF77CFF4FF004004FF01001FC
:103090004FF00102FDF774FF4FF004004FF01101F3
:1030A0004FF00102FDF76CFF4FF004004FF01201EA
:1030B0004FF00102FDF764FF4FF004004FF00F01E5
:1030C0004FF00102FDF7A2FE4FF004004FF0100197
:1030D0004FF00102FDF79AFE4FF004004FF011018E
:1030E0004FF00002FDF792FE4FF004004FF0120186
:1030F0004FF00002FDF78AFE80BD00BF80B582B0B0
:1031000000AF0346FB71FB79032B00F28F8001A215
:1031100052F823F0EB310000A931000067310000C4
:10312000253100004FF004004FF00F014FF0010275
:10313000FDF76CFE4FF004004FF010014FF001025C
:10314000FDF764FE4FF004004FF011014FF0000254
:10315000FDF75CFE4FF004004FF012014FF000024B
:10316000FDF754FE62E04FF004004FF00F014FF006
:103170000002FDF74BFE4FF004004FF010014FF03E
:103180000102FDF743FE4FF004004FF011014FF034
:103190000102FDF73BFE4FF004004FF012014FF02B
:1031A0000002FDF733FE41E04FF004004FF00F0145
:1031B0004FF00002FDF72AFE4FF004004FF010011F
:1031C0004FF00002FDF722FE4FF004004FF0110116
:1031D0004FF00102FDF71AFE4FF004004FF012010C
:1031E0004FF00102FDF712FE20E04FF004004FF017
:1031F0000F014FF00102FDF709FE4FF004004FF000
:1032000010014FF00002FDF701FE4FF004004FF0F7
:1032100011014FF00002FDF7F9FD4FF004004FF0EF
:1032200012014FF00102FDF7F1FD00BF07F10807A1
:10323000BD4680BD80B582B000AF0346FB71FB790F
:10324000032B00F28F8001A252F823F05D320000C0
:103250009F320000E1320000233300004FF00400F1
:103260004FF00F014FF00102FDF7D0FD4FF00400C9
:103270004FF010014FF00102FDF7C8FD4FF00400C0
:103280004FF011014FF00002FDF7C0FD4FF00400B8
:103290004FF012014FF00002FDF7B8FD62E04FF071
:1032A00004004FF00F014FF00002FDF7AFFD4FF0AB
:1032B00004004FF010014FF00102FDF7A7FD4FF0A1
:1032C00004004FF011014FF00102FDF79FFD4FF098
:1032D00004004FF012014FF00002FDF797FD41E0AE
:1032E0004FF004004FF00F014FF00002FDF78EFD8C
:1032F0004FF004004FF010014FF00002FDF786FD83
:103300004FF004004FF011014FF00102FDF77EFD78
:103310004FF004004FF012014FF00102FDF776FD6F
:1033200020E04FF004004FF00F014FF00102FDF7D5
:103330006DFD4FF004004FF010014FF00002FDF75B
:1033400065FD4FF004004FF011014FF00002FDF752
:103350005DFD4FF004004FF012014FF00102FDF748
:1033600055FD00BF07F10807BD4680BD80B584B09C
:1033700000AF78604FF00003FB604FF00003BB60CC
:1033800016E04FF0140000F021FBFB68DBB2FA6896
:1033900002F10102FA601846FFF7B0FEFB68042B49
:1033A00002D14FF00003FB60BB6803F10103BB6077
:1033B000BA687B689A42E4D300F030F807F110074E
:1033C000BD4680BD80B584B000AF78604FF000038B
:1033D000FB604FF00003BB6016E04FF0140000F0FC
:1033E000F5FAFB68DBB2FA6802F10102FA601846EE
:1033F000FFF720FFFB68042B02D14FF00003FB60B6
:10340000BB6803F10103BB60BA687B689A42E4D3EE
:1034100000F004F807F11007BD4680BD80B500AF8D
:103420004FF004004FF00F014FF00002FDF7EEFCEB
:103430004FF004004FF010014FF00002FDF7E6FCE2
:103440004FF004004FF011014FF00002FDF7DEFCD9
:103450004FF004004FF012014FF00002FDF7D6FCD0
:1034600080BD00BF80B582B000AF4FF00003FB719C
:103470004FF00003BB8018E04FF0140000F0A6FAF4
:10348000BB88C82B03D14FF0C800FFF79BFFFB7927
:10349000FA7902F10102FA711846FFF72FFEFB7963
:1034A000042B02D14FF00003FB714FF00200FDF737
:1034B00079FC0346002BDFD0FFF7B0FF07F10807C8
:1034C000BD4680BD80B483B000AF0346FB714FF4AE
:1034D0006143CEF2000397F907204FEA5212F979BF
:1034E00001F01F014FF0010000FA01F143F8221032
:1034F00007F10C07BD4680BC704700BF80B584B0A3
:1035000000AF78604FF00100FDF7FEFA0346FB6064
:10351000FB68184607F11007BD4680BD80B584B032
:1035200000AF786039607868FFF7E8FF01460A4627
:103530004FF00003C7E9022339680A464FF0000341
:10354000B96803FB01F0F96802FB01F14118B868A2
:10355000A0FB0223C9180B46104619464FF47422EB
:1035600002F510724FF0000305F093FA02460B4685
:10357000C7E90223BB68184607F11007BD4680BDA6
:1035800080B485B000AF78604FF0FF33FB607B689C
:10359000B3F1402F03D14FF00003FB601FE07A68C6
:1035A0004FF40043C4F200039A4203D14FF00103E9
:1035B000FB6014E07A684FF00003C4F209039A42FA
:1035C00003D14FF00203FB6009E07A684FF48043B7
:1035D000C4F209039A4202D14FF00303FB60FB6877
:1035E000184607F11407BD4680BC704780B485B00B
:1035F00000AF78600B46FB707B681B68DAB2FB7823
:103600004FF0010101FA03F3DBB21340FB73FB7BC4
:10361000002B02D04FF0010301E04FF000031846E9
:1036200007F11407BD4680BC704700BF80B485B069
:1036300000AF03463960FB71FB79002B0AD13B6870
:10364000FB60FB684FF001021A70FB684FF001024B
:103650005A6005E03B68BB60BB684FF000025A70DF
:1036600007F11407BD4680BC704700BF80B586B027
:1036700000AFF8600B467A60FB72FB68B3F1402F35
:1036800006D14FF002004FF00101FDF771FA28E07A
:10369000FA684FF40043C4F200039A4206D14FF097
:1036A00004004FF00101FDF763FA1AE0FA684FF0E9
:1036B0000003C4F209039A4206D14FF480004FF090
:1036C0000101FDF755FA0CE0FA684FF48043C4F2AB
:1036D00009039A4205D14FF400004FF00101FDF7B4
:1036E00047FAFB681B6F23F00302FB681A67FB684D
:1036F0001B6F1A46FB681A67FB684FF000029A605E
:10370000FB684FF000021A61FB684FF00002DA60BC
:10371000FB685B6843F00202FB685A60FB685B6809
:1037200023F00202FB685A60FB7A002B1DD17B68F4
:103730007B617B691B78002B06D17B695B6803F199
:10374000FF32FB68DA6022E0F868FFF719FF0346F2
:103750001A467B695B6810461946FFF7DFFE034691
:1037600003F1FF32FB68DA6011E07B683B61FB68C4
:103770001B6F23F00C02FB681A673B695B78012B17
:1037800005D1FB689B6A43F00402FB689A62FB6800
:103790004FF0FF321A6007F11807BD4680BD00BF29
:1037A00080B483B000AF78600B46FB70FB78012BD0
:1037B00006D17B685B6843F001027B685A6005E0D4
:1037C0007B685B6823F001027B685A6007F10C0795
:1037D000BD4680BC704700BF80B483B000AF786046
:1037E0007B685B6843F002027B685A607B685B68B9
:1037F00023F002027B685A6007F10C07BD4680BCCB
:10380000704700BF80B483B000AF786039603B6818
:103810001B78032B1ED801A252F823F02D3800008C
:1038200037380000413800004B3800003B689A6888
:103830007B689A610FE03B689A687B68DA610AE00E
:103840003B689A687B681A6205E03B689A687B6807
:103850005A6200E0FEE77B685B6919463B681B78AB
:103860001A4613464FEA43039B184FF0070202FA29
:1038700003F36FEA030301EA03027B685A613B68C2
:103880005B78002B11D07B685B6919463B681B781D
:103890001A4613464FEA43039B184FF0010202FAFF
:1038A00003F341EA03027B685A613B68DB78002B33
:1038B00013D07B685B6919463B681B781A46134630
:1038C0004FEA43039B1803F101034FF0010202FA90
:1038D00003F341EA03027B685A613B689B78002B43
:1038E00013D07B685B6919463B681B781A46134600
:1038F0004FEA43039B1803F102034FF0010202FA5F
:1039000003F341EA03027B685A617B68DB6B1A466A
:103910003B681B784FEA430303F104034FF00301B4
:1039200001FA03F36FEA03031A407B68DA637B68EA
:10393000DB6B1A463B681B7903F003013B681B787D
:103940004FEA430303F1040301FA03F31A437B68CC
:10395000DA6307F10C07BD4680BC704780B586B0BE
:1039600000AF78604FF040234FF0FF321A604FF005
:1039700000033B734FF001037B734FF00103FB73B4
:103980004FF00103BB734FF000033B747B687B6116
:1039900007F10C034FF040201946FFF733FF4FF0BB
:1039A00040204FF00101FFF7FBFE00BF4FF0402326
:1039B0001B6803F00103002BF8D04FF04020FFF705
:1039C0000BFF07F11807BD4680BD00BF80B582B070
:1039D00000AF78607B684FF47A7202FB03F31846FD
:1039E000FFF7BCFF07F10807BD4680BD80B588B072
:1039F00000AF03463960FB713B68FB6107F10803C8
:103A00004FF000001946FFF711FE07F108034FF4CD
:103A10000040C4F200004FF000011A46FFF726FEF6
:103A20004FF000033B754FF001037B74FB793B744F
:103A3000FB69BB614FF00003FB744FF00003BB74E4
:103A400007F110034FF40040C4F200001946FFF7DD
:103A5000D9FE4FF40040C4F20000FFF7BDFE4FF066
:103A60000200FFF72FFD4FF40040C4F200004FF0BA
:103A70000101FFF795FE07F12007BD4680BD00BF9D
:103A800080B582B000AF0346FB714FF40043C4F22F
:103A900000034FF40042C4F2000252691046F97963
:103AA0000A464FEA420252184FF0010101FA02F2AF
:103AB0006FEA020202405A614FF40043C4F200036D
:103AC0005B691A4640F249231340002B07D04FF49C
:103AD0000040C4F200004FF00001FFF761FE07F163
:103AE0000807BD4680BD00BF80B500AF4FF4004061
:103AF000C4F200004FF00001FFF778FD0346002BF1
:103B000017D04FF40043C4F200034FF40042C4F254
:103B10000002126842F001021A604FF00000FFF745
:103B2000AFFF40F21803C1F200034FF001021A7018
:103B300052E04FF40040C4F200004FF00101FFF7E3
:103B400055FD0346002B10D04FF40043C4F2000390
:103B50004FF40042C4F20002126842F002021A60FE
:103B60004FF00100FFF78CFF36E04FF40040C4F245
:103B700000004FF00201FFF739FD0346002B10D083
:103B80004FF40043C4F200034FF40042C4F20002B9
:103B9000126842F004021A604FF00200FFF770FF53
:103BA0001AE04FF40040C4F200004FF00301FFF7A9
:103BB0001DFD0346002B0FD04FF40043C4F2000359
:103BC0004FF40042C4F20002126842F008021A6088
:103BD0004FF00300FFF754FF80BD00BF80B483B0F7
:103BE00000AF0346FB714FF46143CEF2000397F937
:103BF00007204FEA5212F97901F01F014FF001003E
:103C000000FA01F143F8221007F10C07BD4680BC11
:103C1000704700BF80B483B000AF03463960FB71CA
:103C200097F90730002B10DA4FF46D43CEF2000302
:103C3000FA7902F00F02A2F104013A68D2B24FEA17
:103C4000C202D2B25B181A760DE04FF46143CEF295
:103C5000000397F907103A68D2B24FEAC202D2B213
:103C60005B1883F8002307F10C07BD4680BC704742
:103C700080B485B000AF786013460A46FA70BB7016
:103C80004FF44043C4F20F034FF44042C4F20F021A
:103C9000D2F8C42042F00802C3F8C4204FF44043D5
:103CA000C4F20003F978BA780A43D2B262F07C0217
:103CB000D2B21A7343F67003C0F239037A68B3FBC9
:103CC000F2F3FB604FF44043C4F20003FA684FEA9A
:103CD0001222D2B21A714FF44043C4F20003FA68C0
:103CE000D2B21A704FF44043C4F200034FF4404282
:103CF000C4F20002127BD2B202F07F02D2B21A7377
:103D00004FF44043C4F200034FF007021A724FF41D
:103D10004043C4F202034FF000029A604FF4404364
:103D2000C4F202034FF00002DA604FF44043C4F2E1
:103D300002034FF001029A604FF44043C4F20203C1
:103D40004FF00102DA6007F11407BD4680BC7047EE
:103D500080B485B000AF786013460A46FA70BB7035
:103D60004FF44043C4F20F034FF44042C4F20F0239
:103D7000D2F8C42042F01002C3F8C4204FF0000370
:103D8000C4F20103F978BA780A43D2B262F07C0235
:103D9000D2B21A7343F67003C0F239037A68B3FBE8
:103DA000F2F3FB604FF00003C4F20103FA684FEA3C
:103DB0001222D2B21A714FF00003C4F20103FA6862
:103DC000D2B21A704FF00003C4F201034FF00002A8
:103DD000C4F20102127BD2B202F07F02D2B21A7395
:103DE0004FF00003C4F201034FF007021A724FF4C0
:103DF0004043C4F202034FF00002C3F8C0214FF465
:103E00004043C4F202034FF00002C3F8C4214FF450
:103E10004043C4F202034FF00102C3F8C0214FF443
:103E20004043C4F202034FF44042C4F20202D2F80B
:103E3000C02142F00202C3F8C0214FF44043C4F253
:103E400002034FF00102C3F8C4214FF44043C4F20F
:103E500002034FF44042C4F20202D2F8C42142F0FD
:103E60000202C3F8C42107F11407BD4680BC7047A5
:103E700080B485B000AF786013460A46FA70BB7014
:103E80004FF44043C4F20F034FF44042C4F20F0218
:103E9000D2F8C42042F08072C3F8C4204FF400432B
:103EA000C4F20903F978BA780A43D2B262F07C020C
:103EB000D2B21A7343F67003C0F239037A68B3FBC7
:103EC000F2F3FB604FF40043C4F20903FA684FEACF
:103ED0001222D2B21A714FF40043C4F20903FA68F5
:103EE000D2B21A704FF40043C4F209034FF40042F7
:103EF000C4F20902127BD2B202F07F02D2B21A736C
:103F00004FF40043C4F209034FF007021A724FF452
:103F10004043C4F202034FF000029A624FF4404360
:103F2000C4F202034FF00002DA624FF44043C4F2DD
:103F300002034FF001029A624FF44043C4F20203BD
:103F40004FF00102DA6207F11407BD4680BC7047EA
:103F500080B485B000AF786039603B68FB604FF09B
:103F60000003FB6019E000BF4FF44043C4F20003BC
:103F70001B7DDBB203F02003002BF5D04FF4404350
:103F8000C4F200037A6812781A707B6803F10103A7
:103F90007B60FB6803F10103FB60FA683B689A42AF
:103FA000E1D307F11407BD4680BC704780B485B0EB
:103FB00000AF786039603B68FB604FF00003FB6046
:103FC0001AE000BF4FF44043C4F200031B7DDBB294
:103FD00003F00103002BF5D04FF44043C4F200037B
:103FE0001B78DAB27B681A707B6803F101037B608F
:103FF000FB6803F10103FB60FA683B689A42E0D377
:1040000007F11407BD4680BC704700BF80B483B081
:1040100000AF0346FB7100BF4FF00003C4F2010381
:104020001B7DDBB203F02003002BF5D04FF0000323
:10403000C4F20103FA791A7007F10C07BD4680BC7F
:10404000704700BF80B400AF4FF00003C4F201031B
:104050001B7DDBB203F00103DBB2002B06D04FF077
:104060000003C4F201031B78DBB201E04FF6FF73DB
:104070001BB21846BD4680BC704700BF80B485B0F7
:1040800000AF786039603B68FB604FF00003FB6075
:1040900019E000BF4FF40043C4F209031B7DDBB2FB
:1040A00003F02003002BF5D04FF40043C4F20903C2
:1040B0007A6812781A707B6803F101037B60FB68F1
:1040C00003F10103FB60FA683B689A42E1D307F110
:1040D0001407BD4680BC704780B584B000AF7860DF
:1040E00039603B68FB604FF00003FB603CE04FF041
:1040F000000044F62061FFF779FC00BF4FF4004355
:10410000C4F209031B7DDBB203F00103002B06D1CF
:1041100040F21803C1F200031B78002BEED040F2EE
:104120001803C1F200031B78002B09D040F21803DA
:10413000C1F200034FF000021A704FF0010319E0C2
:104140004FF40043C4F209031B78DAB27B681A709B
:104150007B6803F101037B604FF00000FFF790FCE8
:10416000FB6803F10103FB60FA683B689A42BED327
:104170004FF000035BB2184607F11007BD4680BD43
:1041800080B582B000AF78607B681B7C032B2BD896
:1041900001A252F823F000BFA9410000B94100007C
:1041A000C9410000D94100004FF00003C4F20103EF
:1041B0004FF007021A721FE04FF00003C4F2010330
:1041C0004FF047021A7217E04FF00003C4F20103E8
:1041D0004FF087021A720FE04FF00003C4F20103A0
:1041E0004FF0C7021A7207E04FF00003C4F2010358
:1041F0004FF007021A7200BF7B681B784FF0060071
:104200001946FFF707FD4FF00600FFF7E7FC7B6854
:104210005A6840F22003C1F20003DA617B689A68B1
:1042200040F22003C1F200031A627B685B69002B35
:1042300009D140F22003C1F2000344F21132C0F26E
:104240000002DA6206E07B685A6940F22003C1F29C
:104250000003DA627B681A7C40F22003C1F200039B
:1042600083F828207B68DB68002B09D140F220030B
:10427000C1F2000340F2BC02C1F200025A6206E041
:104280007B68DA6840F22003C1F200035A627B685F
:104290009B69002B09D140F22003C1F2000344F2D4
:1042A0001132C0F200021A6306E07B689A6940F29C
:1042B0002003C1F200031A637B68DB69002B09D17C
:1042C00040F22003C1F2000344F21132C0F20002B6
:1042D0005A6306E07B68DA6940F22003C1F200030A
:1042E0005A6307F10807BD4680BD00BF80B400AF28
:1042F0004FF00003C4F201034FF00002C4F20102C8
:10430000526842F001025A60BD4680BC704700BF4F
:1043100080B400AFBD4680BC704700BF80B582B09E
:1043200000AF4FF44043C4F200039B683B603B681E
:1043300003F00E03022B22D14FF000037B6010E04C
:104340004FF44043C4F2000340F22002C1F20002E5
:1043500011687A688A1812781A707B6803F1010371
:104360007B6040F22003C1F200035A687B689A42E6
:10437000E6D840F22003C1F200031B6998473B686E
:1043800003F00E030C2B1BD14FF44043C4F2000387
:104390001B78DAB240F2AC03C1F200031A7040F2AB
:1043A0002003C1F200039A6840F2AC03C1F200039B
:1043B0001B78137040F22003C1F200039B699847F9
:1043C0003B6803F00E03042B40F0EB8140F2200326
:1043D000C1F200031B7B032B00F2748101A252F88F
:1043E00023F000BFF5430000234400009D4400007B
:1043F0006F4500004FF44043C4F200031B78DAB26B
:1044000040F2AC03C1F200031A7040F22003C1F283
:1044100000039A6840F2AC03C1F200031B781370EA
:10442000B9E14FF44043C4F200031B78DAB240F222
:10443000AC03C1F200031A704FF44043C4F200030E
:104440001B78DAB240F2AC03C1F200035A704FF4A9
:104450004043C4F200031B78DAB240F2AC03C1F26D
:1044600000039A704FF44043C4F200031B78DAB2A1
:1044700040F2AC03C1F20003DA7040F22003C1F253
:1044800000039B681A4640F2AC03C1F200031046D9
:1044900019464FF0040201F0C7FB7CE14FF44043A2
:1044A000C4F200031B78DAB240F2AC03C1F200039D
:1044B0001A704FF44043C4F200031B78DAB240F2A2
:1044C000AC03C1F200035A704FF44043C4F200033E
:1044D0001B78DAB240F2AC03C1F200039A704FF4D9
:1044E0004043C4F200031B78DAB240F2AC03C1F2DD
:1044F0000003DA704FF44043C4F200031B78DAB2D1
:1045000040F2AC03C1F200031A714FF44043C4F20D
:1045100000031B78DAB240F2AC03C1F200035A7117
:104520004FF44043C4F200031B78DAB240F2AC030C
:10453000C1F200039A714FF44043C4F200031B78A8
:10454000DAB240F2AC03C1F20003DA7140F22003A8
:10455000C1F200039B681A4640F2AC03C1F20003AB
:10456000104619464FF0080201F05EFB13E14FF4CC
:104570004043C4F200031B78DAB240F2AC03C1F24C
:1045800000031A704FF44043C4F200031B78DAB200
:1045900040F2AC03C1F200035A704FF44043C4F23E
:1045A00000031B78DAB240F2AC03C1F200039A7048
:1045B0004FF44043C4F200031B78DAB240F2AC037C
:1045C000C1F20003DA704FF44043C4F200031B78D9
:1045D000DAB240F2AC03C1F200031A714FF4404367
:1045E000C4F200031B78DAB240F2AC03C1F200035C
:1045F0005A714FF44043C4F200031B78DAB240F220
:10460000AC03C1F200039A714FF44043C4F20003BB
:104610001B78DAB240F2AC03C1F20003DA714FF456
:104620004043C4F200031B78DAB240F2AC03C1F29B
:1046300000031A724FF44043C4F200031B78DAB24D
:1046400040F2AC03C1F200035A724FF44043C4F28B
:1046500000031B78DAB240F2AC03C1F200039A7295
:104660004FF44043C4F200031B78DAB240F2AC03CB
:10467000C1F20003DA724FF44043C4F200031B7826
:10468000DAB240F2AC03C1F200031A734FF44043B4
:10469000C4F200031B78DAB240F2AC03C1F20003AB
:1046A0005A7340F22003C1F200039B681A4640F29D
:1046B000AC03C1F20003104619464FF00E0201F0A0
:1046C000B3FA68E04FF44043C4F200031B78DAB257
:1046D00040F2AC03C1F200031A704FF44043C4F23D
:1046E00000031B78DAB240F2AC03C1F200035A7047
:1046F0004FF44043C4F200031B78DAB240F2AC033B
:10470000C1F200039A704FF44043C4F200031B78D7
:10471000DAB240F2AC03C1F20003DA704FF4404366
:10472000C4F200031B78DAB240F2AC03C1F200031A
:104730001A714FF44043C4F200031B78DAB240F21E
:10474000AC03C1F200035A714FF44043C4F20003BA
:104750001B78DAB240F2AC03C1F200039A714FF455
:104760004043C4F200031B78DAB240F2AC03C1F25A
:104770000003DA7140F22003C1F200039B681A467D
:1047800040F2AC03C1F20003104619464FF0080294
:1047900001F04AFA00BF40F22003C1F200035B6956
:1047A000984707F10807BD4680BD00BFF0B585B04A
:1047B00002AFFFF747FC03467B607B68B3F1FF3F26
:1047C00000F090837B682A2B06D040F20013C1F2E0
:1047D00000031B68012B46D17B682A2B19D140F2BC
:1047E0000013C1F200031B6803F1010145F25653A7
:1047F000C5F2555383FB01024FEAE173D21A134607
:104800004FEA43039B18CA1A40F20013C1F2000397
:104810001A6040F2FC03C1F200031A687B68D9B247
:1048200040F20813C1F20003995440F2FC03C1F2B4
:1048300000031B6803F1010146F26763C6F2666379
:1048400083FB01234FEAA3024FEAE173D21A134616
:104850004FEA83039B184FEA4303CA1A40F2FC0352
:10486000C1F200031A6040F20413C1F200031B6896
:10487000062B21D140F2F803C1F200031B6803F1BB
:1048800020437A68D2B21A7040F2F803C1F20003F2
:104890001B6803F1010240F2F803C1F200031A6041
:1048A00040F21C03C1F200031B6803F1010240F255
:1048B0001C03C1F200031A6040F20413C1F20003AA
:1048C0001B68092B40F0E78240F21C03C1F2000391
:1048D0001B68072B00F2DF8201A050F823F000BF15
:1048E000014900009D4900003B4A0000D74A0000F2
:1048F000834B0000514C00000B4D0000B54D0000F3
:104900004DF6AC03C0F20003184601F037FF4DF638
:10491000B403C0F200031846796801F02FFF40F29B
:104920001903C1F200031B78002B2AD17B682F2BBF
:1049300027DD7B68392B24DC4DF6B803C0F2000379
:10494000184601F01BFF40F2F003C1F200031C689F
:10495000786803F053FC024613464FEA83039B1822
:104960004FEA4303A36040F21C03C1F200031B683B
:1049700003F1010240F21C03C1F200031A6000BF00
:1049800089E240F21C03C1F200031B6803F101023B
:1049900040F21C03C1F200031A607CE24DF6C00332
:1049A000C0F20003184601F0E9FE4DF6B403C0F270
:1049B00000031846796801F0E1FE40F21903C1F2E4
:1049C00000031B78002B2BD17B682F2B28DD7B6805
:1049D000392B25DC4DF6B803C0F20003184601F070
:1049E000CDFE40F2F003C1F200031C6840F2F00378
:1049F000C1F200031B689D68786803F0FFFB034663
:104A0000EB18A36040F21C03C1F200031B6803F122
:104A1000010240F21C03C1F200031A6000BF3AE237
:104A200040F21C03C1F200031B6803F1010240F2D3
:104A30001C03C1F200031A602DE24DF6C803C0F258
:104A40000003184601F09AFE4DF6B403C0F20003CD
:104A50001846796801F092FE40F21903C1F2000392
:104A60001B78002B2AD17B682F2B27DD7B68392B05
:104A700024DC4DF6B803C0F20003184601F07EFEB8
:104A800040F2F003C1F200031C68786803F0B6FB43
:104A9000024613464FEA83039B184FEA43036360C1
:104AA00040F21C03C1F200031B6803F1010240F253
:104AB0001C03C1F200031A6000BFECE140F21C03CA
:104AC000C1F200031B6803F1010240F21C03C1F2B2
:104AD00000031A60DFE14DF6D003C0F20003184670
:104AE00001F04CFE4DF6B403C0F20003184679689D
:104AF00001F044FE40F21903C1F200031B78002BC1
:104B000032D17B682F2B2FDD7B68392B2CDC4DF6C7
:104B1000B803C0F20003184601F030FE40F2F00383
:104B2000C1F200031C6840F2F003C1F200031B68ED
:104B30005D68786803F062FB0346EB18636040F23F
:104B40001C03C1F200031B6803F1010240F21C03C5
:104B5000C1F200031A6040F21903C1F200034FF0E2
:104B600001021A7000BF96E140F21C03C1F200037B
:104B70001B6803F1010240F21C03C1F200031A603A
:104B800089E14DF6D803C0F20003184601F0F6FDA6
:104B90004DF6B403C0F200031846796801F0EEFD4B
:104BA00040F21A03C1F200031B78032B43D87B6841
:104BB0002F2B40DD7B68392B3DDC4DF6B803C0F26E
:104BC0000003184601F0DAFD40F21A03C1F20003B7
:104BD0001B781C464FF0200001F028F803461A46C7
:104BE00040F2E003C1F2000343F8242040F21A032C
:104BF000C1F200031B781A4640F2E003C1F2000341
:104C000053F82240786803F0F9FA024613464FEA57
:104C100083039B184FEA4303A36040F21C03C1F2D5
:104C200000031B6803F1010240F21C03C1F2000300
:104C30001A6000BF2FE140F21C03C1F200031B68A1
:104C400003F1010240F21C03C1F200031A6022E1E9
:104C50004DF6E003C0F20003184601F08FFD4DF65B
:104C6000B403C0F200031846796801F087FD40F2F2
:104C70001A03C1F200031B78032B39D87B682F2B52
:104C800036DD7B68392B33DC4DF6B803C0F2000308
:104C9000184601F073FD40F21A03C1F200031B78BD
:104CA0001A4640F2E003C1F2000353F8224040F2FA
:104CB0001A03C1F200031B781A4640F2E003C1F266
:104CC000000353F822309D68786803F097FA034692
:104CD000EB18A36040F21C03C1F200031B6803F150
:104CE000010240F21C03C1F200031A6000BFD2E0CF
:104CF00040F21C03C1F200031B6803F1010240F201
:104D00001C03C1F200031A60C5E04DF6E803C0F2CF
:104D10000003184601F032FD4DF6B403C0F2000363
:104D20001846796801F02AFD40F21A03C1F2000327
:104D30001B78032B31D87B682F2B2EDD7B68392B1A
:104D40002BDC4DF6B803C0F20003184601F016FD47
:104D500040F21A03C1F200031B781A4640F2E00346
:104D6000C1F2000353F82240786803F047FA024684
:104D700013464FEA83039B184FEA4303636040F2F4
:104D80001C03C1F200031B6803F1010240F21C0383
:104D9000C1F200031A6000BF7DE040F21C03C1F2C3
:104DA00000031B6803F1010240F21C03C1F200037F
:104DB0001A6070E04DF6F003C0F20003184601F0EF
:104DC000DDFC4DF6B403C0F200031846796801F02B
:104DD000D5FC40F21A03C1F200031B78032B52D812
:104DE0007B682F2B4FDD7B68392B4CDC4DF6B803ED
:104DF000C0F20003184601F0C1FC40F21A03C1F2F0
:104E000000031C78224640F2E003C1F2000353F88D
:104E100022506E68786803F0F1F90346F3186B606E
:104E200004F10103DAB240F21A03C1F200031A706E
:104E300040F21C03C1F200034FF000021A604DF66D
:104E4000F803C0F2000340F2F002C1F2000212685F
:104E5000916840F2F002C1F200021268556840F217
:104E6000E002C1F200021268946840F2E002C1F26E
:104E7000000212685268009218462A46234601F042
:104E80007DFC00BF06E040F21C03C1F200034FF0BE
:104E900000021A6000BF40F20013C1F200031B6859
:104EA000022B1FD140F20810C1F2000000F0CCFC30
:104EB00040F20013C1F200031B6803F1010145F247
:104EC0005653C5F2555383FB01024FEAE173D21AE0
:104ED00013464FEA43039B18CA1A40F20013C1F26B
:104EE00000031A6007F10C07BD46F0BD80B582B023
:104EF00000AF4FF40043C4F209039B687B607B68FA
:104F000003F00E03022B40F0B6804FF40043C4F2CE
:104F1000090340F22002C1F20002926B12781A706B
:104F20004FF40043C4F2090340F22002C1F2000230
:104F3000926B52781A704FF40043C4F2090340F2A6
:104F40002002C1F20002926B92781A704FF4004373
:104F5000C4F2090340F22002C1F20002926BD2783F
:104F60001A704FF40043C4F2090340F22002C1F268
:104F70000002926B12791A704FF40043C4F20903D5
:104F800040F22002C1F20002926B52791A704FF483
:104F90000043C4F2090340F22002C1F20002926B06
:104FA00092791A704FF40043C4F2090340F22002D0
:104FB000C1F20002926BD2791A704FF40043C4F22E
:104FC000090340F22002C1F20002926B127A1A70B9
:104FD0004FF40043C4F2090340F22002C1F2000280
:104FE000926B527A1A704FF40043C4F2090340F2F4
:104FF0002002C1F20002926B927A1A704FF40043C1
:10500000C4F2090340F22002C1F20002926BD27A8C
:105010001A704FF40043C4F2090340F22002C1F2B7
:105020000002926B127B1A704FF40043C4F2090322
:1050300040F22002C1F20002926B527B1A704FF4D0
:105040000043C4F2090340F22002C1F20002926B55
:10505000927B1A704FF40043C4F2090340F220021D
:10506000C1F20002926BD27B1A7040F22003C1F2AF
:1050700000039B6C98477B6803F00E030C2B1BD13D
:105080004FF40043C4F209031B78DAB240F2CC03B8
:10509000C1F200031A7040F22003C1F200031A6C3F
:1050A00040F2CC03C1F200031B78137040F22003DE
:1050B000C1F200031B6D98477B6803F00E03042BBD
:1050C00040F0EB8140F22003C1F2000393F844303A
:1050D000032B00F2738101A252F823F0ED5000007F
:1050E0001B51000095510000675200004FF400432F
:1050F000C4F209031B78DAB240F2CC03C1F2000318
:105100001A7040F22003C1F200031A6C40F2CC0383
:10511000C1F200031B781370B9E14FF40043C4F2ED
:1051200009031B78DAB240F2CC03C1F200031A7013
:105130004FF40043C4F209031B78DAB240F2CC0307
:10514000C1F200035A704FF40043C4F209031B7804
:10515000DAB240F2CC03C1F200039A704FF400437C
:10516000C4F209031B78DAB240F2CC03C1F20003A7
:10517000DA7040F22003C1F200031B6C1A4640F2C1
:10518000CC03C1F20003104619464FF0040200F0B0
:105190004BFD7CE14FF40043C4F209031B78DAB203
:1051A00040F2CC03C1F200031A704FF40043C4F282
:1051B00009031B78DAB240F2CC03C1F200035A7043
:1051C0004FF40043C4F209031B78DAB240F2CC0377
:1051D000C1F200039A704FF40043C4F209031B7834
:1051E000DAB240F2CC03C1F20003DA704FF40043AC
:1051F000C4F209031B78DAB240F2CC03C1F2000317
:105200001A714FF40043C4F209031B78DAB240F27A
:10521000CC03C1F200035A714FF40043C4F20903F6
:105220001B78DAB240F2CC03C1F200039A714FF45A
:105230000043C4F209031B78DAB240F2CC03C1F296
:105240000003DA7140F22003C1F200031B6C1A461E
:1052500040F2CC03C1F20003104619464FF0080299
:1052600000F0E2FC13E14FF40043C4F209031B78A1
:10527000DAB240F2CC03C1F200031A704FF40043DB
:10528000C4F209031B78DAB240F2CC03C1F2000386
:105290005A704FF40043C4F209031B78DAB240F2AB
:1052A000CC03C1F200039A704FF40043C4F2090327
:1052B0001B78DAB240F2CC03C1F20003DA704FF48B
:1052C0000043C4F209031B78DAB240F2CC03C1F206
:1052D00000031A714FF40043C4F209031B78DAB2D9
:1052E00040F2CC03C1F200035A714FF40043C4F200
:1052F00009031B78DAB240F2CC03C1F200039A71C1
:105300004FF40043C4F209031B78DAB240F2CC0335
:10531000C1F20003DA714FF40043C4F209031B78B1
:10532000DAB240F2CC03C1F200031A724FF4004328
:10533000C4F209031B78DAB240F2CC03C1F20003D5
:105340005A724FF40043C4F209031B78DAB240F2F8
:10535000CC03C1F200039A724FF40043C4F2090374
:105360001B78DAB240F2CC03C1F20003DA724FF4D8
:105370000043C4F209031B78DAB240F2CC03C1F255
:1053800000031A734FF40043C4F209031B78DAB226
:1053900040F2CC03C1F200035A7340F22003C1F281
:1053A00000031B6C1A4640F2CC03C1F20003104606
:1053B00019464FF00E0200F037FC68E04FF400434E
:1053C000C4F209031B78DAB240F2CC03C1F2000345
:1053D0001A704FF40043C4F209031B78DAB240F2AA
:1053E000CC03C1F200035A704FF40043C4F2090326
:1053F0001B78DAB240F2CC03C1F200039A704FF48A
:105400000043C4F209031B78DAB240F2CC03C1F2C4
:105410000003DA704FF40043C4F209031B78DAB2D8
:1054200040F2CC03C1F200031A714FF40043C4F2FE
:1054300009031B78DAB240F2CC03C1F200035A71BF
:105440004FF40043C4F209031B78DAB240F2CC03F4
:10545000C1F200039A714FF40043C4F209031B78B0
:10546000DAB240F2CC03C1F20003DA7140F2200359
:10547000C1F200039B681A4640F2CC03C1F200035C
:10548000104619464FF0080200F0CEFB00BF40F274
:105490002003C1F20003DB6C984707F10807BD4603
:1054A00080BD00BF80B59AB000AF78604FF0200398
:1054B000BB6207F12C034FF000021A6003F10403F2
:1054C0004FF000021A6003F104034FF000021A606B
:1054D00003F104034FF000021A6003F104034FF0DC
:1054E00000021A6003F104034FF000021A6003F196
:1054F00004034FF000021A6003F104034FF00002AE
:105500001A6003F104034FF000021A6003F1040370
:105510004FF000021A6003F104034FF000021A601A
:1055200003F104034FF000021A8003F1020340F27A
:10553000FC03C1F200034FF000021A6040F2F803CE
:10554000C1F200034FF000021A6040F20413C1F2EE
:1055500000034FF000021A6040F20013C1F2000392
:105560004FF000021A604DF60C12C0F2000240F239
:10557000F403C1F200031A604FF416504FF000011B
:105580004FF00002FEF7E4FB4FF004004FF014016F
:105590004FF00102FBF7F4FC4FF004004FF0140150
:1055A0004FF00002FBF732FC4FF000033B764FF068
:1055B0000A033B7207F108031846FEF7E1FDFEF708
:1055C00095FE7B68022B40F08B804DF61013C0F2E5
:1055D0000003184601F0D2F84FF000037B660DE09F
:1055E0004DF60C13C0F20003DAB207F128017B6E0E
:1055F000CB181A707B6E03F101037B667B6E312B37
:10560000EEDD4FF00A0387F828304DF63013C0F274
:10561000000307F128021846114602F0A1FD07F128
:105620002803184602F038FE03463B6697F82830F8
:10563000242B07D197F82930242B03D197F82A304F
:10564000242B24D04FF000037B6611E007F12802E1
:105650007B6ED3181B78242B06D107F128027B6EB2
:10566000D3184FF020021A707B6E03F101037B66A2
:105670007A6E3B6E9A42E9DB07F128023B6ED31843
:105680004FF00D021A703B6E03F101033B6607F108
:1056900028023B6ED3184FF00A021A704DF63413ED
:1056A000C0F2000307F128021846114601F066F81F
:1056B0004FF000037B660BE007F128027B6ED318E6
:1056C0001B781846FEF7A2FC7B6E03F101037B6694
:1056D0007A6E3B6E9A42EFDB4FF000037B667BE70E
:1056E0007B68012B40F0AC804DF64013C0F2000304
:1056F000184601F043F84FF02400FEF787FC4FF006
:105700002400FEF783FC4FF02400FEF77FFC4DF6EB
:105710007413C0F20003184601F030F84FF0000394
:105720007B6613E0FEF78EFC0346FB65FB6DB3F171
:10573000FF3F07D04DF67C13C0F200031846F96D09
:1057400001F01CF87B6E03F101037B667A6E44F274
:105750003F23C0F20F039A42E4DD4DF68013C0F2FE
:105760000003184601F00AF84FF07200FEF74EFCF5
:105770004FF06500FEF74AFC4FF06200FEF746FC72
:105780004FF06F00FEF742FC4FF06F00FEF73EFC5B
:105790004FF07400FEF73AFC4FF00D00FEF736FCB8
:1057A0004DF68413C0F20003184600F0E7FF4FF0F7
:1057B00000037B6613E0FEF745FC0346FB65FB6DCB
:1057C000B3F1FF3F07D04DF67C13C0F2000318463B
:1057D000F96D00F0D3FF7B6E03F101037B667A6EF7
:1057E00044F23F23C0F20F039A42E4DD4DF68013EA
:1057F000C0F20003184600F0C1FF4FF07200FEF740
:1058000005FC4FF06500FEF701FC4FF06200FEF76B
:10581000FDFB4FF06F00FEF7F9FB4FF06F00FEF756
:10582000F5FB4FF07400FEF7F1FB4FF00D00FEF7B3
:10583000EDFB4DF69013C0F20003184600F09EFFFA
:1058400007F16807BD4680BD80B58AB000AF7860BB
:105850004FF00003BB614DF6C413C0F200031846BD
:1058600000F08CFF40F2FC03C1F200031B6803F15F
:10587000FF3246F26763C6F2666383FB02134FEAA8
:10588000A3014FEAE273C91A0B464FEA83035B1880
:105890004FEA4303D31A3B6240F2FC03C1F2000318
:1058A0001B6803F1FF3246F26763C6F2666383FB4F
:1058B00002134FEAA3014FEAE273C91A0B464FEAFB
:1058C00083035B184FEA4303D31AFB613B6A002B47
:1058D00009DA3B6A03F10A033B62FB6903F10A033D
:1058E000FB6100E000BF3B6A002B02DC4FF00A03C3
:1058F0003B623B6A03F1FF333B623B6A7A68D31831
:105900001B782A2BEED13B6A03F1010246F2676352
:10591000C6F2666383FB02134FEAA3014FEAE27308
:10592000C91A0B464FEA83035B184FEA4303D31AA5
:105930007B6200BF22E07B6A7A68D3181A7807F18D
:105940000C01BB69CB181A70BB6903F10103BB6181
:105950004DF67C13C0F200037A6A79688A181278CF
:105960001846114600F00AFF7B6A03F101037B62CF
:105970007B6A092B02DD4FF000037B627A6AFB69C8
:105980009A42D8D107F10C02BB69D3184FF000023C
:105990001A7007F10C0318464DF6D411C0F200013D
:1059A00002F05CFC0346002B07D140F20413C1F265
:1059B00000034FF001021A6012E007F10C031846D1
:1059C0004DF6DC11C0F2000102F048FC0346002B4A
:1059D00006D140F20413C1F200034FF000021A6036
:1059E00007F10C0318464DF6E411C0F2000102F075
:1059F00035FC0346002B0ED140F20413C1F2000324
:105A00001B68012B07D140F20413C1F200034FF0D1
:105A100002021A60A0E007F10C0318464DF6EC11E3
:105A2000C0F2000102F01AFC0346002B0ED140F236
:105A30000413C1F200031B68012B07D140F20413C9
:105A4000C1F200034FF003021A6085E007F10C0376
:105A500018464DF6F411C0F2000102F0FFFB0346B8
:105A6000002B0ED140F20413C1F200031B68012B7E
:105A700007D140F20413C1F200034FF004021A6090
:105A80006AE007F10C0318464DF6FC11C0F2000164
:105A900002F0E4FB0346002B0ED140F20413C1F2E6
:105AA00000031B68012B07D140F20413C1F200036D
:105AB0004FF006021A604FE007F10C0318464DF64E
:105AC0000421C0F2000102F0C9FB0346002B0ED1F5
:105AD00040F20413C1F200031B68012B07D140F20E
