:1000000000000110430100000D0100000F0100007D
:1000100011010000130100001501000068F9FEEF56
:1000200000000000000000000000000017010000B8
:1000300019010000000000001B0100001D0100006C
:100040001F0100001F010000811900001F010000B6
:100050001F010000E91B00007920000011250000AD
:100060001F0100001F0100001F0100001F01000010
:100070001F0100001F0100001F0100001F01000000
:100080001F0100001F0100001F0100001F010000F0
:100090001F0100001F0100001F0100001F010000E0
:1000A0001F0100001F0100001F0100001F010000D0
:1000B0001F0100001F0100001F0100001F010000C0
:1000C0001F0100001F0100001F0100001F010000B0
:1000D0001F0100001F0100001F0100001F010000A0
:1000E0001F01000078560000000000101000000002
:1000F00078560000000000200000000010000010F2
:10010000100200000000002000000000FEE7FEE7F3
:10011000FEE7FEE7FEE7FEE7FEE7FEE7FEE7FEE7B7
:1001200010B5002302E01C585C5004339342FAD30C
:1001300010BD00231A4601E01A5004338B42FBD352
:10014000704738B50C4C0D4D04E094E807000C34B2
:10015000FFF7E6FFAC42F8D305E094E8030008346B
:10016000FFF7E7FF00E0064DAC42F6D302F05EFD7C
:1001700002F0AEFDFEE700BFE4000000FC0000005E
:100180000C010000FFFFFFFFFFFFFFFFFFFFFFFF6E
:10019000FFFFFFFFFFFFFFFFFFFFFFFFFFFFFFFF6F
:1001A000FFFFFFFFFFFFFFFFFFFFFFFFFFFFFFFF5F
:1001B000FFFFFFFFFFFFFFFFFFFFFFFFFFFFFFFF4F
:1001C000FFFFFFFFFFFFFFFFFFFFFFFFFFFFFFFF3F
:1001D000FFFFFFFFFFFFFFFFFFFFFFFFFFFFFFFF2F
:1001E000FFFFFFFFFFFFFFFFFFFFFFFFFFFFFFFF1F
:1001F000FFFFFFFFFFFFFFFFFFFFFFFFFFFFFFFF0F
:10020000FFFFFFFFFFFFFFFFFFFFFFFFFFFFFFFFFE
:10021000FFFFFFFFFFFFFFFFFFFFFFFFFFFFFFFFEE
:10022000FFFFFFFFFFFFFFFFFFFFFFFFFFFFFFFFDE
:10023000FFFFFFFFFFFFFFFFFFFFFFFFFFFFFFFFCE
:10024000FFFFFFFFFFFFFFFFFFFFFFFFFFFFFFFFBE
:10025000FFFFFFFFFFFFFFFFFFFFFFFFFFFFFFFFAE
:10026000FFFFFFFFFFFFFFFFFFFFFFFFFFFFFFFF9E
:10027000FFFFFFFFFFFFFFFFFFFFFFFFFFFFFFFF8E
:10028000FFFFFFFFFFFFFFFFFFFFFFFFFFFFFFFF7E
:10029000FFFFFFFFFFFFFFFFFFFFFFFFFFFFFFFF6E
:1002A000FFFFFFFFFFFFFFFFFFFFFFFFFFFFFFFF5E
:1002B000FFFFFFFFFFFFFFFFFFFFFFFFFFFFFFFF4E
:1002C000FFFFFFFFFFFFFFFFFFFFFFFFFFFFFFFF3E
:1002D000FFFFFFFFFFFFFFFFFFFFFFFFFFFFFFFF2E
:1002E000FFFFFFFFFFFFFFFFFFFFFFFFFFFFFFFF1E
:1002F000FFFFFFFFFFFFFFFFFFFFFFFFFFFFFFFF0E
:1003000080B582B000AF02460B46FA71BB71FB7933
:10031000032B00F2928001A252F823F02D0300007B
:1003200071030000B5030000F90300004FF44043DF
:10033000C4F20F034FF44042C4F20F02D2F804217A
:1003400022F01F02C3F804214FF44043C4F20F030C
:100350004FF44042C4F20F02D2F804211146BA7998
:1003600002F01F020A43C3F8042102F0ADFB65E06E
:100370004FF44043C4F20F034FF44042C4F20F0263
:10038000D2F8A82122F01F02C3F8A8214FF440435D
:10039000C4F20F034FF44042C4F20F02D2F8A82176
:1003A0001146BA7902F01F020A43C3F8A82102F0ED
:1003B0008BFB43E04FF44043C4F20F034FF4404241
:1003C000C4F20F02D2F8002122F00102C3F800218A
:1003D0004FF44043C4F20F034FF44042C4F20F0203
:1003E000D2F800211146BA7902F001020A43C3F89B
:1003F000002102F069FB21E04FF44043C4F20F03F7
:100400004FF44042C4F20F02D2F8082122F01F023A
:10041000C3F808214FF44043C4F20F034FF44042A5
:10042000C4F20F02D2F808211146BA7902F01F0275
:100430000A43C3F8082100BF00E0FEE707F1080700
:10044000BD4680BD80B483B000AF0346FB71FB792D
:10045000032B23D801A252F823F000BF6D04000043
:1004600079040000850400009104000040F20C03B0
:10047000C1F200031B6812E040F20803C1F200035E
:100480001B680CE040F20403C1F200031B6806E0A5
:1004900040F20003C1F200031B6800E0FEE71846CB
:1004A00007F10C07BD4680BC704700BF80B483B025
:1004B00000AF78600B46FB70FB78012B0FD14FF437
:1004C0004043C4F20F034FF44042C4F20F02D2F88B
:1004D000C42011467A680A43C3F8C42013E0FB78AD
:1004E000002B10D14FF44043C4F20F034FF44042AD
:1004F000C4F20F02D2F8C42011467A686FEA0202F1
:100500000A40C3F8C42007F10C07BD4680BC704701
:1005100080B588B000AF3B46184600F03DF9FEE7D5
:1005200080B485B000AF02460B46FA71BB714FF044
:100530000003FB60FB794FEA4312BB79D31803F148
:10054000805303F530434FEA8303FB60FB68184692
:1005500007F11407BD4680BC704700BF80B485B06A
:1005600000AF02460B46FA71BB714FF00503FB73F7
:10057000FB79052B7FD801A252F823F095050000E6
:100580002506000047060000470600004706000059
:100590004F060000BB79062B0BD9BB79092B02D97A
:1005A000BB790B2B05D9BB790D2B06D9BB79162B43
:1005B00003D84FF00003FB7333E0BB790C2B08D05A
:1005C000BB790D2B05D0BB79162B06D9BB791A2B1D
:1005D00003D84FF00103FB7323E0BB791D2B05D03B
:1005E000BB791E2B02D0BB791F2B03D14FF0020326
:1005F000FB7316E0BB791B2B02D0BB791C2B03D1FC
:100600004FF00303FB730CE0BB79072B05D0BB79DC
:10061000082B02D0BB79092B2FD14FF00403FB73B9
:100620002BE02AE0BB791D2B03D84FF00003FB73AE
:1006300025E0BB791E2B02D0BB791F2B1FD14FF0B9
:100640000103FB731BE04FF00003FB731AE0BB795F
:10065000012B02D9BB79042B03D14FF00003FB73AC
:100660000FE0BB79022B02D0BB79032B09D14FF0ED
:100670000303FB7305E000BF04E000BF02E000BF1E
:1006800000E000BFFB7B184607F11407BD4680BCA5
:10069000704700BF80B584B000AF13460246FA71C0
:1006A0000A46BA717B714FF00003FB60FA79BB799F
:1006B00010461946FFF752FF0346FB72FB7A052BE3
:1006C00004D14FF00103C1F2000317E0FA79BB79BE
:1006D00010461946FFF724FF0346FB60FB681B68C2
:1006E00023F00702FB681A60FB681A687B7903F045
:1006F00007031A43FB681A604FF00003184607F11E
:100700001007BD4680BD00BF80B584B000AFF86063
:10071000B9607A604FF416504FF000014FF00002BC
:1007200001F0C4F97B6803F10103B868194601F0D0
:100730002DFA7B68184607F11007BD4680BD00BF43
:1007400080B500AF4FF00000FFF77CFE02464FF48B
:100750003443C0F2C4439A4206D94FF002004FF02E
:100760000101FFF7CDFD05E04FF002004FF0000161
:10077000FFF7C6FD4FF400604FF00101FFF796FE52
:100780004FF44043C2F209034FF001021A604FF0E8
:100790000003184680BD00BF90B587B002AF7860F7
:1007A0004FF00003FB604FF00003BB604FF4404389
:1007B000C4F20F034FF44042C4F20F02D2F8C42037
:1007C00042F40062C3F8C4204FF44043C4F20F0364
:1007D00041F21002C3F8DC214FF44043C2F2090396
:1007E0004FF001021A604FF44043C2F209034FF088
:1007F00000029A604FF002004FF010014FF001022A
:10080000FFF748FF4FF002004FF011014FF00102D7
:10081000FFF740FF4FF002004FF012014FF00102CE
:10082000FFF738FF4FF002004FF014014FF00102C4
:10083000FFF730FF4FF002004FF018014FF00102B8
:10084000FFF728FF4FF002004FF01C014FF00102AC
:10085000FFF720FF4FF002004FF01D014FF00102A3
:10086000FFF718FF4FF00003FB600CE0FB68DBB202
:100870004FF0030019464FF00102FFF70BFFFB6832
:1008800003F10103FB60FB680E2BEFD94FF000036F
:10089000FB600CE0FB68DBB24FF0040019464FF040
:1008A0000102FFF7F7FEFB6803F10103FB60FB6841
:1008B0000A2BEFD94FF004004FF00D014FF0010269
:1008C000FFF7E8FE4FF004004FF00E014FF0010279
:1008D000FFF7E0FE4FF004004FF019014FF0010266
:1008E000FFF7D8FEFFF72CFF0346BA681343BB603F
:1008F0004FF44043C4F20F034FF44042C4F20F02DE
:10090000D2F8DC2142F00802C3F8DC214FF4404366
:10091000C4F20F034FF44042C4F20F02D2F8DC21BC
:1009200042F40062C3F8DC214FF44043C4F20F03E9
:100930004FF44042C4F20F02D2F8DC2142F400220C
:10094000C3F8DC214FF0000000F04CF90346BA6810
:100950001343BB604FF0000000F06CF90346BA6827
:100960001343BB604FF0000000F084F90346BA68FF
:100970001343BB604FF0010000F0A4F90346BA68CE
:100980001343BB604FF0000000F0C4F90346BA689F
:100990001343BB604FF0020000F0E4F90346BA686D
:1009A0001343BB6040F2831000F0F4F80346BA68CA
:1009B0001343BB6040F2031000F0ECF80346BA6842
:1009C0001343BB604FF0830000F0E4F80346BA68BD
:1009D0001343BB604FF0000000F0DCF80346BA6838
:1009E0001343BB607B681B7818464FF4002100F06E
:1009F000B7FE0346BA681343BB607B68DB894FF0E0
:100A00000000194600F0D6F90346BA681343BB60EC
:100A10007B681B7C4FF00100194600F0CBF90346C0
:100A2000BA681343BB607B685B7C4FF002001946D9
:100A300000F0C0F90346BA681343BB607B68DB7EF5
:100A40004FF00300194600F0B5F90346BA681343A6
:100A5000BB607B689B7C4FF00400194600F0AAF94C
:100A60000346BA681343BB607B68DB7C4FF005002C
:100A7000194600F09FF90346BA681343BB607B68D0
:100A80001B7D4FF00600194600F094F90346BA6842
:100A90001343BB607B685B7D4FF00700194600F095
:100AA00089F90346BA681343BB607B689B7D4FF0AE
:100AB0000800194600F07EF90346BA681343BB608C
:100AC0007B68DB7D4FF00900194600F073F903469F
:100AD000BA681343BB607B681B7E4FF00A0019465F
:100AE00000F068F90346BA681343BB607B685B7E1D
:100AF0004FF00B00194600F05DF90346BA68134346
:100B0000BB607B689B7E4FF00C00194600F052F9E9
:100B10000346BA681343BB607B681B781A467B6840
:100B20001B7F1046194600F0EFF90346BA681343DD
:100B3000BB607B681B781A467B685B7F1046194652
:100B400000F082FA0346BA681343BB607B681B78E7
:100B500018464FF0000100F01FFB0346BA6813432C
:100B6000BB607B681B7818467B68D97A7B681A7BE8
:100B70007B689B7A7C682489009400F0ADFB034677
:100B8000BA681343BB60BB68184607F11407BD463B
:100B900090BD00BF80B483B000AF78604FF4404395
:100BA000C2F209034FF44042C2F20902126A22F46F
:100BB000C0721A624FF44043C2F209034FF440423C
:100BC000C2F20902126A11467A6802F4C0720A433C
:100BD0001A624FF00003184607F10C07BD4680BCAF
:100BE000704700BF80B483B000AF78604FF44043DB
:100BF000C2F209034FF44042C2F20902926822F0A5
:100C000001029A604FF44043C2F209034FF440429C
:100C1000C2F20902926811467A6802F001020A43A0
:100C20009A604FF00003184607F10C07BD4680BCE0
:100C3000704700BF80B483B000AF78604FF440438A
:100C4000C2F209034FF44042C2F20902126A22F0D2
:100C500004021A624FF44043C2F209037A6802F0B8
:100C600004021A624FF00003184607F10C07BD4654
:100C700080BC704780B483B000AF78604FF44043CD
:100C8000C2F209034FF44042C2F20902126A22F48E
:100C900000521A624FF44043C2F209034FF440423B
:100CA000C2F20902126A11467A6802F400520A433B
:100CB0001A624FF00003184607F10C07BD4680BCCE
:100CC000704700BF80B483B000AF78604FF44043FA
:100CD000C2F209034FF44042C2F20902126A22F042
:100CE00001021A624FF44043C2F209034FF440423A
:100CF000C2F20902126A11467A6802F001020A433E
:100D00001A624FF00003184607F10C07BD4680BC7D
:100D1000704700BF80B483B000AF78604FF44043A9
:100D2000C2F209034FF44042C2F20902126A22F0F1
:100D300020021A624FF44043C2F209034FF44042CA
:100D4000C2F20902126A11467A6802F020020A43CE
:100D50001A624FF00003184607F10C07BD4680BC2D
:100D6000704700BF80B483B000AF78604FF4404359
:100D7000C2F209034FF44042C2F20902126A22F0A1
:100D800002021A624FF44043C2F209034FF4404298
:100D9000C2F20902126A11467A6802F002020A439C
:100DA0001A624FF00003184607F10C07BD4680BCDD
:100DB000704700BF80B483B000AF03463960FB7159
:100DC000FB790C2B00F2958001A252F823F000BFB2
:100DD000050E00001B0E00002D0E00003F0E00004F
:100DE000510E0000630E0000750E0000870E00001B
:100DF000990E0000AB0E0000BD0E0000CF0E0000EB
:100E0000E10E00004FF44043C2F209033A684FEA92
:100E100082524FEA92525A626EE04FF44043C2F25D
:100E200009033A6802F003029A6265E04FF4404316
:100E3000C2F209033A6802F00F021A635CE04FF451
:100E40004043C2F209033A6802F00F025A6353E0CA
:100E50004FF44043C2F209033A6802F00F029A636A
:100E60004AE04FF44043C2F209033A6802F00F022D
:100E7000DA6341E04FF44043C2F209033A6802F0FA
:100E80000F021A6438E04FF44043C2F209033A6893
:100E900002F00F025A642FE04FF44043C2F20903FC
:100EA0003A6802F01F029A6426E04FF44043C2F20F
:100EB00009033A6802F01F02DA641DE04FF4404370
:100EC000C2F209033A6802F01F021A6514E04FF4F7
:100ED0004043C2F209033A6802F00F025A650BE080
:100EE0004FF44043C2F209033A6802F01F029A65C8
:100EF00002E04FF0020301E04FF00003184607F153
:100F00000C07BD4680BC704780B483B000AF7860EA
:100F100039607B68032B00F28B8001A252F823F02A
:100F2000310F0000710F0000B10F0000F10F000041
:100F30004FF44043C2F209034FF44042C2F20902A7
:100F4000D2F8042122F00302C3F804214FF44043F5
:100F5000C2F209034FF44042C2F20902D2F804215E
:100F600011463A6802F003020A43C3F8042162E022
:100F70004FF44043C2F209034FF44042C2F2090267
:100F8000D2F8242122F00302C3F824214FF4404375
:100F9000C2F209034FF44042C2F20902D2F82421FE
:100FA00011463A6802F003020A43C3F8242142E0E2
:100FB0004FF44043C2F209034FF44042C2F2090227
:100FC000D2F8442122F00302C3F844214FF44043F5
:100FD000C2F209034FF44042C2F20902D2F844219E
:100FE00011463A6802F003020A43C3F8442122E0A2
:100FF0004FF44043C2F209034FF44042C2F20902E7
:10100000D2F8642122F00302C3F864214FF4404374
:10101000C2F209034FF44042C2F20902D2F864213D
:1010200011463A6802F003020A43C3F8642102E061
:101030004FF0020301E04FF00003184607F10C07E0
:10104000BD4680BC704700BF80B483B000AF7860FD
:1010500039607B68032B00F2938001A252F823F0E1
:1010600071100000B5100000F91000003D110000E3
:101070004FF44043C2F209034FF44042C2F2090266
:10108000D2F8042122F44072C3F804214FF4404303
:10109000C2F209034FF44042C2F20902D2F804211D
:1010A00011463A684FEA022202F440720A43C3F83A
:1010B000042168E04FF44043C2F209034FF4404278
:1010C000C2F20902D2F8242122F44072C3F824218A
:1010D0004FF44043C2F209034FF44042C2F2090206
:1010E000D2F8242111463A684FEA022202F44072F3
:1010F0000A43C3F8242146E04FF44043C2F20903F7
:101100004FF44042C2F20902D2F8442122F4407264
:10111000C3F844214FF44043C2F209034FF4404264
:10112000C2F20902D2F8442111463A684FEA02227B
:1011300002F440720A43C3F8442124E04FF44043D0
:10114000C2F209034FF44042C2F20902D2F864210C
:1011500022F44072C3F864214FF44043C2F2090301
:101160004FF44042C2F20902D2F8642111463A68B3
:101170004FEA022202F440720A43C3F8642102E0FB
:101180004FF0020301E04FF00003184607F10C078F
:10119000BD4680BC704700BF80B483B000AF7860AC
:1011A00039607B68032B00F28B8001A252F823F098
:1011B000C111000001120000411200008112000064
:1011C0004FF44043C2F209034FF44042C2F2090215
:1011D000D2F8002122F01802C3F800214FF4404356
:1011E000C2F209034FF44042C2F20902D2F80021D0
:1011F00011463A6802F018020A43C3F8002162E07F
:101200004FF44043C2F209034FF44042C2F20902D4
:10121000D2F8202122F01802C3F820214FF44043D5
:10122000C2F209034FF44042C2F20902D2F820216F
:1012300011463A6802F018020A43C3F8202142E03E
:101240004FF44043C2F209034FF44042C2F2090294
:10125000D2F8402122F01802C3F840214FF4404355
:10126000C2F209034FF44042C2F20902D2F840210F
:1012700011463A6802F018020A43C3F8402122E0FE
:101280004FF44043C2F209034FF44042C2F2090254
:10129000D2F8602122F01802C3F860214FF44043D5
:1012A000C2F209034FF44042C2F20902D2F86021AF
:1012B00011463A6802F018020A43C3F8602102E0BE
:1012C0004FF0020301E04FF00003184607F10C074E
:1012D000BD4680BC704700BF80B48BB000AF786063
:1012E000F970BA707B704FF400733B614FF00003EC
:1012F00087F827304FF000033B624FF00003FB609C
:101300004FF00003FB614FF01003BB604FF0000390
:10131000BB614FF000037B61FB78102B02D0202BC8
:1013200008D00FE04FF00003FB614FF0100387F887
:1013300027300AE04FF00103FB614FF0200387F8EC
:10134000273002E04FF0020303E2BB784FEA033399
:1013500003F48053FB603B8E102B11D17B78082B5C
:1013600003D14FF000033B624FE07B78102B03D199
:101370004FF001033B6248E04FF00203E9E100BF98
:10138000BB6903F10103BB61BB6903F101034FF0CA
:10139000100202FA03F3BB603A8EBB689A422DD169
:1013A0004FF000037B610BE07B694FF0080202FA0B
:1013B00003F27B789A420DD07B6903F101037B61D4
:1013C0007B694FF0080202FA03F297F827309A423D
:1013D000EADD00E000BF7B694FF0080202FA03F289
:1013E00097F827309A4202DD4FF00203B1E1BB6962
:1013F0004FEA83027B69D3183B6206E03A69BB6817
:101400009A42BCD84FF00203A3E17B68032B00F2A1
:101410009B8101A252F823F029140000F11400006E
:10142000B9150000811600004FF44043C2F20903D1
:101430004FF44042C2F20902D2F8002122F4FC52D9
:10144000C3F800214FF44043C2F209034FF4404275
:10145000C2F20902D2F8002111463A6A4FEAC212DA
:1014600002F4FC520A43C3F800214FF44043C2F295
:1014700009034FF44042C2F20902D2F8002122F4DB
:101480008052C3F800214FF44043C2F209034FF4E5
:101490004042C2F20902D2F800211146FA684FEA2E
:1014A000023202F480520A43C3F800214FF4404351
:1014B000C2F209034FF44042C2F20902D2F80021FD
:1014C00022F48042C3F800214FF44043C2F20903E2
:1014D0004FF44042C2F20902D2F800211146FA69E3
:1014E0004FEA823202F480420A43C3F800212EE11F
:1014F0004FF44043C2F209034FF44042C2F20902E2
:10150000D2F8202122F4FC52C3F820214FF44043AA
:10151000C2F209034FF44042C2F20902D2F820217C
:1015200011463A6A4FEAC21202F4FC520A43C3F867
:1015300020214FF44043C2F209034FF44042C2F26B
:101540000902D2F8202122F48052C3F820214FF45E
:101550004043C2F209034FF44042C2F20902D2F8FA
:1015600020211146FA684FEA023202F480520A43FF
:10157000C3F820214FF44043C2F209034FF4404224
:10158000C2F20902D2F8202122F48042C3F82021BD
:101590004FF44043C2F209034FF44042C2F2090241
:1015A000D2F820211146FA694FEA823202F48042D1
:1015B0000A43C3F82021CAE04FF44043C2F20903B2
:1015C0004FF44042C2F20902D2F8402122F4FC5208
:1015D000C3F840214FF44043C2F209034FF44042A4
:1015E000C2F20902D2F8402111463A6A4FEAC21209
:1015F00002F4FC520A43C3F840214FF44043C2F2C4
:1016000009034FF44042C2F20902D2F8402122F409
:101610008052C3F840214FF44043C2F209034FF413
:101620004042C2F20902D2F840211146FA684FEA5C
:10163000023202F480520A43C3F840214FF440437F
:10164000C2F209034FF44042C2F20902D2F840212B
:1016500022F48042C3F840214FF44043C2F2090310
:101660004FF44042C2F20902D2F840211146FA6911
:101670004FEA823202F480420A43C3F8402166E016
:101680004FF44043C2F209034FF44042C2F2090250
:10169000D2F8602122F4FC52C3F860214FF4404399
:1016A000C2F209034FF44042C2F20902D2F86021AB
:1016B00011463A6A4FEAC21202F4FC520A43C3F8D6
:1016C00060214FF44043C2F209034FF44042C2F29A
:1016D0000902D2F8602122F48052C3F860214FF44D
:1016E0004043C2F209034FF44042C2F20902D2F869
:1016F00060211146FA684FEA023202F480520A432E
:10170000C3F860214FF44043C2F209034FF4404252
:10171000C2F20902D2F8602122F48042C3F86021AB
:101720004FF44043C2F209034FF44042C2F20902AF
:10173000D2F860211146FA694FEA823202F48042FF
:101740000A43C3F8602102E04FF0020301E04FF0CA
:101750000003184607F12C07BD4680BC704700BF48
:1017600080B483B000AF786039607B68032B00F2EF
:101770008B8001A252F823F089170000C9170000DE
:1017800009180000491800004FF44043C2F2090351
:101790004FF44042C2F20902D2F8002122F40022A2
:1017A000C3F800214FF44043C2F209034FF4404212
:1017B000C2F20902D2F8002111463A6802F400226E
:1017C0000A43C3F8002162E04FF44043C2F2090328
:1017D0004FF44042C2F20902D2F8202122F4002242
:1017E000C3F820214FF44043C2F209034FF44042B2
:1017F000C2F20902D2F8202111463A6802F400220E
:101800000A43C3F8202142E04FF44043C2F20903E7
:101810004FF44042C2F20902D2F8402122F40022E1
:10182000C3F840214FF44043C2F209034FF4404251
:10183000C2F20902D2F8402111463A6802F40022AD
:101840000A43C3F8402122E04FF44043C2F20903A7
:101850004FF44042C2F20902D2F8602122F4002281
:10186000C3F860214FF44043C2F209034FF44042F1
:10187000C2F20902D2F8602111463A6802F400224D
:101880000A43C3F8602102E04FF0020301E04FF089
:101890000003184607F10C07BD4680BC704700BF27
:1018A00080B485B000AF78600B46FB707B681B6826
:1018B000DAB2FB784FF0010101FA03F3DBB2134017
:1018C000FB73FB7B002B02D04FF0010301E04FF0D4
:1018D0000003184607F11407BD4680BC704700BFDF
:1018E00080B483B000AF78600B46FB70FB78012BAF
:1018F00006D17B685B6843F001027B685A6005E0B3
:101900007B685B6823F001027B685A6007F10C0773
:10191000BD4680BC704700BF80B582B000AF0346B3
:10192000FB714FF40043C4F200034FF40042C4F2D1
:10193000000252691046F9790A464FEA42025218EB
:101940004FF0010101FA02F26FEA020202405A610D
:101950004FF40043C4F200035B691A4640F2492386
:101960001340002B07D04FF40040C4F200004FF0AA
:101970000001FFF7B5FF07F10807BD4680BD00BFB6
:1019800080B500AF4FF40040C4F200004FF00001FA
:10199000FFF786FF0346002B1ED045F2A853C0F286
:1019A0000003184601F04AFF4FF40043C4F200035D
:1019B0004FF40042C4F20002126842F001021A60C1
:1019C0004FF00000FFF7A8FF40F21003C1F2000340
:1019D0004FF001021A7067E04FF40040C4F20000BB
:1019E0004FF00101FFF75CFF0346002B17D045F2D3
:1019F000B853C0F20003184601F020FF4FF4004333
:101A0000C4F200034FF40042C4F20002126842F034
:101A100002021A604FF00100FFF77EFF44E04FF42E
:101A20000040C4F200004FF00201FFF739FF034607
:101A3000002B17D045F2C853C0F20003184601F03E
:101A4000FDFE4FF40043C4F200034FF40042C4F221
:101A50000002126842F004021A604FF00200FFF721
:101A60005BFF21E04FF40040C4F200004FF003019F
:101A7000FFF716FF0346002B16D045F2D853C0F2ED
:101A80000003184601F0DAFE4FF40043C4F20003ED
:101A90004FF40042C4F20002126842F008021A60D9
:101AA0004FF00300FFF738FF80BD00BF80B485B062
:101AB00000AF786013460A46FA70BB704FF440439B
:101AC000C4F20F034FF44042C4F20F02D2F8C42014
:101AD00042F00802C3F8C4204FF44043C4F20003AC
:101AE000F978BA780A43D2B262F07C02D2B21A73A1
:101AF00043F67003C0F239037A68B3FBF2F3FB607C
:101B00004FF44043C4F20003FA684FEA1222D2B203
:101B10001A714FF44043C4F20003FA68D2B21A704B
:101B20004FF44043C4F200034FF44042C4F20002B9
:101B3000127BD2B202F07F02D2B21A734FF440434A
:101B4000C4F200034FF007021A724FF44043C4F28C
:101B500002034FF000029A604FF44043C4F20203C4
:101B60004FF00002DA604FF44043C4F202034FF03A
:101B700001029A604FF44043C4F202034FF00102A5
:101B8000DA6007F11407BD4680BC704780B485B0A9
:101B900000AF786039603B68FB604FF00003FB608A
:101BA00019E000BF4FF44043C4F200031B7DDBB2D9
:101BB00003F02003002BF5D04FF44043C4F20003A0
:101BC0007A6812781A707B6803F101037B60FB6806
:101BD00003F10103FB60FA683B689A42E1D307F125
:101BE0001407BD4680BC704780B582B000AF4FF48B
:101BF0004043C4F200039B683B603B6803F00E0364
:101C0000022B22D14FF000037B6010E04FF44043E1
:101C1000C4F2000340F21402C1F2000211687A68B3
:101C20008A1812781A707B6803F101037B6040F216
:101C30001403C1F200035A687B689A42E6D840F266
:101C40001403C1F200031B6998473B6803F00E03BD
:101C50000C2B1BD14FF44043C4F200031B78DAB2C3
:101C600040F2A003C1F200031A7040F21403C1F263
:101C700000039A6840F2A003C1F200031B781370BE
:101C800040F21403C1F200039B6998473B6803F0DC
:101C90000E03042B40F0EB8140F21403C1F2000369
:101CA0001B7B032B00F2748101A252F823F000BFCA
:101CB000C11C0000EF1C0000691D00003B1E00005D
:101CC0004FF44043C4F200031B78DAB240F2A003A1
:101CD000C1F200031A7040F21403C1F200039A68C3
:101CE00040F2A003C1F200031B781370B9E14FF476
:101CF0004043C4F200031B78DAB240F2A003C1F201
:101D000000031A704FF44043C4F200031B78DAB2A8
:101D100040F2A003C1F200035A704FF44043C4F2F2
:101D200000031B78DAB240F2A003C1F200039A70FC
:101D30004FF44043C4F200031B78DAB240F2A00330
:101D4000C1F20003DA7040F21403C1F200039B6891
:101D50001A4640F2A003C1F20003104619464FF0A4
:101D6000040200F0BFFF7CE14FF44043C4F20003E3
:101D70001B78DAB240F2A003C1F200031A704FF4EC
:101D80004043C4F200031B78DAB240F2A003C1F270
:101D900000035A704FF44043C4F200031B78DAB2D8
:101DA00040F2A003C1F200039A704FF44043C4F222
:101DB00000031B78DAB240F2A003C1F20003DA702C
:101DC0004FF44043C4F200031B78DAB240F2A003A0
:101DD000C1F200031A714FF44043C4F200031B78B0
:101DE000DAB240F2A003C1F200035A714FF440434B
:101DF000C4F200031B78DAB240F2A003C1F2000380
:101E00009A714FF44043C4F200031B78DAB240F2F7
:101E1000A003C1F20003DA7140F21403C1F200031F
:101E20009B681A4640F2A003C1F20003104619460F
:101E30004FF0080200F056FF13E14FF44043C4F2A4
:101E400000031B78DAB240F2A003C1F200031A705B
:101E50004FF44043C4F200031B78DAB240F2A0030F
:101E6000C1F200035A704FF44043C4F200031B78E0
:101E7000DAB240F2A003C1F200039A704FF440437B
:101E8000C4F200031B78DAB240F2A003C1F20003EF
:101E9000DA704FF44043C4F200031B78DAB240F228
:101EA000A003C1F200031A714FF44043C4F20003CF
:101EB0001B78DAB240F2A003C1F200035A714FF46A
:101EC0004043C4F200031B78DAB240F2A003C1F22F
:101ED00000039A714FF44043C4F200031B78DAB256
:101EE00040F2A003C1F20003DA714FF44043C4F2A0
:101EF00000031B78DAB240F2A003C1F200031A72A9
:101F00004FF44043C4F200031B78DAB240F2A0035E
:101F1000C1F200035A724FF44043C4F200031B782D
:101F2000DAB240F2A003C1F200039A724FF44043C8
:101F3000C4F200031B78DAB240F2A003C1F200033E
:101F4000DA724FF44043C4F200031B78DAB240F275
:101F5000A003C1F200031A734FF44043C4F200031C
:101F60001B78DAB240F2A003C1F200035A7340F2C8
:101F70001403C1F200039B681A4640F2A003C1F2A9
:101F80000003104619464FF00E0200F0ABFE68E069
:101F90004FF44043C4F200031B78DAB240F2A003CE
:101FA000C1F200031A704FF44043C4F200031B78DF
:101FB000DAB240F2A003C1F200035A704FF440437A
:101FC000C4F200031B78DAB240F2A003C1F20003AE
:101FD0009A704FF44043C4F200031B78DAB240F227
:101FE000A003C1F20003DA704FF44043C4F20003CF
:101FF0001B78DAB240F2A003C1F200031A714FF469
:102000004043C4F200031B78DAB240F2A003C1F2ED
:1020100000035A714FF44043C4F200031B78DAB254
:1020200040F2A003C1F200039A714FF44043C4F29E
:1020300000031B78DAB240F2A003C1F20003DA71A8
:1020400040F21403C1F200039B681A4640F2A00359
:10205000C1F20003104619464FF0080200F042FE9C
:1020600000BF40F21403C1F200035B69984707F117
:102070000807BD4680BD00BF80B582B000AF4FF0FD
:102080000003C4F201039B683B603B6803F00E034E
:10209000022B22D14FF000037B6010E04FF00003D1
:1020A000C4F2010340F21402C1F20002D1697A685D
:1020B0008A1812781A707B6803F101037B6040F282
:1020C0001403C1F200031A6A7B689A42E6D840F210
:1020D0001403C1F20003DB6A98473B6803F00E0368
:1020E0000C2B1DD14FF00003C4F201031B78DAB2B0
:1020F00040F2B003C1F200035A7040F21403C1F27F
:1021000000035B6A03F1010240F2B003C1F2000375
:102110005B78137040F21403C1F200035B6B9847C5
:102120003B6803F00E03042B40F0ED8140F21403F2
:10213000C1F2000393F82830032B00F2758101A24D
:1021400052F823F0552100008721000001220000F1
:10215000D32200004FF00003C4F201031B78DAB26F
:1021600040F2B003C1F200035A7040F21403C1F20E
:1021700000035B6A03F1010240F2B003C1F2000305
:102180005B781370B9E14FF00003C4F201031B78D0
:10219000DAB240F2B003C1F200031A704FF000034C
:1021A000C4F201031B78DAB240F2B003C1F20003BB
:1021B0005A704FF00003C4F201031B78DAB240F208
:1021C000B003C1F200039A704FF00003C4F20103A0
:1021D0001B78DAB240F2B003C1F20003DA7040F2C9
:1021E0001403C1F200035B6A1A4640F2B003C1F265
:1021F0000003104619464FF0040200F073FD7CE125
:102200004FF00003C4F201031B78DAB240F2B003CE
:10221000C1F200031A704FF00003C4F201031B78EF
:10222000DAB240F2B003C1F200035A704FF000037B
:10223000C4F201031B78DAB240F2B003C1F200032A
:102240009A704FF00003C4F201031B78DAB240F237
:10225000B003C1F20003DA704FF00003C4F20103CF
:102260001B78DAB240F2B003C1F200031A714FF0EA
:102270000003C4F201031B78DAB240F2B003C1F2EA
:1022800000035A714FF00003C4F201031B78DAB265
:1022900040F2B003C1F200039A714FF00003C4F2A0
:1022A00001031B78DAB240F2B003C1F20003DA7125
:1022B00040F21403C1F200035B6A1A4640F2B00315
:1022C000C1F20003104619464FF0080200F00AFD63
:1022D00013E14FF00003C4F201031B78DAB240F2BD
:1022E000B003C1F200031A704FF00003C4F20103FF
:1022F0001B78DAB240F2B003C1F200035A704FF01B
:102300000003C4F201031B78DAB240F2B003C1F259
:1023100000039A704FF00003C4F201031B78DAB295
:1023200040F2B003C1F20003DA704FF00003C4F2D0
:1023300001031B78DAB240F2B003C1F200031A7154
:102340004FF00003C4F201031B78DAB240F2B0038D
:10235000C1F200035A714FF00003C4F201031B786D
:10236000DAB240F2B003C1F200039A714FF00003F9
:10237000C4F201031B78DAB240F2B003C1F20003E9
:10238000DA714FF00003C4F201031B78DAB240F2B5
:10239000B003C1F200031A724FF00003C4F201034C
:1023A0001B78DAB240F2B003C1F200035A724FF068
:1023B0000003C4F201031B78DAB240F2B003C1F2A9
:1023C00000039A724FF00003C4F201031B78DAB2E3
:1023D00040F2B003C1F20003DA724FF00003C4F21E
:1023E00001031B78DAB240F2B003C1F200031A73A2
:1023F0004FF00003C4F201031B78DAB240F2B003DD
:10240000C1F200035A7340F21403C1F200035B6A85
:102410001A4640F2B003C1F20003104619464FF0CD
:102420000E0200F05FFC68E04FF00003C4F201030D
:102430001B78DAB240F2B003C1F200031A704FF019
:102440000003C4F201031B78DAB240F2B003C1F218
:1024500000035A704FF00003C4F201031B78DAB294
:1024600040F2B003C1F200039A704FF00003C4F2CF
:1024700001031B78DAB240F2B003C1F20003DA7054
:102480004FF00003C4F201031B78DAB240F2B0034C
:10249000C1F200031A714FF00003C4F201031B786C
:1024A000DAB240F2B003C1F200035A714FF00003F8
:1024B000C4F201031B78DAB240F2B003C1F20003A8
:1024C0009A714FF00003C4F201031B78DAB240F2B4
:1024D000B003C1F20003DA7140F21403C1F2000349
:1024E0005B6A1A4640F2B003C1F200031046194677
:1024F0004FF0080200F0F6FB00BF40F21403C1F2F7
:1025000000035B69984707F10807BD4680BD00BF1F
:1025100080B582B000AF4FF40043C4F209039B685A
:102520007B607B6803F00E03022B40F0B6804FF413
:102530000043C4F2090340F21402C1F20002926B9C
:1025400012781A704FF40043C4F2090340F21402E7
:10255000C1F20002926B52781A704FF40043C4F239
:10256000090340F21402C1F20002926B92781A70D1
:102570004FF40043C4F2090340F21402C1F2000216
:10258000926BD2781A704FF40043C4F2090340F200
:102590001402C1F20002926B12791A704FF40043D8
:1025A000C4F2090340F21402C1F20002926B5279A4
:1025B0001A704FF40043C4F2090340F21402C1F24E
:1025C0000002926B92791A704FF40043C4F209032F
:1025D00040F21402C1F20002926BD2791A704FF4E9
:1025E0000043C4F2090340F21402C1F20002926BEC
:1025F000127A1A704FF40043C4F2090340F2140235
:10260000C1F20002926B527A1A704FF40043C4F286
:10261000090340F21402C1F20002926B927A1A701E
:102620004FF40043C4F2090340F21402C1F2000265
:10263000926BD27A1A704FF40043C4F2090340F24D
:102640001402C1F20002926B127B1A704FF4004325
:10265000C4F2090340F21402C1F20002926B527BF1
:102660001A704FF40043C4F2090340F21402C1F29D
:102670000002926B927B1A704FF40043C4F209037C
:1026800040F21402C1F20002926BD27B1A7040F247
:102690001403C1F200039B6C98477B6803F00E03A0
:1026A0000C2B1BD14FF40043C4F209031B78DAB2A0
:1026B00040F2C003C1F200031A7040F21403C1F2E9
:1026C00000031A6C40F2C003C1F200031B781370C0
:1026D00040F21403C1F200031B6D98477B6803F0BE
:1026E0000E03042B40F0EB8140F21403C1F200030F
:1026F00093F84430032B00F2738101A252F823F0C7
:10270000112700003F270000B92700008B28000098
:102710004FF40043C4F209031B78DAB240F2C0035D
:10272000C1F200031A7040F21403C1F200031A6CE4
:1027300040F2C003C1F200031B781370B9E14FF4FB
:102740000043C4F209031B78DAB240F2C003C1F2BD
:1027500000031A704FF40043C4F209031B78DAB285
:1027600040F2C003C1F200035A704FF40043C4F2B8
:1027700009031B78DAB240F2C003C1F200039A7079
:102780004FF40043C4F209031B78DAB240F2C003ED
:10279000C1F20003DA7040F21403C1F200031B6CB3
:1027A0001A4640F2C003C1F20003104619464FF02A
:1027B000040200F097FA7CE14FF40043C4F20903ED
:1027C0001B78DAB240F2C003C1F200031A704FF472
:1027D0000043C4F209031B78DAB240F2C003C1F22D
:1027E00000035A704FF40043C4F209031B78DAB2B5
:1027F00040F2C003C1F200039A704FF40043C4F2E8
:1028000009031B78DAB240F2C003C1F20003DA70A8
:102810004FF40043C4F209031B78DAB240F2C0035C
:10282000C1F200031A714FF40043C4F209031B788C
:10283000DAB240F2C003C1F200035A714FF4004310
:10284000C4F209031B78DAB240F2C003C1F20003FC
:102850009A714FF40043C4F209031B78DAB240F2D4
:10286000C003C1F20003DA7140F21403C1F20003A5
:102870001B6C1A4640F2C003C1F200031046194611
:102880004FF0080200F02EFA13E14FF40043C4F2B7
:1028900009031B78DAB240F2C003C1F200031A70D8
:1028A0004FF40043C4F209031B78DAB240F2C003CC
:1028B000C1F200035A704FF40043C4F209031B78BD
:1028C000DAB240F2C003C1F200039A704FF4004341
:1028D000C4F209031B78DAB240F2C003C1F200036C
:1028E000DA704FF40043C4F209031B78DAB240F205
:1028F000C003C1F200031A714FF40043C4F209038C
:102900001B78DAB240F2C003C1F200035A714FF4EF
:102910000043C4F209031B78DAB240F2C003C1F2EB
:1029200000039A714FF40043C4F209031B78DAB232
:1029300040F2C003C1F20003DA714FF40043C4F265
:1029400009031B78DAB240F2C003C1F200031A7225
:102950004FF40043C4F209031B78DAB240F2C0031B
:10296000C1F200035A724FF40043C4F209031B780A
:10297000DAB240F2C003C1F200039A724FF400438E
:10298000C4F209031B78DAB240F2C003C1F20003BB
:10299000DA724FF40043C4F209031B78DAB240F252
:1029A000C003C1F200031A734FF40043C4F20903D9
:1029B0001B78DAB240F2C003C1F200035A7340F24E
:1029C0001403C1F200031B6C1A4640F2C003C1F2AB
:1029D0000003104619464FF00E0200F083F968E03C
:1029E0004FF40043C4F209031B78DAB240F2C0038B
:1029F000C1F200031A704FF40043C4F209031B78BC
:102A0000DAB240F2C003C1F200035A704FF400433F
:102A1000C4F209031B78DAB240F2C003C1F200032A
:102A20009A704FF40043C4F209031B78DAB240F203
:102A3000C003C1F20003DA704FF40043C4F209038B
:102A40001B78DAB240F2C003C1F200031A714FF4EE
:102A50000043C4F209031B78DAB240F2C003C1F2AA
:102A600000035A714FF40043C4F209031B78DAB231
:102A700040F2C003C1F200039A714FF40043C4F264
:102A800009031B78DAB240F2C003C1F20003DA7125
:102A900040F21403C1F200039B681A4640F2C003DF
:102AA000C1F20003104619464FF0080200F01AF96F
:102AB00000BF40F21403C1F20003DB6C984707F13A
:102AC0000807BD4680BD00BF10B5524BD3F80421A6
:102AD00012F4807F504A1FD1D3F80C114F4811F0E7
:102AE000010F07D0D3F8A01111F0400102D11160FD
:102AF00001604CE0D3F80441494904F01F04B1FBE4
:102B0000F4F41460D3F8A82102F01F02B1FBF2F232
:102B10000260D3F8003135E0D3F8881011F48071E9
:102B200008D0D3F80C11C90708D5D3F8A01111F0BB
:102B3000400103D1394B1160196028E0D3F88800B7
:102B4000374900F01F0001304843D3F8044104F036
:102B50001F04B0FBF4F01060D3F88800D3F8A8216C
:102B600000F01F000130484302F01F02B0FBF2F0FA
:102B70002A4A1060D3F88820D3F8003102F01F02EF
:102B80000132514303F001030133B1FBF3F1254B53
:102B90001960204BD3F8082112F4807F1A4622D006
:102BA000D3F8083103F01F03042B04D0062B02D006
:102BB0001D4AABB915E0174BD2F80C21D3F88800A9
:102BC000174900F01F0000F1010001FB00F1D3F8EC
:102BD0000831154A03F01F03B1FBF3F1116010BD7A
:102BE0000023136010BDD3F8082112F400710E4ABF
:102BF0000DD0D3F80C1111F0010F14BFD3F8A83089
:102C0000D3F88830064903F01F030133594311609C
:102C100010BD00BF00C00F400C00001008000010E5
:102C2000001BB7000400001000000010254B2122FB
:102C3000C3F8A0211A46D2F8A011224B4806FAD5B3
:102C40000022C3F80C210922C3F884200122C3F812
:102C50008020AA22C3F88C205522C3F88C20D3F8F8
:102C60008810184A4905FAD52323C2F8A430012355
:102C7000C2F8A030AA23C2F8AC305523C2F8AC3059
:102C8000D2F8A8100F4B4805FAD540F20112C3F84C
:102C9000042102F58072C3F808210122C3F8002143
:102CA0000222C3F8A821084AC3F8C4204FF4807256
:102CB000C3F8C82145F23A021A60044B00229A6018
:102CC000704700BF00C00F40DE87280400ED00E021
:102CD000002008B50146024600F0DAFDBDE80840D4
:102CE000FDF716BC02F0F2BBF8B52D4BC51C1C68F5
:102CF000AD08002853D00027EA1C3AE02168B1F162
:102D0000805F34D1A6683368B3F1805F636806D111
:102D100071685B1803336360B368A36029E0AB425A
:102D200005D120464FF0005340F80C3BF8BD9342CC
:102D30000FD920464FF0005240F80C2B5B1B00EBE4
:102D40008502033B6560A26040F8251053609660E1
:102D5000F8BD66B99B00C01A02F0F0FB01301BD031
:102D60004FF0005384E8280004F10C00F8BD27461A
:102D7000A468002CC2D10C3002F0E0FB431C0DD043
:102D80004FF0005380E82800846017B9044B1860A6
:102D900000E0B8600C30F8BD3046F8BD2046F8BD04
:102DA000180200104FF0805340F80C3C70470000B0
:102DB00010B5FFF799FF044628B904491722FDF71B
:102DC000A3FC02F0A8FB204610BD00BFE8550000A0
:102DD000034600E001395A1812F8012C302AF9D0C4
:102DE0003E2AF7D02E2A08BF01390846704710B591
:102DF000425C4318342A1EDD352A05D11C4614F8DE
:102E0000012F302AFBD0C2B1302413F8012C392A0B
:102E100002D103F8014DF8E7013203F8012C0378E1
:102E2000302B04D10BE0425C43185A700139002961
:102E3000F9DA012010BD002010BD104610BD0020A1
:102E400010BD30B500230A256FF0090400E01046DC
:102E500090FBF5F2303004FB0200C854013B981D92
:102E6000F5D130BD0EB430B590B013AB53F8044B70
:102E700000212822054605A80F9301F04BFC0A23E8
:102E800008936FF0004307930F9B05A80193104B25
:102E90004FF0FF3202936FF000430094059500F06D
:102EA00045FD079B0446013B002B079305DB059B73
:102EB000002203F8012B059303E0002005A901F08F
:102EC0004DFC204610B0BDE8304003B0704700BF55
:102ED000D92E0000000000002DE9F04F0D684C686D
:102EE0009FB0214605902846CDE9060107999B46EB
:102EF000C1F30F4323F00F035B0416465B0C47F648
:102F0000F0729342DDF8A4A02ED10023069CF3704A
:102F1000C1F313031C434FF06E031BD17370662380
:102F2000B370C1F3076303F080036922DBB2327030
:102F30000D460BB1884B12E01BF0020F06D1874BF8
:102F4000874A1BF0040F08BF134600E0854B289DFD
:102F50002B6006E033706122B370814B7270289C45
:102F60002360032400F036BC0598612800F05982E4
:102F7000412800F05682284621460022002302F014
:102F80001DFA20B1012104F100440A9100E00A90E9
:102F9000284621460022002302F0F2F9002840F0E2
:102FA0001F821DAA2846214601F0E1FC1D9A40F22D
:102FB0002D175743A7F5AA573C3F4FF47A7397FB59
:102FC000F3F7CDE91001BA1A0020674901F000FDBE
:102FD000002FCDE91A0106DA59A3D3E900237C4278
:102FE000CDE9162306E0614B4FF00002CDE9162330
:102FF00016D03C46E20709D5DDE91A01DDE91623C2
:1030000001F074FE012CCDE91A0109D0DDE91601A9
:10301000DDE9162301F06AFE6410CDE91601E9E747
:10302000DDE91001DDE91A2301F0FCFECDE9120112
:1030300010E0DDE9120100224D4B01F057FECDE911
:103040001201DDE91A010022494B01F0EBFECDE946
:103050001A01013FDDE912013BA3D3E9002302F08D
:10306000ADF90028E5D110E0DDE912010022404B66
:1030700001F0D8FECDE91201DDE91A0100223C4B36
:1030800001F034FECDE91A010137DDE9120130A368
:10309000D3E9002302F0ECF90028E5D1DDE91201C3
:1030A00002F018F97B4213EA270338BF3B460E961D
:1030B000CDF83CB00B93D3460646BA46304602F0F4
:1030C00057F91D9AC2EB0A0201F082FC002200238C
:1030D000BAF1000FCDE91201CDE914234ADA18A59F
:1030E000D5E90045CDE91645CDE91823DDE91623DC
:1030F000DDE91601002214461D4601F047FFDDE917
:10310000188902460B464046494602F039F8CDE997
:103110001801CDE91645DDE916010022134B01F037
:10312000E5FD02460B4600200F4901F02FFF00226B
:103130000E4B01F077FECDE9180127E0AFF30080D8
:103140009A9999999999C93F00000000006AF8403E
:103150000000000080842E4132560000025600001C
:10316000FF550000005600000000F03F0000144032
:103170000000244094494FF000004FF000024FF04F
:103180000003CDE91601CDE918237AD00B9FFB0788
:1031900042D5DDE91201DDE91823DDE91445CDE969
:1031A0000845DDE91645DDE9188901F09FFD424635
:1031B000CDE90C014B462046294601F0E1FF0246CD
:1031C0000B46DDE9080101F091FD02460B46DDE901
:1031D0000C0101F0D5FFCDE91401DDE91201DDE9B3
:1031E000162301F083FDCDE91201DDE91223DDE9AB
:1031F0001201002214461D4601F0C8FEDDE91489C3
:1032000002460B464046494601F0BAFF012FCDE980
:103210001401CDE9124534D0DDE91889DDE9160144
:1032200002460B46DDE9184501F0AAFF22462B466F
:1032300001F0A6FF02460B464046494601F056FD06
:10324000CDE91801DDE91601DDE9162301F04EFD97
:10325000CDE91601DDE91623DDE916010022144649
:103260001D4601F093FEDDE9188902460B464046F3
:10327000494601F085FF7F10CDE91801CDE91645DB
:1032800085E7DDE91201DDE9102302F0C5F808B990
:10329000013E13E7DDE91001DDE9122301F076FEBE
:1032A000CDE91001DDE91001DDE9142301F06EFE26
:1032B000CDE91001DDE91001DDE91A2301F0B2FDCD
:1032C0003FA3D3E90023CDE91001DDE9100101F0AE
:1032D0000DFDCDE91001DDE9100101F0FBFFDDE995
:1032E0001089044602F044F802460B46404649461F
:1032F00001F04CFE32A3D3E9002301F0F7FCCDE945
:103300001001DDE9100101F0E5FF57463546DA46C8
:103310000E9EDDF83CB0804604E008F5742808F500
:103320001078013CB8F1000FF7DB05E0A8F5742830
:10333000A8F51078013400E0244A9045234BF5DCD1
:1033400004E004F5742404F51074013D002CF8DB4E
:1033500004E0A4F57424A4F5107401359C42F8DC53
:103360001B4B29469D4212DC1A4A1B4994FBF2F082
:1033700098FBF2F201FB004401FB02880A2303FBE5
:10338000050503FB042403FB08F8013F2EE00F4B67
:103390009D422BDD0A236FF0090095FBF3F500FB3E
:1033A00005110E4A013702FB014191FBF3F400FBCA
:1033B000041102FB018808F1050898FBF3F815E0F9
:1033C0000000000080842E41000014403F420F00A6
:1033D0009F860100A08601006079FEFF40420F0039
:1033E0004FF000086FF004074446454631464FF061
:1033F0003009284601F8069BFFF723FD06F10C0172
:103400002046FFF71EFD06F112014046FFF719FDA9
:103410000A9D0023053786F81390337545EA870720
:1034200000E00027FD0703D59E4B289C23600CE09D
:103430001BF0020F06D19C4B9C4A1BF0040F08BFE7
:10344000134600E09A4B289D2B60059C042327F02F
:103450000107612C97FBF3F714D008DC452C5BD0F7
:10346000472C00F09181412C40F08C810AE0059DB1
:10347000662D00F0BB80672D00F08681652D40F041
:10348000818149E0DDF81CE0069A0020CEF31303A9
:103490001043CEF30A521946A2F57E73073B1AB9C0
:1034A00050EA010408BF0023DAF8004084B91BF099
:1034B000080F0DD17F48059D7F49002A14BF312296
:1034C0003022612D18BF01463046FFF7CBFC13E0D8
:1034D0007A4D7B4FDDF814E0CDE90001BEF1610FBC
:1034E00018BF3D460293002A14BF312230223046D5
:1034F00029462346FFF7B6FC044607986B4AC0F3FB
:10350000076303F080036749DBB2289D002B14BFDB
:103510000B4613462B605DE1DAF80030112B05DD18
:103520002B9C113B23601123CAF80030DAF80040CD
:1035300002341BF4006504D130462146FFF757FCE6
:103540003F1873783370DAF8003023B940F6080377
:103550000BEA030313B12E23737000E001242B98B0
:103560000368002B02DD3E23335501343DB11BF0CF
:10357000080F04D121463046FFF72AFC0446059D7A
:10358000631C002F355504F1020402DA7F422D221C
:1035900000E02B22B7F57A7FF25423460ADB4FF482
:1035A0007A72484997FBF2F201FB027702F130038D
:1035B0003355631C632F0ADD642297FBF2F202F19C
:1035C0003001F1546FF0630101FB027701330A22ED
:1035D00097FBF2F202F13001F15430376FF009013C
:1035E00001FB0272F61872709C1CF3E0002FDAF8EF
:1035F000003047DA7D425A1C954209DD3023337092
:103600002E2373702B9CDAF800302360022434E000
:10361000DF19BC1C122C03DD2B9C113F27601324E7
:103620001BF4006F09D130462146FFF7E0FB20B1C3
:103630000134013D01D173780BE0012D234610D1F7
:1036400003E0F15CF2185170013B002BF9DC01340E
:10365000302333702E2373700FE0F15CF2189170F9
:10366000013B002BF9DC302333702A982E23737032
:10367000013D3C23B370023405602B9D2B68002B69
:1036800039DC6BE0FD18AC1C122C0BF4006350DD30
:10369000D3B930461321FFF7AAFBA8B10137142490
:1036A00013E000BF3256000002560000FF55000034
:1036B000005600000C56000004560000145600008E
:1036C0002356000018FCFFFF1324611E00238F42C5
:1036D000324614DA51780133BB4202F8011BF9DD9E
:1036E000F3192E225A70DAF800302B9DFF18113F83
:1036F0002F60002F32D03E23335501342EE0507816
:1037000001338B4202F8010BF9DB33193C223F1BDA
:103710002A9D03F8012C02372E232F603355DAF847
:103720000020631CCAB12B9D02342A603E22F25451
:1037300014E033B930462146FFF759FB08B1013791
:10374000EC1C3246002351780133BB4202F8011BC6
:10375000F9DDF7192E237B7000E01C461BF4006F87
:1037600008D01BF0080F35D121463046FFF730FB5B
:1037700004462FE0DAF8003063BB1BF0080F29D1B4
:10378000013C27E067240594DAF800304BF4006B25
:10379000002B02DC0123CAF80030DAF800101129EE
:1037A00001DC013100E012213046FFF720FBDAF89E
:1037B00000303F189F4206DA3C1D04DBFA439B1899
:1037C000CAF8003012E7059D013B023DCAF80030FF
:1037D0000595A1E620461FB0BDE8F08FAFF300804D
:1037E000F0B58FB0064614460D462822002104A8E5
:1037F0001F4600F08FFF0A2307936FF000430693E4
:103800000D4B049600266A1E029304A833468DE8E9
:10381000900000F08BF8069B0446013BB3420693F0
:1038200002DB049B1E7003E0304604A900F096FF03
:1038300020460FB0F0BD00BFD92E00000FB473B505
:1038400006AB53F8045B012168462A460193FFF753
:10385000C7FF0028044613DD461C3046FFF744FA34
:10386000009068B131462A46019BFFF7B9FF074B2C
:103870000099D86B2246FCF747FF0098FFF792FAB1
:103880002046BDE87C4004B0704700BFD80000105F
:1038900010B500214FF4A0721E4800F03BFFC0207D
:1038A000FFF786FA1C4C0021C022206000F032FF96
:1038B000184B226803F5A0715A62283318328B42E4
:1038C000FAD100201549134A00F0EFFF00214FF410
:1038D00080534FF480620F4800F0D2FE012010495F
:1038E000104A00F0E2FF00214FF480534FF4806251
:1038F0000C4800F0C5FE022009490B4A00F0D5FF34
:10390000094800214FF480624FF48053BDE8104015
:1039100000F0B6BED8000010D400001034560000ED
:103920003656000000010010280100102DE9F04F6C
:10393000B1B03B9C0646CDE90E23DDF8E8A01E940D
:10394000002500F092BE25280AF1010A02D1524654
:1039500000251AE00D9ADDE90E45D317571CA24247
:1039600073EB05050D9780F28186B368013B002B50
:10397000B36005DB336803F8010B336000F076BEFB
:10398000314600F0EBFE00F071BE104612F8013B2C
:103990002B2B1C4692460DD004D8202B0DD0232B68
:1039A00014D10DE02D2B02D0302B0FD10BE045F0C0
:1039B0000105EAE745F00205E7E745F00405E4E71D
:1039C00045F00805E1E745F40075DEE72A2B0CD148
:1039D0001E9F39683B1D002902DA494285F0010526
:1039E000447800F1020A1E930BE000210A20A4F1A2
:1039F0003003DAB2092A04D800FB01311AF8014B6E
:103A0000F5E721EAE1712E2C069121D19AF80040C8
:103A10002A2C07D11E9C221D21689AF801400AF128
:103A2000020A0FE0504600210A27A4F13003DAB25F
:103A3000092A0AF1010A04D8447807FB01315046EB
:103A4000F3E71E9A002904DB45F010050F4601E05C
:103A50001E9A00276C2C0ED19AF800406C2C06D1CF
:103A60009AF8014045F060050AF1020A03E00AF104
:103A7000010A45F020054C2C01D0712C04D11AF814
:103A8000014B45F060051CE0682C0FD19AF800400E
:103A9000682C06D19AF8014045F480750AF1020AB3
:103AA0000FE00AF1010A45F080050AE06A2C02D114
:103AB00045F0400503E07A2C01D0742C01D11AF8AE
:103AC000014B672C19DC652C80F28C82582C00F09D
:103AD000A1810BDC452C00F0858204DC002C00F079
:103AE000AA80412C07E0472C20D17BE2632C19D01F
:103AF00000F33B82612C19D16FE2702C00F0DC8165
:103B000007DC6E2C00F09C8000F3E081692C0DD165
:103B10002BE2752C00F00682782C00F0A481732C27
:103B200004D1ADE0171D1E97146800E01E920698A0
:103B3000471E15F0010B33D10D9915F4007F0CBF12
:103B400020253025CA174FF000084FF000090891D2
:103B500009921FE0DDE9082312EB080243EB090399
:103B6000DDE90E01824273EB01010DDAB368013B1E
:103B7000002BB36004DB336803F8015B336003E0C0
:103B80002846314600F0EAFD0122002318EB020826
:103B900049EB03090D98013F00EB0803DAD50D93BB
:103BA0000D9ADDE90E01D317551C824273EB01011A
:103BB0000D950DDAB368013B002BB36004DB33686D
:103BC00003F8014B336003E02046314600F0C6FDA8
:103BD000BBF1000F22D100F049BDDDE9082312EB53
:103BE000080243EB0903DDE90E01824273EB010198
:103BF0000DDAB368013B002BB36004DB336803F8D4
:103C0000015B336003E02020314600F0A7FD012274
:103C1000002318EB020849EB030909E00D9B3C4621
:103C2000DD1709954FF000084FF000090893202593
:103C3000013CD2D5E7E00AF1FF3A1E9200F016BD32
:103C400002F1040315F0400F1E9306D00D9B11687E
:103C5000DA170B604A6000F009BDA80613680BD4A0
:103C6000E90503D50D9F1F7000F000BD2A0603D59E
:103C70000D9C1C8000F0FABC0D9D1D6000F0F6BC90
:103C8000D2F80080A14B141DB8F1000F08BF984670
:103C900040461E9400F018FD0446E80602D5BC42DA
:103CA000A8BF3C46069815F0010BC4EB00073FD1B6
:103CB00015F4007F0CBF2025302500230022CDE91C
:103CC00008230D9B07F1FF39D8170693079023E0CF
:103CD000DDE90601DDE90823121843EB0103DDE904
:103CE0000E01824273EB01010DDAB368013B002B38
:103CF000B36004DB336803F8015B336003E02846FC
:103D0000314600F02BFD0120DDE9082300211218C7
:103D100043EB0103CDE908230899C1EB0903002B0C
:103D2000D6DA0D9D27EAE773ED180D95C3EB090769
:103D300000230022CDE908230D9BDD17069307958C
:103D400027E0DDE90601DDE90823121843EB010352
:103D5000DDE90E01824273EB010111DAB368089AC2
:103D6000013B002BB36008EB020305DB1A783368D4
:103D700003F8012B336003E01878314600F0EEFCC5
:103D80000120DDE908230021121843EB0103CDE9EE
:103D9000082308998C42D4DC0D9D002CA8BF2D1956
:103DA0000D95BBF1000F22D100F060BCDDE90823C6
:103DB00012EB080243EB0903DDE90E01824273EBCB
:103DC00001010DDAB368013B002BB36004DB3368FB
:103DD00003F8015B336003E02020314600F0BEFCB5
:103DE0000122002318EB020849EB030909E00D9BAF
:103DF0003C46DD1709954FF000084FF00009089385
:103E00002025013CD2D50D9C002FA8BFE4190D94AC
:103E100000F02CBC690608D5D31D23F0070303F17D
:103E200008001E90D3E9008905E01368111D1E915A
:103E300098464FF000092A0602D51FFA88F803E0D9
:103E4000EB0503D55FFA88F84FF00009304A314B93
:103E500015F0080F0CBF9E469646E80640F1E98033
:103E600025F40075E5E0690608D5D31D23F00703A6
:103E700003F108021E92D3E9008905E0131D1E9389
:103E800013684FF0000998462A0602D51FFA88F8F1
:103E900003E0EB0503D55FFA88F84FF000091E4AEE
:103EA0001C4B15F0080F0CBF9E469646E80640F1E5
:103EB000C28025F40075BEE01368101D1E90984660
:103EC0004FF000091549DFF850E0BBE0690608D55E
:103ED000D31D23F0070303F108011E91D3E90089E4
:103EE00005E0131D1E9313684FF0000998462A063B
:103EF00002D51FFA88F803E0EB0503D55FFA88F8CE
:103F00004FF0000915F0080F054A58E03856000038
:103F10003F560000FF550000425600005856000072
:103F200045560000680608D5D31D23F0070303F1AA
:103F300008001E90D3E9008905E01368111D1E9149
:103F400098464FF00009290602D51FFA88F803E0C9
:103F5000EA0503D55FFA88F84FF0000915F0100361
:103F60006BD025F40075002168E06B0608D5D31DE1
:103F700023F0070303F108021E92D3E9002304E0B3
:103F80001168131D1E930A46CB17280601D512B2DD
:103F900002E0E90501D552B2D317002A73F10000FF
:103FA00006DAD2F1000863EB4309DFF8B0E20DE076
:103FB000A8079046994607D4A44A15F0040FA44BCD
:103FC0000CBF9E46964601E0DFF894E215F0100320
:103FD00037D025F40075002134E0E9065CBF45F0D8
:103FE00010050D2745F4806515F0100F08BF062752
:103FF00002F1070315F0200123F007030CD003F1B1
:1040000008011E91D3E900234FF00008CDE92A23CF
:104010004FF0000900210AE003F108021E92D3E9E3
:104020000023CDE92A234FF000084FF000098E4607
:1040300008E0884906E0884904E01946DFF810E204
:1040400000E019460D98DDE90E23121A63EBE073C8
:10405000CDE908234FF0FF332C97CDF8B4E02E9331
:104060002F930022552022ABD0540132202AFAD1BE
:1040700015F4826F01D101232C93672C15DC652C7C
:1040800080F2C080472C00F0BD8006DC412C00F09F
:10409000B980452C40F0C680B4E0612C00F0B280BD
:1040A000642C00F0A880582C0DE0702C1FD006DC8A
:1040B000692C00F0A0806F2C40F0B4802EE0752CAD
:1040C00000F09980782C40F0AD8010E008F00F03EC
:1040D000CB5C22AA0BF802304FEA181242EA0972AE
:1040E0004FEA19130BF1010B9046994601E04FF08E
:1040F000000B58EA0902E9D196E008F007033033D3
:1041000022AA0BF802304FEAD80242EA49724FEA7B
:10411000D9030BF1010B9046994601E04FF0000BDB
:1041200058EA0903E9D17FE04FEA980747EA897026
:104130004FEA99015FEA59034FEA38021A901B913E
:10414000DDE91A01121843EB0103110941EA037773
:10415000180912971390DDE91201121843EB0103BD
:10416000110A41EA0367180A14971590DDE9140152
:10417000121843EB0103110C41EA0347180C169780
:104180001790DDE91601121843EB010300271C9379
:104190001D97DDE91C01121843EB0103D10841EA28
:1041A0004377D8081190A7FB04011097119F0622AE
:1041B00004FB0711002312EB080243EB0903121A58
:1041C00063EB0103100940EA03711F091891199765
:1041D000DDE91023DDE91801801841EB030108F146
:1041E000300304FB103322AA0BF8023080460BF197
:1041F000010B894602E04FF0000B0A2458EA09033C
:1042000092D111E02DAB00932CAB01932EAB029316
:104210002FAB039320462AA922AA2B463C9CA047F9
:10422000834601E04FF0000B15F48067209719D00A
:1042300000232C932E9B002B01DD013B2C932F9B05
:10424000002B15DD2C9A013BD31810E0025600001C
:10425000FF55000047560000585600003256000037
:10426000005600002C9BB3EB0B0348BF00232C939C
:104270002D982C9C00F028FA069F5C443B1B15F4FB
:104280000072C0EB03091F9209D00027002200230F
:10429000FC17CDE906230A970B94AC4659E0EB07CF
:1042A00021D51F9FF2E7DDE90623DDE908018242FF
:1042B00073EB01010DDAB368013B002BB36004DB43
:1042C000336803F8017B336003E02020314600F0BF
:1042D00045FA0120DDE906230021121843EB010312
:1042E000CDE9062305E000220023CDE906234C4654
:1042F0002027013CD7D529EAE97709F1FF33C7EB3D
:104300000309C3E7DDE90A45DDE90623121943EB9A
:104310000503DDE90845A24273EB050510DAB36831
:10432000013B002BB36004DB336803F8010B3360FF
:1043300006E03146CDF814C000F010FADDF814C0E4
:104340000124DDE906230025121943EB0503CDE91D
:1043500006232D9B069D13F8010B07EB0508444629
:104360002D930028CED11CF0010521953ED11F9F31
:1043700000230022CDE906234346002F0CBF202452
:104380003024DF1709F1FF35CDF828800B9723E0A3
:10439000DDE90A01DDE90623121843EB0103DDE93B
:1043A0000801824273EB01010DDAB368013B002B77
:1043B000B36004DB336803F8014B336003E020464D
:1043C000314600F0CBF90120DDE906230021121867
:1043D00043EB0103CDE9062306996B1A002BD7DACC
:1043E00029EAE97308EB0304C3EB0509209A002AC4
:1043F00040F0998000220023E517CDE906230A94B6
:104400000B953027B8E022ABF85C3C2827D03E283B
:104410006FD15BE0DDE90A01DDE90623121843EB09
:104420000103DDE90801824273EB01010DDAB36893
:10443000013B002BB36004DB336803F8018B33606E
:1044400003E03020314600F089F90120DDE9062340
:104450000021121843EB0103CDE9062308E00022F6
:104460000023CDE90623E5170A940B954FF0300899
:104470002E9B0698013B002B04EB00052E93C9DA16
:1044800035E0DDE90A01DDE90623121843EB0103FB
:10449000DDE90801824273EB01010DDAB368013BEB
:1044A000002BB36004DB336803F8018B336003E057
:1044B0003020314600F052F90120DDE906230021C9
:1044C000121843EB0103CDE9062308E00022002384
:1044D000CDE90623E5170A940B954FF030082F9B82
:1044E0000698013B002B04EB00052F93C9DAA84680
:1044F00016E02246E31704F10108DDE90845A2426F
:1045000073EB05050CDAB368013B002BB36004DBE9
:10451000336803F8010B336002E0314600F01EF906
:104520000137444600E000275F45FFF66CAF63E0CB
:10453000DDE90A01DDE90623121843EB0103DDE999
:104540000801824273EB01010DDAB368013B002BD5
:10455000B36004DB336803F8017B336003E0302091
:10456000314600F0FBF80120DDE906230021121896
:1045700043EB0103CDE906232C9B0699013B002B5D
:1045800004EB01052C93D3DA00220023EF175C46DD
:10459000CDE90A230695079726E0DDE90601DDE966
:1045A0000A23013C121843EB0103DDE908018242B2
:1045B00073EB01010FDAB368013B002BB36022AB50
:1045C00005DB1A5D336803F8012B336003E0185DE7
:1045D000314600F0C3F80120DDE90A23002112185A
:1045E00043EB0103CDE90A23002CD6DCBBF1000F1D
:1045F000ACBF05EB0B042C1C219A2ABB33E0DDE990
:104600000601DDE90A23121843EB0103DDE9080185
:10461000824273EB01010DDAB368013B002BB360FA
:1046200004DB336803F8017B336003E0202031466C
:1046300000F094F80120DDE90A230021121843EB71
:104640000103CDE90A2308E000220023CDE90A2373
:10465000E71707974D4606942027013DCFD5B9F1BE
:10466000000FA8BF4C440D9D2D190D959AF8000020
:1046700000287FF468A90D9831B0BDE8F08F00BF25
:1046800070B5C46814F0030F17D0B2F5007F09D0DD
:10469000B2F5806F03D0B2F5807F0ED102E0416A9F
:1046A000012303E0074D5E1EAE4208D8224301619C
:1046B0000160C361C260002070BD012070BD012097
:1046C00070BD00BFFEFFFF00411C04E01B780130FD
:1046D0000BB9401A704782070346F7D100E0043354
:1046E0001A68A2F1013020EA020010F0803FF6D0F3
:1046F00012F0FF0F0BD012F47F4F06D012F47F0F91
:1047000001D0043304E0033302E0023300E001335C
:10471000581A704700F0EDBEC36810B523F02003AF
:10472000C360436A82695B6804469A420FD000F016
:10473000F2F8E368626A23F4405323F0100343F075
:104740001003E3605368A361236993602360E36807
:1047500023F4804323F04003E36010BDF8B5CB6839
:10476000064623F40022CA609A060C4602D5084683
:10477000FFF7D2FFA1684B1C0FDAE26890050CD45A
:104780006FF001035B1AA360236842F49032F0B229
:10479000E26003F8010B2360F8BDE56841F28A028C
:1047A0002A40022A07D0002345F08005A360E56077
:1047B0004FF0FF30F8BD4AF210032B40B3F5004F25
:1047C0000AD10021204600F0BDF9E3689A0602D51F
:1047D0002046FFF7A1FFE56845F4903717F4706FA6
:1047E000E7601CD1606900F09DFE50B17B0508D5E3
:1047F000636A45F49237236123600123E361E76034
:104800000DE04FF48050FEF7D3FA4FF48053E3618C
:10481000E36847F400673B4320612060E36017F4DE
:10482000106F2168256919D0636A9B688B422CBF81
:10483000C5EB0301C5EB010129B12846224600F072
:10484000EFF800282ED1636A6A1C9A602260E26940
:10485000F0B2511EA160DA602870F8BDF6B201F81E
:10486000016B636A21609A6891422CBFC5EB01011C
:10487000C5EB0201E2697805DA6003D40A2E01D0A3
:1048800091420DDB9D6000232560A36028462246EF
:1048900000F0C6F800280CBF30464FF0FF30F8BDDE
:1048A0003046F8BD4FF0FF30F8BD70B50E460546F6
:1048B0001046144600F0F6F83378722B04D0772BAC
:1048C00009D0612B24D102E00023012205E0082356
:1048D00048F2020201E00423022216F8011F2B29EC
:1048E00002D062290AD104E042F0030243F002033D
:1048F000F3E742F0040243F00103EEE71B07E26036
:10490000656106D520460021022200F01BF900E077
:104910000024204670BD38B5426A04460569036824
:10492000C068916820F40022E26000F08202022A4E
:1049300017D110F4803019D0994238BF1946A942D6
:1049400005D0491B2846224600F06AF860B9636A20
:1049500000209D60E368256023F48033A060E3605D
:1049600038BD4FF0FF3038BD4FF0FF3038BDF8B5DF
:1049700014460023002206460F4600F001FD20B138
:104980000023236000200021F8BDC7F30A53A3F5DC
:104990007E72063A9BB9C7F313033146CD0F184612
:1049A00045EA430323F07F434900000323F47003E7
:1049B00003D563F313070E4601E0013AEEE740F238
:1049C000FE3363F31E57226030463946F8BD0000BF
:1049D00070B500231646002204460D4600F0D0FCB8
:1049E000A0B9C5F30A539E1940F2FE739E4206DD3C
:1049F000094B22221A60094BD3E9000170BD002E39
:104A000007DD66F31E552046294670BD00200021B3
:104A100070BD0020002170BDD00000107056000055
:104A20002DE9F041D7680646FB020D461446D2F840
:104A3000148005D5404600F072FD47F01007A061D4
:104A4000174B3B4093B14046A16900F071FD00282F
:104A500007DAE3684FF0FF3043F08003E360BDE81E
:104A6000F08127F4003727F01007E7602A46404618
:104A70003146FBF749FEA84214BF4FF0FF3000203B
:104A800020F00043ED1AA3695D19A56128B1E36820
:104A90004FF0FF3043F08003E360BDE8F08100BFDA
:104AA000100002002DE9F04100F10C0696E8C0016B
:104AB000B10786B00446456A25D0320716D400F007
:104AC00027F8404600F028FD330502D53846FEF7AA
:104AD00069F9B60DB60516F1A54F07D101A8216AEF
:104AE000142200F028FD01A800F0D4F800211822BB
:104AF000606AFFF70FFE204600212822FFF70AFE1A
:104B00006562002001E04FF0FF3006B0BDE8F081A3
:104B1000F8B518B1BDE8F84000F0C6B8084E044634
:104B20000546282707FB046000F0BEF80134002882
:104B300018BF4FF0FF35082CF4D12846F8BD00BF50
:104B4000D80000102DE9F0413E4BC66804463340C2
:104B50000D461746D0F81480002B6CD0404600F06C
:104B6000E1FC002867D1012F04D0022F07D0002FCD
:104B700026D060E0204600F067F82D1820E040467F
:104B800000F0CDFC002806DAE368012043F0800342
:104B9000E360BDE8F081626AA169976823689F427B
:104BA0002CBFCB19CB1821695B1AE168890603D5A4
:104BB00052689342B8BF13468342ACBFED182D181C
:104BC000002D3BDBB20405D5636A226899689142E7
:104BD00038BF9A60A3699D420EDB606A22688168D3
:104BE000914238BF11462269CF18BF1ABD4203DC7B
:104BF000C0681F18BD4207DB0023A3606360636ABF
:104C000046F020065D600EE0ED1AB30744BFC0EB2E
:104C10000500A060F30702D5511A691861605519A3
:104C2000256026F0200626F4022626F48256E66049
:104C30000020BDE8F0810220BDE8F0810220BDE83F
:104C4000F08100BF03001000C3689A0705D1104B24
:104C500021221A604FF0FF30704713F4002F03F049
:104C600020030AD013B1436A586804E083690268DC
:104C7000D2180369D01A0138704713B1436A5868D3
:104C8000704783690268D2180369D01A704700BF61
:104C9000D000001010B50446FFF716FD014620466F
:104CA000BDE8104000F041BCC36870B513F00304C8
:104CB000054618D09B0604D5436A5E68FFF72CFDB5
:104CC00004E083690668F6180369F61AEB6828465B
:104CD00023F44053EB60FFF71EFE314604460022EA
:104CE0002846FFF72FFF204670BD00002DE9F00F8A
:104CF000144606460F460A46C1F30A51A04620460E
:104D000084B01D4699463446002959D040F2FF75BB
:104D1000A94255D0C3F30A56002E51D0AE424FD00F
:104D2000C702A7FB048922F07F4525F4700545F4EE
:104D3000801CACFB07ABCDE90289039D400D40EA26
:104D4000C32015EB0A084FF0000949F1000940F0B3
:104D50000040E4FB00890025CDF800900195DDE9D5
:104D6000004514EB0B0445F10005ECFB00457618FB
:104D700002995340B5F5801F03F0004348EA9102C1
:104D800047D2D10F201945EB0505A6F5806640EA0C
:104D900001045200D70FE01945F10001B2F1004FB4
:104DA00040F2FD7208BF20F00100964235D9002E76
:104DB000A4BF43F0FE4343F47003194600201FE0F4
:104DC00083EA02046FF4001152008A4204F00044A6
:104DD0000FD85B008B4217D913F5001F0CD8520D6A
:104DE0000AD05B0D08D044F0FE4444F4700100206A
:104DF00006E012F5001F0AD000210020C7F6F87166
:104E000004B0BDE8F00F704721460020F8E75B00D2
:104E1000E2E7A6F57E76073EBCE7194301EB0653B1
:104E20001946EDE72DE9F00F1D462F461446C1F354
:104E30000A520B4605463E46002A3CD040F2FF711E
:104E40008A4238D0C7F30A5CBCF1000F33D08C45DE
:104E500031D04FEA5051600D41EAC32940EAC727DB
:104E60004FEAC42AE80249F0004147F0004BCCEB7E
:104E7000020C5E40504571EB0B030CF57E7C6AD250
:104E80000CF1050C5FEA5B034FEA3A02342500247B
:104E90006400904271EB030704D3801A61EB0301B5
:104EA00044F00104001841EB0101202D4DD0002DEC
:104EB0002ED0013DECE75A0012F5001F21D87100F9
:104EC00011F5001F1DD846EA0304C4F30A50440537
:104ED000002835D086EA030C500D0CF00043440541
:104EE000002835D0480D4405002846D011F5001F94
:104EF0003DD100208A424FF0000144D1C7F6F8713D
:104F000003E000210020C7F6F871BDE8F00F7047FC
:104F1000904271EB030503D3013408BF08F1010887
:104F200040F2FD739C4506F000461AD9BCF1000F13
:104F3000A4BF46F0FE4646F4700631460020E4E782
:104F40002146C7F6F8712046DFE7A046013D9FE7FE
:104F500019462046D9E749084FEA30000CF1060C03
:104F600090E706EB0C5606EB08012046CDE743F030
:104F7000FE4141F470010020C7E743F0FE4242F4D5
:104F800070012046C1E719460020BEE72DE9F00F69
:104F90001D469B460B468946924695EA0304804689
:104FA000064602464F462946504600F1C880AB42AD
:104FB00062D2424004F100445040634061404240AC
:104FC0001C0D24F4006640F2FF77BE42A4EB11559D
:104FD0005FD0B54200F0978023F07F4C21F07F41F5
:104FE0002CF470031F2D21F4700C43F480134CF447
:104FF000801158D8C5F1200630FA05F701FA06FCF1
:1050000031FA05F54CEA0707D71BBA42C5EB030393
:1050100038BF013B10FA06F17ED13A4613F4C01FA7
:105020005BD1D00FCD0F40EA430345EA420252EA7A
:1050300003056ED0A51E590B06D1110E41EA0323BC
:105040001202083D590BF8D0590C04D1100F40EA58
:1050500003131201043DD90C04D1910F41EA8303DB
:105060009200023D190D7FD0E40AB4EBD52F00F079
:105070008380E107002043E0D045A1D8AB4298D01F
:105080001C0D24F4006640F2FF77BE42A4EB1155DC
:105090009FD1002019034FF000014DD1002D5ED0AB
:1050A000194610462CE0352D17D8A5F1200731FA06
:1050B00007F6961BB242C5F1400538BF013B11FA15
:1050C00005F230FA07F7000647EA020143D041F043
:1050D000FF014942721E002E4CD0D80209D4013C77
:1050E000650535D0D50FC80F45EA430340EA4202B3
:1050F0004900002923F4801315DB03EB045110460B
:10510000BDE8F00F704740F2FE7C6545C1D8002D28
:10511000C6D129462846F3E749427A1E002F7FF47C
:105120007DAF013B7AE7013208BF0133B1F1004F97
:1051300008BF22F00102E0E7C7F6F871E0E705F1E9
:105140000043524640464946BDE8F00F00F018B80B
:1051500021052846D4E70029BBD13246BDE72946C0
:10516000C7F6F8712846CBE7D00F40EA4303520058
:10517000013D79E7013BB0E703EB05511046BFE77E
:105180002DE9F00F1D469B460B468946924695EA4F
:1051900003048046064602464F462946504600F123
:1051A0009080AB423DD31D0D25F4006640F2FF74A4
:1051B000A64246D0A5EB1154B44268D023F07F4CF0
:1051C00021F07F412CF470031F2C21F4700C43F468
:1051D00080134CF4801145D8C4F1200630FA04F74E
:1051E00001FA06FC31FA04F44CEA0707D219234409
:1051F00028BF013310FA06F198022AD5013208BF00
:10520000013309B922F002022C0504EB53046FF4B8
:105210000010B0EB440F44D3DB07214643EA5200B1
:105220001DE0634085EA04011D0D8AEA080225F4A9
:10523000006640F2FF748AEA0200A64280EA020297
:10524000B8D1002019034FF0000137D1194610469C
:1052500005E0013D002928DB03EB05511046BDE8C0
:10526000F00F7047352CC7D8A4F1200631FA06F7A5
:10527000C4F14004D21928BF0133A14030FA06F628
:10528000000646EA010118BF41F0FF01B4E740F211
:10529000FE7C6445D5D8002CD8D103F000412046CF
:1052A000DDE7013529050020D9E7013208BF0133C8
:1052B000B1F1004F08BF22F00102CDE7C7F6F87147
:1052C000CDE705F10043524640464946BDE8F00FA0
:1052D000FFF75CBE0B461A0DC90241EA5051C2F5F8
:1052E00082620E3241F00040D040FF2A0FD912F402
:1052F000E06F0DD013F0804009D0580010F5001F6A
:1053000004D8DA0F02F10043581E7047002070479E
:1053100040427047002828D0030C11D0030E01F141
:10532000807110D10002030F11D10001830F12D13F
:105330008000002813DB400001EBE02140057047AE
:105340000004030EEED0030F01F50001EDD0830F32
:1053500001F58001ECD0002801F50011EBDA01F530
:10536000801101EBE0214005704703461946704764
:1053700010F0004118BF404201F18041FFF7CABF61
:10538000F0B41D460B464900144616462F462A46E1
:1053900051EA000502D154EA47050CD0934202D0ED
:1053A0000020F0BC7047A042FAD111F5001F8CBF5D
:1053B00000200120F5E70120F3E700BFF0B453EA35
:1053C00001040D4616461F4609D45C0014F5001F63
:1053D00002D8994217D318D00020F0BC70474C0077
:1053E00014F5001FF8D85D0015F5001FF4D804432C
:1053F00001D115430ED0994205D8EDD1904294BF0A
:1054000000200120E9E70120E7E790422CBF0020BF
:105410000120E2E72846E0E7F0B453EA01040D4634
:1054200016461F4609D45C0014F5001F02D89942A5
:1054300017D318D00020F0BC70474C0014F5001FA3
:10544000F8D85D0015F5001FF4D8994209D806D0A8
:105450002043EFD12A4314BF00200120EBE7904204
:10546000F6D30120E7E790428CBF00200120E2E75D
:10547000F0B40D461F4657EA050416460B464FEAA0
:10548000450408D414F5001F02D8BD4216D817D021
:105490000020F0BC704714F5001FF9D87D0015F509
:1054A000001FF5D8BB4209D306D02043F0D12A43D0
:1054B00014BF00200120ECE79042F6D80120E8E775
:1054C000904234BF00200120E3E700BF0346091AE1
:1054D000043A05D3043A51F803C043F804CBF9D297
:1054E000D20724BFCA5A23F8022B44BFCA5C1A70E1
:1054F00070470346043A08D3C9B241EA012141EAA0
:105500000141043A43F8041BFBD2043202D0013AB1
:105510009954FCD17047FEE74FF0FF3070474FF0D1
:10552000FF3070474FF0FF3070474FF0FF3070474B
:105530004FF0FF3070474FF0FF30704738B50C4BDD
:105540001A680AB90B4A1A60C51C1C6825F00305C5
:105550006519284600F012F810B9054B1D6004E0EB
:10556000054B0C221A604FF0FF34204638BD00BFB7
:105570001C02001020020010D0000010084A6B46E8
:10558000934201D9984206D2064B33B1984234BFB8
:10559000002001207047012070471846704700BF67
:1055A0002002001000000000496E20495251204D99
:1055B00052300A0D00000000496E20495251204D22
:1055C00052310A0D00000000496E20495251204D11
:1055D00052320A0D00000000496E20495251204D00
:1055E00052330A0D000000002A2A2A205F437379F3
:1055F000735F616C6C6F63206661696C65640A003F
:105600002B00200030782563702564003058256316
:1056100050256400307825632E252E2A6C6C787016
:10562000256400305825632E252E2A6C6C58502591
:1056300064002D0072007700286E756C6C290030B4
:105640005800307800300030313233343536373856
:1056500039414243444546003031323334353637E0
:105660003839616263646566000000000000000074
:10567000FFFFFFFFFFFFEF7F006CDC02008793035B
:0856800000879303000E2707C9
:00000001FF
