:1000000000000110430100000D0100000F0100007D
:1000100011010000130100001501000068F9FEEF56
:1000200000000000000000000000000017010000B8
:1000300019010000000000001B0100001D0100006C
:100040001F0100001F0100001F0100001F01000030
:100050001F010000310500001F010000C109000060
:100060001F0100001F0100001F0100001F01000010
:100070001F0100001F0100001F0100001F01000000
:100080001F0100001F0100001F0100001F010000F0
:100090001F0100001F0100001F0100001F010000E0
:1000A0001F0100001F0100001F0100001F010000D0
:1000B0001F0100001F0100001F0100001F010000C0
:1000C0001F0100001F0100001F0100001F010000B0
:1000D0001F0100001F0100001F0100001F010000A0
:1000E0001F01000048480000000000100800000048
:1000F0004848000000000020000000000800001038
:10010000FC0100000000002000000000FEE7FEE708
:10011000FEE7FEE7FEE7FEE7FEE7FEE7FEE7FEE7B7
:1001200010B5002302E01C585C5004339342FAD30C
:1001300010BD00231A4601E01A5004338B42FBD352
:10014000704738B50C4C0D4D04E094E807000C34B2
:10015000FFF7E6FFAC42F8D305E094E8030008346B
:10016000FFF7E7FF00E0064DAC42F6D300F004FFD6
:1001700000F054FFFEE700BFE4000000FC000000B8
:100180000C010000FFFFFFFFFFFFFFFFFFFFFFFF6E
:10019000FFFFFFFFFFFFFFFFFFFFFFFFFFFFFFFF6F
:1001A000FFFFFFFFFFFFFFFFFFFFFFFFFFFFFFFF5F
:1001B000FFFFFFFFFFFFFFFFFFFFFFFFFFFFFFFF4F
:1001C000FFFFFFFFFFFFFFFFFFFFFFFFFFFFFFFF3F
:1001D000FFFFFFFFFFFFFFFFFFFFFFFFFFFFFFFF2F
:1001E000FFFFFFFFFFFFFFFFFFFFFFFFFFFFFFFF1F
:1001F000FFFFFFFFFFFFFFFFFFFFFFFFFFFFFFFF0F
:10020000FFFFFFFFFFFFFFFFFFFFFFFFFFFFFFFFFE
:10021000FFFFFFFFFFFFFFFFFFFFFFFFFFFFFFFFEE
:10022000FFFFFFFFFFFFFFFFFFFFFFFFFFFFFFFFDE
:10023000FFFFFFFFFFFFFFFFFFFFFFFFFFFFFFFFCE
:10024000FFFFFFFFFFFFFFFFFFFFFFFFFFFFFFFFBE
:10025000FFFFFFFFFFFFFFFFFFFFFFFFFFFFFFFFAE
:10026000FFFFFFFFFFFFFFFFFFFFFFFFFFFFFFFF9E
:10027000FFFFFFFFFFFFFFFFFFFFFFFFFFFFFFFF8E
:10028000FFFFFFFFFFFFFFFFFFFFFFFFFFFFFFFF7E
:10029000FFFFFFFFFFFFFFFFFFFFFFFFFFFFFFFF6E
:1002A000FFFFFFFFFFFFFFFFFFFFFFFFFFFFFFFF5E
:1002B000FFFFFFFFFFFFFFFFFFFFFFFFFFFFFFFF4E
:1002C000FFFFFFFFFFFFFFFFFFFFFFFFFFFFFFFF3E
:1002D000FFFFFFFFFFFFFFFFFFFFFFFFFFFFFFFF2E
:1002E000FFFFFFFFFFFFFFFFFFFFFFFFFFFFFFFF1E
:1002F000FFFFFFFFFFFFFFFFFFFFFFFFFFFFFFFF0E
:1003000080B582B000AF44F21C63C0F2000318460F
:1003100001F0C4FB44F22C63C0F2000307F10702B2
:100320001846114603F048F844F23063C0F2000367
:10033000FA791846114601F0B1FBE4E780B584B0C4
:1003400000AFF860B9607A604FF416504FF00001CA
:100350004FF0000200F01EF87B6803F10103B8685B
:10036000194600F087F87B68184607F11007BD466C
:1003700080BD00BF80B582B000AF07F1070318460B
:100380004FF0010100F0A4F8FB79184607F10807C7
:10039000BD4680BD80B485B000AF786013460A4684
:1003A000FA70BB704FF44043C4F20F034FF4404265
:1003B000C4F20F02D2F8C42042F00802C3F8C420ED
:1003C0004FF44043C4F20003F978BA780A43D2B23A
:1003D00062F07C02D2B21A7343F67003C0F23903A2
:1003E0007A68B3FBF2F3FB604FF44043C4F20003BE
:1003F000FA684FEA1222D2B21A714FF44043C4F2A3
:100400000003FA68D2B21A704FF44043C4F20003FA
:100410004FF44042C4F20002127BD2B202F07F02DB
:10042000D2B21A734FF44043C4F200034FF00702F4
:100430001A724FF44043C4F202034FF000029A6074
:100440004FF44043C4F202034FF00002DA604FF46D
:100450004043C4F202034FF001029A604FF440435C
:10046000C4F202034FF00102DA6007F11407BD463F
:1004700080BC704780B485B000AF786039603B685D
:10048000FB604FF00003FB6019E000BF4FF44043F6
:10049000C4F200031B7DDBB203F02003002BF5D078
:1004A0004FF44043C4F200037A6812781A707B68F4
:1004B00003F101037B60FB6803F10103FB60FA6851
:1004C0003B689A42E1D307F11407BD4680BC7047F0
:1004D00080B485B000AF786039603B68FB604FF056
:1004E0000003FB601AE000BF4FF44043C4F2000376
:1004F0001B7DDBB203F00103002BF5D04FF440432A
:10050000C4F200031B78DAB27B681A707B6803F1CF
:1005100001037B60FB6803F10103FB60FA683B6841
:100520009A42E0D307F11407BD4680BC704700BF74
:1005300080B582B000AF4FF44043C4F200039B6823
:100540003B603B6803F00E03022B22D14FF0000307
:100550007B6010E04FF44043C4F2000340F2080215
:10056000C1F2000211687A688A1812781A707B68E2
:1005700003F101037B6040F20803C1F200035A68F3
:100580007B689A42E6D840F20803C1F200031B6977
:1005900098473B6803F00E030C2B1BD14FF44043EC
:1005A000C4F200031B78DAB240F29403C1F20003F4
:1005B0001A7040F20803C1F200039A6840F29403F3
:1005C000C1F200031B78137040F20803C1F200036C
:1005D0009B6998473B6803F00E03042B40F0EB81C6
:1005E00040F20803C1F200031B7B032B00F274816D
:1005F00001A252F823F000BF0906000037060000F0
:10060000B1060000830700004FF44043C4F200032A
:100610001B78DAB240F29403C1F200031A7040F280
:100620000803C1F200039A6840F29403C1F2000388
:100630001B781370B9E14FF44043C4F200031B78F8
:10064000DAB240F29403C1F200031A704FF440434F
:10065000C4F200031B78DAB240F29403C1F2000343
:100660005A704FF44043C4F200031B78DAB240F2F0
:100670009403C1F200039A704FF44043C4F20003A4
:100680001B78DAB240F29403C1F20003DA7040F250
:100690000803C1F200039B681A4640F29403C1F2BA
:1006A0000003104619464FF0040200F0C1FC7CE143
:1006B0004FF44043C4F200031B78DAB240F29403D3
:1006C000C1F200031A704FF44043C4F200031B78D8
:1006D000DAB240F29403C1F200035A704FF440437F
:1006E000C4F200031B78DAB240F29403C1F20003B3
:1006F0009A704FF44043C4F200031B78DAB240F220
:100700009403C1F20003DA704FF44043C4F20003D3
:100710001B78DAB240F29403C1F200031A714FF46D
:100720004043C4F200031B78DAB240F29403C1F2F2
:1007300000035A714FF44043C4F200031B78DAB24D
:1007400040F29403C1F200039A714FF44043C4F2A3
:1007500000031B78DAB240F29403C1F20003DA71AD
:1007600040F20803C1F200039B681A4640F294036A
:10077000C1F20003104619464FF0080200F058FC81
:1007800013E14FF44043C4F200031B78DAB240F2A5
:100790009403C1F200031A704FF44043C4F2000303
:1007A0001B78DAB240F29403C1F200035A704FF49E
:1007B0004043C4F200031B78DAB240F29403C1F262
:1007C00000039A704FF44043C4F200031B78DAB27E
:1007D00040F29403C1F20003DA704FF44043C4F2D4
:1007E00000031B78DAB240F29403C1F200031A71DD
:1007F0004FF44043C4F200031B78DAB240F2940392
:10080000C1F200035A714FF44043C4F200031B7855
:10081000DAB240F29403C1F200039A714FF44043FC
:10082000C4F200031B78DAB240F29403C1F2000371
:10083000DA714FF44043C4F200031B78DAB240F29D
:100840009403C1F200031A724FF44043C4F2000350
:100850001B78DAB240F29403C1F200035A724FF4EB
:100860004043C4F200031B78DAB240F29403C1F2B1
:1008700000039A724FF44043C4F200031B78DAB2CB
:1008800040F29403C1F20003DA724FF44043C4F221
:1008900000031B78DAB240F29403C1F200031A732A
:1008A0004FF44043C4F200031B78DAB240F29403E1
:1008B000C1F200035A7340F20803C1F200039B68BF
:1008C0001A4640F29403C1F20003104619464FF055
:1008D0000E0200F0ADFB68E04FF44043C4F20003A9
:1008E0001B78DAB240F29403C1F200031A704FF49D
:1008F0004043C4F200031B78DAB240F29403C1F221
:1009000000035A704FF44043C4F200031B78DAB27C
:1009100040F29403C1F200039A704FF44043C4F2D2
:1009200000031B78DAB240F29403C1F20003DA70DC
:100930004FF44043C4F200031B78DAB240F2940350
:10094000C1F200031A714FF44043C4F200031B7854
:10095000DAB240F29403C1F200035A714FF44043FB
:10096000C4F200031B78DAB240F29403C1F2000330
:100970009A714FF44043C4F200031B78DAB240F29C
:100980009403C1F20003DA7140F20803C1F20003DC
:100990009B681A4640F29403C1F2000310461946C0
:1009A0004FF0080200F044FB00BF40F20803C1F220
:1009B00000035B69984707F10807BD4680BD00BF8B
:1009C00080B582B000AF4FF40043C4F209039B68C6
:1009D0007B607B6803F00E03022B40F0B6804FF47F
:1009E0000043C4F2090340F20802C1F20002926B14
:1009F00012781A704FF40043C4F2090340F208025F
:100A0000C1F20002926B52781A704FF40043C4F2A4
:100A1000090340F20802C1F20002926B92781A7048
:100A20004FF40043C4F2090340F20802C1F200028D
:100A3000926BD2781A704FF40043C4F2090340F26B
:100A40000802C1F20002926B12791A704FF400434F
:100A5000C4F2090340F20802C1F20002926B52791B
:100A60001A704FF40043C4F2090340F20802C1F2C5
:100A70000002926B92791A704FF40043C4F209039A
:100A800040F20802C1F20002926BD2791A704FF460
:100A90000043C4F2090340F20802C1F20002926B63
:100AA000127A1A704FF40043C4F2090340F20802AC
:100AB000C1F20002926B527A1A704FF40043C4F2F2
:100AC000090340F20802C1F20002926B927A1A7096
:100AD0004FF40043C4F2090340F20802C1F20002DD
:100AE000926BD27A1A704FF40043C4F2090340F2B9
:100AF0000802C1F20002926B127B1A704FF400439D
:100B0000C4F2090340F20802C1F20002926B527B68
:100B10001A704FF40043C4F2090340F20802C1F214
:100B20000002926B927B1A704FF40043C4F20903E7
:100B300040F20802C1F20002926BD27B1A7040F2BE
:100B40000803C1F200039B6C98477B6803F00E0317
:100B50000C2B1BD14FF40043C4F209031B78DAB20B
:100B600040F2A403C1F200031A7040F20803C1F27C
:100B700000031A6C40F2A403C1F200031B78137047
:100B800040F20803C1F200031B6D98477B6803F035
:100B90000E03042B40F0EB8140F20803C1F2000386
:100BA00093F84430032B00F2738101A252F823F032
:100BB000C10B0000EF0B0000690C00003B0D0000B2
:100BC0004FF40043C4F209031B78DAB240F2A403E5
:100BD000C1F200031A7040F20803C1F200031A6C5C
:100BE00040F2A403C1F200031B781370B9E14FF483
:100BF0000043C4F209031B78DAB240F2A403C1F245
:100C000000031A704FF40043C4F209031B78DAB2F0
:100C100040F2A403C1F200035A704FF40043C4F23F
:100C200009031B78DAB240F2A403C1F200039A7000
:100C30004FF40043C4F209031B78DAB240F2A40374
:100C4000C1F20003DA7040F20803C1F200031B6C2A
:100C50001A4640F2A403C1F20003104619464FF0B1
:100C6000040200F0E5F97CE14FF40043C4F209030B
:100C70001B78DAB240F2A403C1F200031A704FF4F9
:100C80000043C4F209031B78DAB240F2A403C1F2B4
:100C900000035A704FF40043C4F209031B78DAB220
:100CA00040F2A403C1F200039A704FF40043C4F26F
:100CB00009031B78DAB240F2A403C1F20003DA7030
:100CC0004FF40043C4F209031B78DAB240F2A403E4
:100CD000C1F200031A714FF40043C4F209031B78F8
:100CE000DAB240F2A403C1F200035A714FF4004398
:100CF000C4F209031B78DAB240F2A403C1F2000384
:100D00009A714FF40043C4F209031B78DAB240F23F
:100D1000A403C1F20003DA7140F20803C1F2000338
:100D20001B6C1A4640F2A403C1F200031046194698
:100D30004FF0080200F07CF913E14FF40043C4F2D5
:100D400009031B78DAB240F2A403C1F200031A705F
:100D50004FF40043C4F209031B78DAB240F2A40353
:100D6000C1F200035A704FF40043C4F209031B7828
:100D7000DAB240F2A403C1F200039A704FF40043C8
:100D8000C4F209031B78DAB240F2A403C1F20003F3
:100D9000DA704FF40043C4F209031B78DAB240F270
:100DA000A403C1F200031A714FF40043C4F2090313
:100DB0001B78DAB240F2A403C1F200035A714FF477
:100DC0000043C4F209031B78DAB240F2A403C1F273
:100DD00000039A714FF40043C4F209031B78DAB29E
:100DE00040F2A403C1F20003DA714FF40043C4F2ED
:100DF00009031B78DAB240F2A403C1F200031A72AD
:100E00004FF40043C4F209031B78DAB240F2A403A2
:100E1000C1F200035A724FF40043C4F209031B7875
:100E2000DAB240F2A403C1F200039A724FF4004315
:100E3000C4F209031B78DAB240F2A403C1F2000342
:100E4000DA724FF40043C4F209031B78DAB240F2BD
:100E5000A403C1F200031A734FF40043C4F2090360
:100E60001B78DAB240F2A403C1F200035A7340F2D5
:100E70000803C1F200031B6C1A4640F2A403C1F23E
:100E80000003104619464FF00E0200F0D1F868E05A
:100E90004FF40043C4F209031B78DAB240F2A40312
:100EA000C1F200031A704FF40043C4F209031B7827
:100EB000DAB240F2A403C1F200035A704FF40043C7
:100EC000C4F209031B78DAB240F2A403C1F20003B2
:100ED0009A704FF40043C4F209031B78DAB240F26F
:100EE000A403C1F20003DA704FF40043C4F2090313
:100EF0001B78DAB240F2A403C1F200031A714FF476
:100F00000043C4F209031B78DAB240F2A403C1F231
:100F100000035A714FF40043C4F209031B78DAB29C
:100F200040F2A403C1F200039A714FF40043C4F2EB
:100F300009031B78DAB240F2A403C1F20003DA71AC
:100F400040F20803C1F200039B681A4640F2A40372
:100F5000C1F20003104619464FF0080200F068F88D
:100F600000BF40F20803C1F20003DB6C984707F1B1
:100F70000807BD4680BD00BF254B2122C3F8A02134
:100F80001A46D2F8A011224B4806FAD50022C3F81F
:100F90000C210922C3F884200122C3F88020AA2250
:100FA000C3F88C205522C3F88C20D3F88810184A37
:100FB0004905FAD52323C2F8A4300123C2F8A03092
:100FC000AA23C2F8AC305523C2F8AC30D2F8A8102E
:100FD0000F4B4805FAD540F20112C3F8042102F57F
:100FE0008072C3F808210122C3F800210222C3F84D
:100FF000A821084AC3F8C4204FF48072C3F8C8215E
:1010000045F23A021A60044B00229A60704700BF12
:1010100000C00F40DE87280400ED00E0002008B586
:101020000146024600F064FDBDE80840FFF768B9DC
:1010300003F084BA034600E001395A1812F8012C73
:10104000302AF9D03E2AF7D02E2A08BF01390846A7
:10105000704710B5425C4318342A1EDD352A05D18D
:101060001C4614F8012F302AFBD0C2B1302413F8EB
:10107000012C392A02D103F8014DF8E7013203F8B7
:10108000012C0378302B04D10BE0425C43185A70DA
:1010900001390029F9DA012010BD002010BD1046E9
:1010A00010BD002010BD30B500230A256FF00904E3
:1010B00000E0104690FBF5F2303004FB0200C8540B
:1010C000013B981DF5D130BD0EB430B590B013ABD7
:1010D00053F8044B00212822054605A80F9302F07F
:1010E000E1F90A2308936FF0004307930F9B05A8CB
:1010F0000193104B4FF0FF3202936FF000430094C6
:10110000059500F043FD079B0446013B002B079328
:1011100005DB059B002203F8012B059303E000206B
:1011200005A902F0B3FA204610B0BDE8304003B084
:10113000704700BF391100002DE9F04F0D684C6871
:101140009FB0214605902846CDE9060107999B46A8
:10115000C1F30F4323F00F035B0416465B0C47F605
:10116000F0729342DDF8A4A02ED10023069CF37008
:10117000C1F313031C434FF06E031BD1737066233E
:10118000B370C1F3076303F080036922DBB23270EE
:101190000D460BB1884B12E01BF0020F06D1874BB6
:1011A000874A1BF0040F08BF134600E0854B289DBB
:1011B0002B6006E033706122B370814B7270289C03
:1011C0002360032400F036BC0598612800F05982A2
:1011D000412800F05682284621460022002303F0D1
:1011E00025F920B1012104F100440A9100E00A90A0
:1011F000284621460022002303F0FAF8002840F098
:101200001F821DAA2846214602F049FB1D9A40F282
:101210002D175743A7F5AA573C3F4FF47A7397FB16
:10122000F3F7CDE91001BA1A0020674902F068FB14
:10123000002FCDE91A0106DA59A3D3E900237C4235
:10124000CDE9162306E0614B4FF00002CDE91623ED
:1012500016D03C46E20709D5DDE91A01DDE916237F
:1012600002F050FD012CCDE91A0109D0DDE916018B
:10127000DDE9162302F046FD6410CDE91601E9E729
:10128000DDE91001DDE91A2302F0D8FDCDE91201F4
:1012900010E0DDE9120100224D4B02F033FDCDE9F3
:1012A0001201DDE91A010022494B02F0C7FDCDE928
:1012B0001A01013FDDE912013BA3D3E9002303F04A
:1012C000B5F80028E5D110E0DDE912010022404B1D
:1012D00002F0B4FDCDE91201DDE91A0100223C4B18
:1012E00002F010FDCDE91A010137DDE9120130A34A
:1012F000D3E9002303F0F4F80028E5D1DDE9120179
:1013000003F020F87B4213EA270338BF3B460E96D2
:10131000CDF83CB00B93D3460646BA46304603F0B0
:101320005FF81D9AC2EB0A0202F0EAFA00220023DB
:10133000BAF1000FCDE91201CDE914234ADA18A55C
:10134000D5E90045CDE91645CDE91823DDE9162399
:10135000DDE91601002214461D4602F023FEDDE9F8
:10136000188902460B464046494602F015FFCDE972
:101370001801CDE91645DDE916010022134B02F0F4
:10138000C1FC02460B4600200F4902F00BFE002272
:101390000E4B02F053FDCDE9180127E0AFF30080BA
:1013A0009A9999999999C93F00000000006AF840FC
:1013B0000000000080842E416A4600003A4600008A
:1013C000C7460000384600000000F03F000014400F
:1013D0000000244094494FF000004FF000024FF00D
:1013E0000003CDE91601CDE918237AD00B9FFB0746
:1013F00042D5DDE91201DDE91823DDE91445CDE927
:101400000845DDE91645DDE9188902F07BFC424616
:10141000CDE90C014B462046294602F0BDFE0246AE
:101420000B46DDE9080102F06DFC02460B46DDE9E2
:101430000C0102F0B1FECDE91401DDE91201DDE994
:10144000162302F05FFCCDE91201DDE91223DDE98C
:101450001201002214461D4602F0A4FDDDE91489A4
:1014600002460B464046494602F096FE012FCDE962
:101470001401CDE9124534D0DDE91889DDE9160102
:1014800002460B46DDE9184502F086FE22462B4651
:1014900002F082FE02460B464046494602F032FC0C
:1014A000CDE91801DDE91601DDE9162302F02AFC79
:1014B000CDE91601DDE91623DDE916010022144607
:1014C0001D4602F06FFDDDE9188902460B464046D5
:1014D000494602F061FE7F10CDE91801CDE91645BD
:1014E00085E7DDE91201DDE9102302F0CDFF08B93F
:1014F000013E13E7DDE91001DDE9122302F052FDA0
:10150000CDE91001DDE91001DDE9142302F04AFD07
:10151000CDE91001DDE91001DDE91A2302F08EFCAE
:101520003FA3D3E90023CDE91001DDE9100102F06A
:10153000E9FBCDE91001DDE9100102F003FFDDE96F
:101540001089044602F04CFF02460B4640464946CD
:1015500002F028FD32A3D3E9002302F0D3FBCDE94A
:101560001001DDE9100102F0EDFE57463546DA467E
:101570000E9EDDF83CB0804604E008F5742808F5BE
:101580001078013CB8F1000FF7DB05E0A8F57428EE
:10159000A8F51078013400E0244A9045234BF5DC8F
:1015A00004E004F5742404F51074013D002CF8DB0C
:1015B00004E0A4F57424A4F5107401359C42F8DC11
:1015C0001B4B29469D4212DC1A4A1B4994FBF2F040
:1015D00098FBF2F201FB004401FB02880A2303FBA3
:1015E000050503FB042403FB08F8013F2EE00F4B25
:1015F0009D422BDD0A236FF0090095FBF3F500FBFC
:1016000005110E4A013702FB014191FBF3F400FB87
:10161000041102FB018808F1050898FBF3F815E0B6
:101620000000000080842E41000014403F420F0063
:101630009F860100A08601006079FEFF40420F00F6
:101640004FF000086FF004074446454631464FF01E
:101650003009284601F8069BFFF725FD06F10C012D
:101660002046FFF720FD06F112014046FFF71BFD63
:101670000A9D0023053786F81390337545EA8707DE
:1016800000E00027FD0703D59E4B289C23600CE05B
:101690001BF0020F06D19C4B9C4A1BF0040F08BFA5
:1016A000134600E09A4B289D2B60059C042327F0ED
:1016B0000107612C97FBF3F714D008DC452C5BD0B5
:1016C000472C00F09181412C40F08C810AE0059D6F
:1016D000662D00F0BB80672D00F08681652D40F0FF
:1016E000818149E0DDF81CE0069A0020CEF3130367
:1016F0001043CEF30A521946A2F57E73073B1AB97E
:1017000050EA010408BF0023DAF8004084B91BF056
:10171000080F0DD17F48059D7F49002A14BF312253
:101720003022612D18BF01463046FFF7CDFC13E093
:101730007A4D7B4FDDF814E0CDE90001BEF1610F79
:1017400018BF3D460293002A14BF31223022304692
:1017500029462346FFF7B8FC044607986B4AC0F3B6
:10176000076303F080036749DBB2289D002B14BF99
:101770000B4613462B605DE1DAF80030112B05DDD6
:101780002B9C113B23601123CAF80030DAF800408B
:1017900002341BF4006504D130462146FFF759FCA2
:1017A0003F1873783370DAF8003023B940F6080335
:1017B0000BEA030313B12E23737000E001242B986E
:1017C0000368002B02DD3E23335501343DB11BF08D
:1017D000080F04D121463046FFF72CFC0446059D36
:1017E000631C002F355504F1020402DA7F422D22DA
:1017F00000E02B22B7F57A7FF25423460ADB4FF440
:101800007A72484997FBF2F201FB027702F130034A
:101810003355631C632F0ADD642297FBF2F202F159
:101820003001F1546FF0630101FB027701330A22AA
:1018300097FBF2F202F13001F15430376FF00901F9
:1018400001FB0272F61872709C1CF3E0002FDAF8AC
:10185000003047DA7D425A1C954209DD302333704F
:101860002E2373702B9CDAF800302360022434E0BE
:10187000DF19BC1C122C03DD2B9C113F27601324A5
:101880001BF4006F09D130462146FFF7E2FB20B17F
:101890000134013D01D173780BE0012D234610D1B5
:1018A00003E0F15CF2185170013B002BF9DC0134CC
:1018B000302333702E2373700FE0F15CF2189170B7
:1018C000013B002BF9DC302333702A982E237370F0
:1018D000013D3C23B370023405602B9D2B68002B27
:1018E00039DC6BE0FD18AC1C122C0BF4006350DDEE
:1018F000D3B930461321FFF7ACFBA8B1013714244C
:1019000013E000BF6A4600003A460000C7460000E8
:1019100038460000444600003C4600004C460000AB
:101920005B46000018FCFFFF1324611E00238F425A
:10193000324614DA51780133BB4202F8011BF9DD5B
:10194000F3192E225A70DAF800302B9DFF18113F40
:101950002F60002F32D03E23335501342EE05078D3
:1019600001338B4202F8010BF9DB33193C223F1B98
:101970002A9D03F8012C02372E232F603355DAF805
:101980000020631CCAB12B9D02342A603E22F2540F
:1019900014E033B930462146FFF75BFB08B101374D
:1019A000EC1C3246002351780133BB4202F8011B84
:1019B000F9DDF7192E237B7000E01C461BF4006F45
:1019C00008D01BF0080F35D121463046FFF732FB17
:1019D00004462FE0DAF8003063BB1BF0080F29D172
:1019E000013C27E067240594DAF800304BF4006BE3
:1019F000002B02DC0123CAF80030DAF800101129AC
:101A000001DC013100E012213046FFF722FBDAF859
:101A100000303F189F4206DA3C1D04DBFA439B1856
:101A2000CAF8003012E7059D013B023DCAF80030BC
:101A30000595A1E620461FB0BDE8F08FAFF300800A
:101A4000F0B58FB0064614460D462822002104A8A2
:101A50001F4601F027FD0A2307936FF0004306930A
:101A60000D4B049600266A1E029304A833468DE8A7
:101A7000900000F08BF8069B0446013BB3420693AE
:101A800002DB049B1E7003E0304604A901F0FEFD5A
:101A900020460FB0F0BD00BF391100000FB473B580
:101AA00006AB53F8045B012168462A460193FFF711
:101AB000C7FF0028044613DD461C304601F08AFFAC
:101AC000009068B131462A46019BFFF7B9FF074BEA
:101AD0000099D86B2246FEF731FC009801F0D8FF40
:101AE0002046BDE87C4004B0704700BFBC00001039
:101AF00010B500214FF4A0721E4801F0D3FCC020A5
:101B000001F0CCFF1C4C0021C022206001F0CAFC77
:101B1000184B226803F5A0715A62283318328B42A1
:101B2000FAD100201549134A01F057FE00214FF465
:101B300080534FF480620F4801F04EFC01201049A1
:101B4000104A01F04AFE00214FF480534FF48062A6
:101B50000C4801F041FC022009490B4A01F03DFE0E
:101B6000094800214FF480624FF48053BDE81040D3
:101B700001F032BCBC000010B80000106C46000040
:101B80006E460000E40000100C0100102DE9F04F3B
:101B9000B1B03B9C0646CDE90E23DDF8E8A01E94CB
:101BA000002500F092BE25280AF1010A02D1524612
:101BB00000251AE00D9ADDE90E45D317571CA24205
:101BC00073EB05050D9780F28186B368013B002B0E
:101BD000B36005DB336803F8010B336000F076BEB9
:101BE000314601F053FD00F071BE104612F8013B82
:101BF0002B2B1C4692460DD004D8202B0DD0232B26
:101C000014D10DE02D2B02D0302B0FD10BE045F07D
:101C10000105EAE745F00205E7E745F00405E4E7DA
:101C200045F00805E1E745F40075DEE72A2B0CD105
:101C30001E9F39683B1D002902DA494285F00105E3
:101C4000447800F1020A1E930BE000210A20A4F15F
:101C50003003DAB2092A04D800FB01311AF8014B2B
:101C6000F5E721EAE1712E2C069121D19AF8004086
:101C70002A2C07D11E9C221D21689AF801400AF1E6
:101C8000020A0FE0504600210A27A4F13003DAB21D
:101C9000092A0AF1010A04D8447807FB01315046A9
:101CA000F3E71E9A002904DB45F010050F4601E01A
:101CB0001E9A00276C2C0ED19AF800406C2C06D18D
:101CC0009AF8014045F060050AF1020A03E00AF1C2
:101CD000010A45F020054C2C01D0712C04D11AF8D2
:101CE000014B45F060051CE0682C0FD19AF80040CC
:101CF000682C06D19AF8014045F480750AF1020A71
:101D00000FE00AF1010A45F080050AE06A2C02D1D1
:101D100045F0400503E07A2C01D0742C01D11AF86B
:101D2000014B672C19DC652C80F28C82582C00F05A
:101D3000A1810BDC452C00F0858204DC002C00F036
:101D4000AA80412C07E0472C20D17BE2632C19D0DC
:101D500000F33B82612C19D16FE2702C00F0DC8122
:101D600007DC6E2C00F09C8000F3E081692C0DD123
:101D70002BE2752C00F00682782C00F0A481732CE5
:101D800004D1ADE0171D1E97146800E01E9206985E
:101D9000471E15F0010B33D10D9915F4007F0CBFD0
:101DA00020253025CA174FF000084FF00009089190
:101DB00009921FE0DDE9082312EB080243EB090357
:101DC000DDE90E01824273EB01010DDAB368013BDC
:101DD000002BB36004DB336803F8015B336003E07E
:101DE0002846314601F052FC0122002318EB02087C
:101DF00049EB03090D98013F00EB0803DAD50D9379
:101E00000D9ADDE90E01D317551C824273EB0101D7
:101E10000D950DDAB368013B002BB36004DB33682A
:101E200003F8014B336003E02046314601F02EFCFD
:101E3000BBF1000F22D100F049BDDDE9082312EB10
:101E4000080243EB0903DDE90E01824273EB010155
:101E50000DDAB368013B002BB36004DB336803F891
:101E6000015B336003E02020314601F00FFC0122CA
:101E7000002318EB020849EB030909E00D9B3C46DF
:101E8000DD1709954FF000084FF000090893202551
:101E9000013CD2D5E7E00AF1FF3A1E9200F016BDF0
:101EA00002F1040315F0400F1E9306D00D9B11683C
:101EB000DA170B604A6000F009BDA80613680BD45E
:101EC000E90503D50D9F1F7000F000BD2A0603D55C
:101ED0000D9C1C8000F0FABC0D9D1D6000F0F6BC4E
:101EE000D2F80080A14B141DB8F1000F08BF98462E
:101EF00040461E9401F094FA0446E80602D5BC421E
:101F0000A8BF3C46069815F0010BC4EB00073FD173
:101F100015F4007F0CBF2025302500230022CDE9D9
:101F200008230D9B07F1FF39D8170693079023E08C
:101F3000DDE90601DDE90823121843EB0103DDE9C1
:101F40000E01824273EB01010DDAB368013B002BF5
:101F5000B36004DB336803F8015B336003E02846B9
:101F6000314601F093FB0120DDE90823002112181E
:101F700043EB0103CDE908230899C1EB0903002BCA
:101F8000D6DA0D9D27EAE773ED180D95C3EB090727
:101F900000230022CDE908230D9BDD17069307954A
:101FA00027E0DDE90601DDE90823121843EB010310
:101FB000DDE90E01824273EB010111DAB368089A80
:101FC000013B002BB36008EB020305DB1A78336892
:101FD00003F8012B336003E01878314601F056FB1B
:101FE0000120DDE908230021121843EB0103CDE9AC
:101FF000082308998C42D4DC0D9D002CA8BF2D1914
:102000000D95BBF1000F22D100F060BCDDE9082383
:1020100012EB080243EB0903DDE90E01824273EB88
:1020200001010DDAB368013B002BB36004DB3368B8
:1020300003F8015B336003E02020314601F026FB0A
:102040000122002318EB020849EB030909E00D9B6C
:102050003C46DD1709954FF000084FF00009089342
:102060002025013CD2D50D9C002FA8BFE4190D946A
:1020700000F02CBC690608D5D31D23F0070303F13B
:1020800008001E90D3E9008905E01368111D1E9118
:1020900098464FF000092A0602D51FFA88F803E097
:1020A000EB0503D55FFA88F84FF00009304A314B51
:1020B00015F0080F0CBF9E469646E80640F1E980F1
:1020C00025F40075E5E0690608D5D31D23F0070364
:1020D00003F108021E92D3E9008905E0131D1E9347
:1020E00013684FF0000998462A0602D51FFA88F8AF
:1020F00003E0EB0503D55FFA88F84FF000091E4AAC
:102100001C4B15F0080F0CBF9E469646E80640F1A2
:10211000C28025F40075BEE01368101D1E9098461D
:102120004FF000091549DFF850E0BBE0690608D51B
:10213000D31D23F0070303F108011E91D3E90089A1
:1021400005E0131D1E9313684FF0000998462A06F8
:1021500002D51FFA88F803E0EB0503D55FFA88F88B
:102160004FF0000915F0080F054A58E070460000CE
:1021700077460000C74600007A46000090460000FF
:102180007D460000680608D5D31D23F0070303F140
:1021900008001E90D3E9008905E01368111D1E9107
:1021A00098464FF00009290602D51FFA88F803E087
:1021B000EA0503D55FFA88F84FF0000915F010031F
:1021C0006BD025F40075002168E06B0608D5D31D9F
:1021D00023F0070303F108021E92D3E9002304E071
:1021E0001168131D1E930A46CB17280601D512B29B
:1021F00002E0E90501D552B2D317002A73F10000BD
:1022000006DAD2F1000863EB4309DFF8B0E20DE033
:10221000A8079046994607D4A44A15F0040FA44B8A
:102220000CBF9E46964601E0DFF894E215F01003DD
:1022300037D025F40075002134E0E9065CBF45F095
:1022400010050D2745F4806515F0100F08BF06270F
:1022500002F1070315F0200123F007030CD003F16E
:1022600008011E91D3E900234FF00008CDE92A238D
:102270004FF0000900210AE003F108021E92D3E9A1
:102280000023CDE92A234FF000084FF000098E46C5
:1022900008E0884906E0884904E01946DFF810E2C2
:1022A00000E019460D98DDE90E23121A63EBE07386
:1022B000CDE908234FF0FF332C97CDF8B4E02E93EF
:1022C0002F930022552022ABD0540132202AFAD17C
:1022D00015F4826F01D101232C93672C15DC652C3A
:1022E00080F2C080472C00F0BD8006DC412C00F05D
:1022F000B980452C40F0C680B4E0612C00F0B2807B
:10230000642C00F0A880582C0DE0702C1FD006DC47
:10231000692C00F0A0806F2C40F0B4802EE0752C6A
:1023200000F09980782C40F0AD8010E008F00F03A9
:10233000CB5C22AA0BF802304FEA181242EA09726B
:102340004FEA19130BF1010B9046994601E04FF04B
:10235000000B58EA0902E9D196E008F00703303390
:1023600022AA0BF802304FEAD80242EA49724FEA39
:10237000D9030BF1010B9046994601E04FF0000B99
:1023800058EA0903E9D17FE04FEA980747EA8970E4
:102390004FEA99015FEA59034FEA38021A901B91FC
:1023A000DDE91A01121843EB0103110941EA037731
:1023B000180912971390DDE91201121843EB01037B
:1023C000110A41EA0367180A14971590DDE9140110
:1023D000121843EB0103110C41EA0347180C16973E
:1023E0001790DDE91601121843EB010300271C9337
:1023F0001D97DDE91C01121843EB0103D10841EAE6
:102400004377D8081190A7FB04011097119F06226B
:1024100004FB0711002312EB080243EB0903121A15
:1024200063EB0103100940EA03711F091891199722
:10243000DDE91023DDE91801801841EB030108F103
:10244000300304FB103322AA0BF8023080460BF154
:10245000010B894602E04FF0000B0A2458EA0903F9
:1024600092D111E02DAB00932CAB01932EAB0293D4
:102470002FAB039320462AA922AA2B463C9CA047B7
:10248000834601E04FF0000B15F48067209719D0C8
:1024900000232C932E9B002B01DD013B2C932F9BC3
:1024A000002B15DD2C9A013BD31810E03A460000B2
:1024B000C74600007F460000904600006A460000C4
:1024C000384600002C9BB3EB0B0348BF00232C9332
:1024D0002D982C9C00F0A4FF069F5C443B1B15F438
:1024E0000072C0EB03091F9209D0002700220023CD
:1024F000FC17CDE906230A970B94AC4659E0EB078D
:1025000021D51F9FF2E7DDE90623DDE908018242BC
:1025100073EB01010DDAB368013B002BB36004DB00
:10252000336803F8017B336003E02020314601F07B
:10253000ADF80120DDE906230021121843EB010369
:10254000CDE9062305E000220023CDE906234C4611
:102550002027013CD7D529EAE97709F1FF33C7EBFA
:102560000309C3E7DDE90A45DDE90623121943EB58
:102570000503DDE90845A24273EB050510DAB368EF
:10258000013B002BB36004DB336803F8010B3360BD
:1025900006E03146CDF814C001F078F8DDF814C03B
:1025A0000124DDE906230025121943EB0503CDE9DB
:1025B00006232D9B069D13F8010B07EB05084446E7
:1025C0002D930028CED11CF0010521953ED11F9FEF
:1025D00000230022CDE906234346002F0CBF202410
:1025E0003024DF1709F1FF35CDF828800B9723E061
:1025F000DDE90A01DDE90623121843EB0103DDE9F9
:102600000801824273EB01010DDAB368013B002B34
:10261000B36004DB336803F8014B336003E020460A
:10262000314601F033F80120DDE9062300211218BC
:1026300043EB0103CDE9062306996B1A002BD7DA89
:1026400029EAE97308EB0304C3EB0509209A002A81
:1026500040F0998000220023E517CDE906230A9473
:102660000B953027B8E022ABF85C3C2827D03E28F9
:102670006FD15BE0DDE90A01DDE90623121843EBC7
:102680000103DDE90801824273EB01010DDAB36851
:10269000013B002BB36004DB336803F8018B33602C
:1026A00003E03020314600F0F1FF0120DDE9062390
:1026B0000021121843EB0103CDE9062308E00022B4
:1026C0000023CDE90623E5170A940B954FF0300857
:1026D0002E9B0698013B002B04EB00052E93C9DAD4
:1026E00035E0DDE90A01DDE90623121843EB0103B9
:1026F000DDE90801824273EB01010DDAB368013BA9
:10270000002BB36004DB336803F8018B336003E014
:102710003020314600F0BAFF0120DDE90623002118
:10272000121843EB0103CDE9062308E00022002341
:10273000CDE90623E5170A940B954FF030082F9B3F
:102740000698013B002B04EB00052F93C9DAA8463D
:1027500016E02246E31704F10108DDE90845A2422C
:1027600073EB05050CDAB368013B002BB36004DBA7
:10277000336803F8010B336002E0314600F086FF56
:102780000137444600E000275F45FFF66CAF63E089
:10279000DDE90A01DDE90623121843EB0103DDE957
:1027A0000801824273EB01010DDAB368013B002B93
:1027B000B36004DB336803F8017B336003E030204F
:1027C000314600F063FF0120DDE9062300211218E5
:1027D00043EB0103CDE906232C9B0699013B002B1B
:1027E00004EB01052C93D3DA00220023EF175C469B
:1027F000CDE90A230695079726E0DDE90601DDE924
:102800000A23013C121843EB0103DDE9080182426F
:1028100073EB01010FDAB368013B002BB36022AB0D
:1028200005DB1A5D336803F8012B336003E0185DA4
:10283000314600F02BFF0120DDE90A2300211218A8
:1028400043EB0103CDE90A23002CD6DCBBF1000FDA
:10285000ACBF05EB0B042C1C219A2ABB33E0DDE94D
:102860000601DDE90A23121843EB0103DDE9080143
:10287000824273EB01010DDAB368013B002BB360B8
:1028800004DB336803F8017B336003E0202031462A
:1028900000F0FCFE0120DDE90A230021121843EBC1
:1028A0000103CDE90A2308E000220023CDE90A2331
:1028B000E71707974D4606942027013DCFD5B9F17C
:1028C000000FA8BF4C440D9D2D190D959AF80000DE
:1028D00000287FF468A90D9831B0BDE8F08F00BFE3
:1028E0000B4B1B1893F880309A0601D5303809E05D
:1028F0001A0701D5573805E0DB0601D5373801E066
:102900004FF0FF308842A8BF4FF0FF30704700BF44
:10291000C84600002DE9F74FDDF830909846044690
:102920000D4693464FF0FF33634F00E05346626815
:1029300003F1010A013A002A626004DB226812F8FE
:10294000016B226005E02046019300F0BFFD019B72
:102950000646BA1992F88020D007E7D4711C00F01F
:10296000A180B9F1000F2BF440775BDD1BF0200F45
:1029700018D02B2E03D02D2E14D147F4007703F15D
:10298000020A6368013B002B636004DB236813F8D1
:10299000016B236003E0204600F098FD0646B9F184
:1029A00001093FD0302E3DD1636847F48077013B69
:1029B000002B09F1FF390AF1010B636004DB236886
:1029C00013F8016B236003E0204600F07FFD06460C
:1029D000B9F1000F20D0782E01D0582E1CD1B8F1BB
:1029E000000F02D0B8F1100F63D1636827F480772D
:1029F000013B002B09F1FF390AF1020B636004DB94
:102A0000236813F8016B236003E0204600F05EFDAD
:102A100006464FF010084CE0B8F1000F08BF4FF029
:102A2000080846E0B8F1000F08BF4FF00A084FF061
:102A3000000B15E0636847F48077013B002B09F138
:102A4000FF3908FB0B0B0AF1010A636004DB236802
:102A500013F8016B236003E0204600F037FD0646C3
:102A6000B9F1000F05DD30464146FFF739FF002878
:102A7000E0DA3046214600F0F9FCFA0514D5FB07F0
:102A800014D4B80603D5B90548BFCBF1000B2B68A9
:102A90001A1D2A601B687A074CBFA3F800B0C3F860
:102AA00000B003E0B24601E06FF0010A5046BDE815
:102AB000FE8FDA46BBE700BFC846000000000000FA
:102AC0002DE9F04F4FF0000C9DB004461192CDF867
:102AD00014C0CDF80CC000E004990F4617F8016B44
:102AE0000497002E00F05F84252E3CD0DFF8A0C2B2
:102AF0000CEB060393F88030D80725D500E0194683
:102B00004B1C4A78A24904938A1892F88020D20775
:102B1000F5D4059D00E001356368013B002B63603F
:102B200004DB236813F8010B236002E0204600F069
:102B3000CDFC974A131893F88030DB07EBD421467D
:102B4000059500F093FCC7E76368013B002B6360C9
:102B500004DB236813F8010B236002E0204600F039
:102B6000B5FCB0427DE04B782A2B04D102310491B0
:102B70004FF0010901E04FF0000904990025854E4E
:102B80000A2009E0B54200F30E8400FB0535303D14
:102B900000F1098449F008090A461378DFF8F0C10A
:102BA00001310CEB030797F88070049117F0200FA8
:102BB000E8D119F0080F08BF6FF000456C2B05D164
:102BC00053780232049249F002090EE04C2B05D1F1
:102BD00053780232049249F0120906E0682B04D1BE
:102BE00053780232049249F00409672B14DC652BF8
:102BF0007CDA582B00F0248307DC452B76D0472B5A
:102C000074D0252B40F0CF831DE0632B35D067DCDB
:102C10005B2B40F0C8831AE3702B00F0C38208DC02
:102C20006E2B00F0A68200F3B382692B40F0BB83C9
:102C300098E2752B00F0FE82782B00F00183732B55
:102C400040F0B183B1E26368013B002B636004DBB9
:102C5000236813F8010B236002E0204600F036FCE5
:102C6000252804D1DDF814C00CF1010C97E30546CA
:102C7000214600F0FBFB681C7DE319F0080F08BF3C
:102C8000012519F0010704D1119B1A1D11921E682C
:102C900000E00026BDB986E36368013B002B63605A
:102CA00004DB236813F8010B236005E0204600F0E5
:102CB0000DFC411C00F060830FB906F8010B08F110
:102CC0000108013D01E0DDF81480002DE4DCCDF8C1
:102CD0001480002F7FF400AF039F01370397FBE6BA
:102CE00049F020020095204611A9A7E24FF0FF36D7
:102CF00000E03E466368771C013B002B636004DB09
:102D0000236813F8010B236002E0204600F0DEFB8D
:102D1000DFF87CC00CEB000393F88030DA07E8D4CE
:102D2000431C00F02983002D29F4507814DD2B2852
:102D300003D02D2810D148F400786368B71C013BFC
:102D4000002B636004DB236813F8010B236002E0AF
:102D5000204600F0BBFB013D0BA3D3E900234FF05D
:102D6000000BCDE9062300220023CDE908235E46AF
:102D7000DFF824A053E02E2810D118F0400F0DD119
:102D800048F040083CE000BF9A9999999999B93F59
:102D9000C8460000CCCCCC0C9F860100DFF8ECC20A
:102DA0000CEB000393F8803099063BD5D34548F4EB
:102DB0008078A0F1300007DC0A2118F0400F01FBF9
:102DC0000B0B1DD0013E1BE001F00AFB02460B4637
:102DD000DDE9060100F096FF02460B46DDE9080139
:102DE00001F0DAF90022CDE90801DDE90601A24B84
:102DF00001F024F8CDE9060118F0400F08BF0136B4
:102E000063680137013B002B636004DB236813F820
:102E1000010B236002E0204600F058FB013D002D2D
:102E2000A9DC57E0652801D0452853D118F4807FEC
:102E300050D0636828F4C078013B002B636004DB4A
:102E4000236813F8010B236002E0204600F03EFBEC
:102E50002B2806D02D2802D0013D013710E048F084
:102E6000800863680237013B002B636004DB236842
:102E700013F8010B236002E0204600F027FB023D1F
:102E80004FF0000A0A2315E062683038013A013D2C
:102E90000137002A48F4807803FB0A0A626004DBE9
:102EA000226812F8010B226004E02046029300F031
:102EB0000DFB029B002D07DDDFF8D0C10CEB0002FB
:102EC00092F880209206DFD418F0800F14BFCAEB6E
:102ED000060656440A257543214600F0C7FADDE987
:102EE0000801032395FBF3F3F51A2A46109300F02B
:102EF00007FDCDE90C01584601F072FA2A4600F0B0
:102F0000FFFC002ECDE9080119DA59A3D3E900230B
:102F100000221046194692469B460022574B00F06D
:102F2000F1FE02460B460020554901F03BF8002215
:102F3000524B00F083FF7642CDE906010AE04FF0E4
:102F400000024FF000036ED0CDE90623DFF82CB16C
:102F50004FF0000A00220023CDE90A23F00739D5FB
:102F6000DDE906235046594601F016F9CDE90E0178
:102F7000DDE90E23DDE90C0100F0C4FEDDE90E23DE
:102F8000CDE90C01DDE90A0100F0BCFEDDE9062314
:102F9000CDE90A01DDE9080100F0B4FEDDE90A230C
:102FA00001F0FAF85246CDE90A01DDE908015B4675
:102FB00000F0A8FE00220B46CDE9082300F0F2FF46
:102FC00002460B46DDE90A0101F0E6F8012ECDE9E3
:102FD0000A012AD052465B465046594601F0DCF8B9
:102FE000DDE9062301F0D8F802460B46DDE90601CB
:102FF00000F088FE5246CDE906015B465046594630
:1030000000F080FE4FF0000A52460B468B4600F05F
:10301000C9FF02460B46DDE9060101F0BDF8761056
:10302000CDE906019AE7CDE90A23DDE90A23DDE9C6
:103030000C0101F0B1F8DDE9082301F0ADF81AAA9E
:1030400000F02DFC1A9DDDF840C082466544B5F5C0
:10305000806F8B461A951BDD0A4B18F4007F93E8AE
:103060006000094B18BF06F1004622221A602EE0CC
:103070009A9999999999C93F0000244000001440F9
:103080000000F03FA8460000B4000010C846000051
:103090006FF47F739D420ADA0022002301F0A8F941
:1030A00028B99D4B222200251A602E460FE018F405
:1030B000007F504659462A4605D000F021FC0546BF
:1030C00001F1004603E000F01BFC05460E4618F433
:1030D000807F00F0688118F0020F0CD018F0010F0B
:1030E00040F04681119B28461A1D11921B683146FB
:1030F000C3E900013CE1284631461BAA00F0CFFBA2
:103100001B9B7E33002B1B930BDC28463146002291
:10311000002301F06DF9B8B97F4B22221A6000201C
:1031200016E0FE2B10DD002200232846314601F078
:10313000D7F97A4B7A4A002814BF10461846764BC6
:1031400022221A60006803E02846314601F0CEF8DA
:1031500018F0010F40F00C81119B1A1D11921B6891
:10316000186005E149F020020095204611A90023CE
:1031700014E0119B19F0040F03F1040211921B6873
:1031800015BFDDF814C00599A3F800C01960A3E4C9
:1031900049F020020095204611A90823FFF7BAFB49
:1031A0000746E5E029F006024CE04FF0FF37636880
:1031B0000137013B002B636004DB236813F8010B2C
:1031C000236002E0204600F081F9564A131893F874
:1031D000806016F00106EAD1411C00F0CD8019F0A4
:1031E000010818D1119B1A1D11921E6813E0013DB0
:1031F000B8F1000F01D106F8010B63680137013BFC
:10320000002B636004DB236813F8010B236002E0EA
:10321000204600F05BF9002D40F3A280421C00F034
:103220009F80DFF800C10CEB000393F88030DB07D0
:10323000DDD595E00095204611A94A460A23ADE761
:1032400049F020020095204611A91023A6E7049F0B
:103250004FF000033A785E2A02D0781C194606E047
:10326000DDF810C001219CF801200CF1020012933E
:103270001393149315931693179318931993012688
:103280000346002A00F08F80501102F01F0206FA58
:1032900002F21CAF07EB800050F8287C3A4340F85C
:1032A000282C13F8012B5D2A0493EAD139B10023AD
:1032B00012AA9958C94399500433202BF8D119F018
:1032C000010804D1119B1A1D11921E6800E000260E
:1032D0006368013B002B636004DB236813F8010B78
:1032E000236004E0204600F0F1F8471C44D000279A
:1032F0004FF0200A1BE0B8F1000F01D106F8010BD6
:1033000063680137013B002B63600DDB236813F812
:10331000010B23600BE000BFB400001000000010A0
:1033200004000010C8460000204600F0CFF8EB1B58
:10333000002B15DD411C13D01D4B90FBFAF203400E
:103340000DF1700C002B0CEB820203DA013B63F0F1
:103350001F03013352F8282C42FA03F3DA07CAD4C8
:10336000214600F083F8B8F1000F01D186F8008003
:10337000002F08DA7B1C16D1039F002F08BF4FF0E7
:10338000FF3703970FE019F0010F05D1DDF80CC0EE
:103390000CF1010CCDF80CC0DDF814C0BC44CDF824
:1033A00014C0FFF799BB03981DB0BDE8F08F00BFB4
:1033B0001F000080AFF300800FB407B504AA52F8D5
:1033C000041B04480192FFF77BFBBDE80E4004B0EC
:1033D000704700BFBC00001070B5C46814F0030F44
:1033E00017D0B2F5007F09D0B2F5806F03D0B2F5E7
:1033F000807F0ED102E0416A012303E0074D5E1E8B
:10340000AE4208D8224301610160C361C26000205E
:1034100070BD012070BD012070BD00BFFEFFFF0028
:10342000411C04E01B7801300BB9401A7047820739
:103430000346F7D100E004331A68A2F1013020EA14
:10344000020010F0803FF6D012F0FF0F0BD012F404
:103450007F4F06D012F47F0F01D0043304E0033312
:1034600002E0023300E00133581A7047431C10B5E4
:1034700017D0CB6813F4022311D14A6A5070CA687E
:103480008C6822F4002222F4825242F40122CA60A3
:103490004A6A54614C6814618B604B6010BD4FF0F8
:1034A000FF3010BD01F05DB838B504460D4630B9A7
:1034B000012A04D1FCF75EFF2870204638BD204663
:1034C0002946BDE8384001F068B80000F8B5C36887
:1034D00004461A0309D5426A23F4002311694160A6
:1034E0005169C36081605078F8BD9B0601D500F03A
:1034F000ABF8E36846F2C9021A40012A10D0002254
:10350000626044F240021A4032B123F4A04323F037
:10351000400343F0400301E043F08003E36082E0B6
:10352000474A1A4062B94FF4805000F0B7FA4FF49E
:103530008053E361E368206143F400632060E3604B
:103540006168E368481C0BDA43F480536FF00102B2
:10355000E360521A2368626013F8010B2360F8BD20
:10356000DA0667690DD5DB0303D5204600F06BF959
:1035700007E03846A16901F015F8002801DAE36890
:10358000CAE7E268236842F4805212F4803FE260A6
:1035900023D0616AE6698868216998422CBFC1EB33
:1035A0000001C1EB0301761A04D1204600F04BF96B
:1035B000E6690DE0234B134053B9A3693846C91897
:1035C00000F0F0FF0028E368A6DB43F40033E3607B
:1035D000E5692369AD1B5D1905E02569A1695B1BE0
:1035E000CB18E669A361E368384623F01003E36073
:1035F00029463246FFF758FF002805DAE36820F035
:10360000004043F48043E360636A361AAA199A6063
:10361000E269DA6056B9E36884E8600043F0400389
:1036200023F48053E3604FF0FF30F8BD6B1C236040
:10363000E368013E43F400336660E3602878F8BD38
:10364000000F010010000200C36810B523F0200332
:10365000C360436A82695B6804469A420FD000F0F7
:10366000F2F8E368626A23F4405323F0100343F056
:103670001003E3605368A361236993602360E368E8
:1036800023F4804323F04003E36010BDF8B5CB681A
:10369000064623F40022CA609A060C4602D5084664
:1036A000FFF7D2FFA1684B1C0FDAE26890050CD43B
:1036B0006FF001035B1AA360236842F49032F0B20A
:1036C000E26003F8010B2360F8BDE56841F28A026D
:1036D0002A40022A07D0002345F08005A360E56058
:1036E0004FF0FF30F8BD4AF210032B40B3F5004F06
:1036F0000AD10021204600F031FAE3689A0602D58B
:103700002046FFF7A1FFE56845F4903717F4706F86
:10371000E7601CD1606900F03DFF50B17B0508D522
:10372000636A45F49237236123600123E361E76014
:103730000DE04FF4805000F0B1F94FF48053E36195
:10374000E36847F400673B4320612060E36017F4BF
:10375000106F2168256919D0636A9B688B422CBF62
:10376000C5EB0301C5EB010129B12846224600F053
:10377000EFF800282ED1636A6A1C9A602260E26921
:10378000F0B2511EA160DA602870F8BDF6B201F8FF
:10379000016B636A21609A6891422CBFC5EB0101FD
:1037A000C5EB0201E2697805DA6003D40A2E01D084
:1037B00091420DDB9D6000232560A36028462246D0
:1037C00000F0C6F800280CBF30464FF0FF30F8BDBF
:1037D0003046F8BD4FF0FF30F8BD70B50E460546D7
:1037E0001046144600F06AF93378722B04D0772B18
:1037F00009D0612B24D102E00023012205E0082337
:1038000048F2020201E00423022216F8011F2B29CC
:1038100002D062290AD104E042F0030243F002031D
:10382000F3E742F0040243F00103EEE71B07E26016
:10383000656106D520460021022200F08FF900E0E4
:103840000024204670BD38B5426A04460569036805
:10385000C068916820F40022E26000F08202022A2F
:1038600017D110F4803019D0994238BF1946A942B7
:1038700005D0491B2846224600F06AF860B9636A01
:1038800000209D60E368256023F48033A060E3603E
:1038900038BD4FF0FF3038BD4FF0FF3038BDF8B5C0
:1038A00014460023002206460F4600F0A1FD20B179
:1038B0000023236000200021F8BDC7F30A53A3F5BD
:1038C0007E72063A9BB9C7F313033146CD0F1846F3
:1038D00045EA430323F07F434900000323F47003C8
:1038E00003D563F313070E4601E0013AEEE740F219
:1038F000FE3363F31E57226030463946F8BD0000A0
:1039000070B500231646002204460D4600F070FDF7
:10391000A0B9C5F30A539E1940F2FE739E4206DD1C
:10392000094B22221A60094BD3E9000170BD002E19
:1039300007DD66F31E552046294670BD0020002194
:1039400070BD0020002170BDB4000010A84600002A
:103950002DE9F041D7680646FB020D461446D2F821
:10396000148005D5404600F012FE47F01007A06114
:10397000174B3B4093B14046A16900F013FE00286D
:1039800007DAE3684FF0FF3043F08003E360BDE8FF
:10399000F08127F4003727F01007E7602A464046F9
:1039A0003146FCF7CBFCA84214BF4FF0FF3000209B
:1039B00020F00043ED1AA3695D19A56128B1E36801
:1039C0004FF0FF3043F08003E360BDE8F08100BFBB
:1039D00010000200F8B52D4BC51C1C68AD0800286E
:1039E00053D00027EA1C3AE02168B1F1805F34D15E
:1039F000A6683368B3F1805F636806D171685B18AD
:103A000003336360B368A36029E0AB4205D120466D
:103A10004FF0005340F80C3BF8BD93420FD92046BD
:103A20004FF0005240F80C2B5B1B00EB8502033B70
:103A30006560A26040F8251053609660F8BD66B9D5
:103A40009B00C01A00F0B4FD01301BD04FF00053B2
:103A500084E8280004F10C00F8BD2746A468002C77
:103A6000C2D10C3000F0A4FD431C0DD04FF0005328
:103A700080E82800846017B9044B186000E0B86043
:103A80000C30F8BD3046F8BD2046F8BDFC010010F2
:103A90004FF0805340F80C3C7047000010B5FFF722
:103AA00099FF044628B904491722FCF747FC00F0A7
:103AB0006AFD204610BD00BFB04600002DE9F04170
:103AC00000F10C0696E8C001B10786B00446456ACD
:103AD00025D0320716D400F027F8404600F054FDF8
:103AE000330502D53846FFF7D3FFB60DB60516F1FC
:103AF000A54F07D101A8216A142200F056FD01A8A4
:103B000000F0D4F800211822606AFFF7CBFC2046B1
:103B100000212822FFF7C6FC6562002001E04FF07B
:103B2000FF3006B0BDE8F081F8B518B1BDE8F84047
:103B300000F0C6B8084E04460546282707FB046077
:103B400000F0BEF80134002818BF4FF0FF35082CF4
:103B5000F4D12846F8BD00BFBC0000102DE9F041AB
:103B60003E4BC668044633400D461746D0F81480D5
:103B7000002B6CD0404600F00DFD002867D1012FCE
:103B800004D0022F07D0002F26D060E0204600F09E
:103B900067F82D1820E0404600F0F9FC002806DA0E
:103BA000E368012043F08003E360BDE8F081626ACE
:103BB000A169976823689F422CBFCB19CB18216954
:103BC0005B1AE168890603D552689342B8BF134671
:103BD0008342ACBFED182D18002D3BDBB20405D598
:103BE000636A22689968914238BF9A60A3699D42CE
:103BF0000EDB606A22688168914238BF11462269F3
:103C0000CF18BF1ABD4203DCC0681F18BD4207DBD6
:103C10000023A3606360636A46F020065D600EE0E7
:103C2000ED1AB30744BFC0EB0500A060F30702D54F
:103C3000511A691861605519256026F0200626F48E
:103C4000022626F48256E6600020BDE8F0810220BC
:103C5000BDE8F0810220BDE8F08100BF0300100044
:103C6000C3689A0705D1104B21221A604FF0FF302C
:103C7000704713F4002F03F020030AD013B1436AF6
:103C8000586804E083690268D2180369D01A0138C1
:103C9000704713B1436A5868704783690268D21845
:103CA0000369D01A704700BFB400001010B5044675
:103CB000FFF7B6FB01462046BDE8104000F06FBCA0
:103CC000C36870B513F00304054618D09B0604D5ED
:103CD000436A5E68FFF7B8FC04E083690668F6187B
:103CE0000369F61AEB68284623F44053EB60FFF7AC
:103CF000AAFD3146044600222846FFF72FFF204642
:103D000070BD00002DE9F00F144606460F460A4626
:103D1000C1F30A51A046204684B01D469946344658
:103D2000002959D040F2FF75A94255D0C3F30A5675
:103D3000002E51D0AE424FD0C702A7FB048922F01B
:103D40007F4525F4700545F4801CACFB07ABCDE93D
:103D50000289039D400D40EAC32015EB0A084FF08D
:103D6000000949F1000940F00040E4FB008900250A
:103D7000CDF800900195DDE9004514EB0B0445F109
:103D80000005ECFB0045761802995340B5F5801FFD
:103D900003F0004348EA910247D2D10F201945EBC6
:103DA0000505A6F5806640EA01045200D70FE01928
:103DB00045F10001B2F1004F40F2FD7208BF20F062
:103DC0000100964235D9002EA4BF43F0FE4343F4D0
:103DD0007003194600201FE083EA02046FF400110B
:103DE00052008A4204F000440FD85B008B4217D97E
:103DF00013F5001F0CD8520D0AD05B0D08D044F00B
:103E0000FE4444F47001002006E012F5001F0AD0C1
:103E100000210020C7F6F87104B0BDE8F00F70472C
:103E200021460020F8E75B00E2E7A6F57E76073E34
:103E3000BCE7194301EB06531946EDE72DE9F00FF6
:103E40001D462F461446C1F30A520B4605463E4610
:103E5000002A3CD040F2FF718A4238D0C7F30A5C96
:103E6000BCF1000F33D08C4531D04FEA5051600D7A
:103E700041EAC32940EAC7274FEAC42AE80249F0C9
:103E8000004147F0004BCCEB020C5E40504571EB1B
:103E90000B030CF57E7C6AD20CF1050C5FEA5B0328
:103EA0004FEA3A02342500246400904271EB030784
:103EB00004D3801A61EB030144F00104001841EBC4
:103EC0000101202D4DD0002D2ED0013DECE75A00F0
:103ED00012F5001F21D8710011F5001F1DD846EA08
:103EE0000304C4F30A504405002835D086EA030CC5
:103EF000500D0CF000434405002835D0480D440512
:103F0000002846D011F5001F3DD100208A424FF015
:103F1000000144D1C7F6F87103E000210020C7F684
:103F2000F871BDE8F00F7047904271EB030503D3C1
:103F3000013408BF08F1010840F2FD739C4506F00A
:103F400000461AD9BCF1000FA4BF46F0FE4646F465
:103F5000700631460020E4E72146C7F6F871204696
:103F6000DFE7A046013D9FE719462046D9E749080B
:103F70004FEA30000CF1060C90E706EB0C5606EB0E
:103F800008012046CDE743F0FE4141F470010020D6
:103F9000C7E743F0FE4242F470012046C1E71946EC
:103FA0000020BEE72DE9F00F1D469B460B468946D3
:103FB000924695EA03048046064602464F46294645
:103FC000504600F1C880AB4262D2424004F1004446
:103FD00050406340614042401C0D24F4006640F2B2
:103FE000FF77BE42A4EB11555FD0B54200F0978039
:103FF00023F07F4C21F07F412CF470031F2D21F41E
:10400000700C43F480134CF4801158D8C5F120068D
:1040100030FA05F701FA06FC31FA05F54CEA070714
:10402000D71BBA42C5EB030338BF013B10FA06F1B8
:104030007ED13A4613F4C01F5BD1D00FCD0F40EABA
:10404000430345EA420252EA03056ED0A51E590B0E
:1040500006D1110E41EA03231202083D590BF8D094
:10406000590C04D1100F40EA03131201043DD90C7E
:1040700004D1910F41EA83039200023D190D7FD0D4
:10408000E40AB4EBD52F00F08380E107002043E081
:10409000D045A1D8AB4298D01C0D24F4006640F264
:1040A000FF77BE42A4EB11559FD1002019034FF0BA
:1040B00000014DD1002D5ED0194610462CE0352D63
:1040C00017D8A5F1200731FA07F6961BB242C5F1C1
:1040D000400538BF013B11FA05F230FA07F7000638
:1040E00047EA020143D041F0FF014942721E002E0F
:1040F0004CD0D80209D4013C650535D0D50FC80F86
:1041000045EA430340EA42024900002923F48013B0
:1041100015DB03EB04511046BDE8F00F704740F289
:10412000FE7C6545C1D8002DC6D129462846F3E757
:1041300049427A1E002F7FF47DAF013B7AE70132BE
:1041400008BF0133B1F1004F08BF22F00102E0E7E0
:10415000C7F6F871E0E705F100435246404649468C
:10416000BDE8F00F00F018B821052846D4E7002973
:10417000BBD13246BDE72946C7F6F8712846CBE7E2
:10418000D00F40EA43035200013D79E7013BB0E71D
:1041900003EB05511046BFE72DE9F00F1D469B4686
:1041A0000B468946924695EA030480460646024637
:1041B0004F462946504600F19080AB423DD31D0D3D
:1041C00025F4006640F2FF74A64246D0A5EB1154D8
:1041D000B44268D023F07F4C21F07F412CF470036F
:1041E0001F2C21F4700C43F480134CF4801145D83B
:1041F000C4F1200630FA04F701FA06FC31FA04F49F
:104200004CEA0707D219234428BF013310FA06F1FC
:1042100098022AD5013208BF013309B922F00202FF
:104220002C0504EB53046FF40010B0EB440F44D39F
:10423000DB07214643EA52001DE0634085EA0401A2
:104240001D0D8AEA080225F4006640F2FF748AEA2E
:104250000200A64280EA0202B8D1002019034FF002
:10426000000137D11946104605E0013D002928DB41
:1042700003EB05511046BDE8F00F7047352CC7D849
:10428000A4F1200631FA06F7C4F14004D21928BF80
:104290000133A14030FA06F6000646EA010118BFD4
:1042A00041F0FF01B4E740F2FE7C6445D5D8002C14
:1042B000D8D103F000412046DDE701352905002073
:1042C000D9E7013208BF0133B1F1004F08BF22F036
:1042D0000102CDE7C7F6F871CDE705F1004352467C
:1042E00040464946BDE8F00FFFF75CBE10B421F030
:1042F000004404F1474202F57002B2F17E6F0B46B2
:1043000001F000410FD2420F04F14844C30042EAD9
:10431000C40C0CEBD370B3F1004F08BF20F00100C8
:10432000084310BC7047002A0ADB580010F5001F34
:1043300002D841F0FF40F4E70020C7F6C070F0E774
:104340000846EEE70B461A0DC90241EA5051C2F584
:1043500082620E3241F00040D040FF2A0FD912F4A1
:10436000E06F0DD013F0804009D0580010F5001F09
:1043700004D8DA0F02F10043581E7047002070473E
:1043800040427047002828D0030C11D0030E01F1E1
:10439000807110D10002030F11D10001830F12D1DF
:1043A0008000002813DB400001EBE021400570474E
:1043B0000004030EEED0030F01F50001EDD0830FD2
:1043C00001F58001ECD0002801F50011EBDA01F5D0
:1043D000801101EBE0214005704703461946704704
:1043E00010F0004118BF404201F18041FFF7CABF01
:1043F000F0B41D460B464900144616462F462A4681
:1044000051EA000502D154EA47050CD0934202D08C
:104410000020F0BC7047A042FAD111F5001F8CBFFC
:1044200000200120F5E70120F3E700BFF0B453EAD4
:1044300001040D4616461F4609D45C0014F5001F02
:1044400002D8994217D318D00020F0BC70474C0016
:1044500014F5001FF8D85D0015F5001FF4D80443CB
:1044600001D115430ED0994205D8EDD1904294BFA9
:1044700000200120E9E70120E7E790422CBF00205F
:104480000120E2E72846E0E7F0B453EA01040D46D4
:1044900016461F4609D45C0014F5001F02D8994245
:1044A00017D318D00020F0BC70474C0014F5001F43
:1044B000F8D85D0015F5001FF4D8994209D806D048
:1044C0002043EFD12A4314BF00200120EBE79042A4
:1044D000F6D30120E7E790428CBF00200120E2E7FD
:1044E000F0B40D461F4657EA050416460B464FEA40
:1044F000450408D414F5001F02D8BD4216D817D0C1
:104500000020F0BC704714F5001FF9D87D0015F5A8
:10451000001FF5D8BB4209D306D02043F0D12A436F
:1045200014BF00200120ECE79042F6D80120E8E714
:10453000904234BF00200120E3E700BF0346091A80
:10454000043A05D3043A51F803C043F804CBF9D236
:10455000D20724BFCA5A23F8022B44BFCA5C1A7080
:1045600070470346043A08D3C9B241EA012141EA3F
:104570000141043A43F8041BFBD2043202D0013A51
:104580009954FCD17047FEE74FF0FF3070474FF071
:10459000FF3070474FF0FF307047104670474FF0C4
:1045A000FF3070474FF0FF3070474FF0FF307047DB
:1045B00038B50C4B1A680AB90B4A1A60C51C1C683E
:1045C00025F003056519284600F012F810B9054BCF
:1045D0001D6004E0054B0C221A604FF0FF342046AA
:1045E00038BD00BF0002001004020010B40000102B
:1045F000084A6B46934201D9984206D2064B33B122
:10460000984234BF002001207047012070471846AF
:10461000704700BF040200100000000048656C6C89
:104620006F20576F726C640A0D0000002563000054
:1046300025630A0D000000002B0020003078256360
:104640007025640030582563502564003078256358
:104650002E252E2A6C6C7870256400305825632E28
:10466000252E2A6C6C58502564002D0072007700AE
:10467000286E756C6C29003058003078003000309E
:1046800031323334353637383941424344454600B8
:1046900030313233343536373839616263646566B8
:1046A0000000000000000000FFFFFFFFFFFFEF7FA2
:1046B0002A2A2A205F437379735F616C6C6F6320D1
:1046C0006661696C65640A0000000000000000007B
:1046D00000000000000000000000000000000000DA
:1046E00000000000000000000000000000000000CA
:1046F00000000000000000000000000000000000BA
:1047000000000000000000000000000000000000A9
:104710000000000000000000000000000000000099
:104720000000000000000000000000000000000089
:104730000000000000000000000000000000000079
:104740000000000000000000404040404040404069
:104750004041414141414040404040404040404054
:104760004040404040404040050202020202020236
:104770000202020202020202202020202020202029
:10478000202002020202020202909090909090106B
:104790001010101010101010101010101010101019
:1047A0001010100202020202028888888888880895
:1047B0000808080808080808080808080808080879
:1047C0000808080202020240000000000000000089
:1047D00000000000000000000000000000000000D9
:1047E00000000000000000000000000000000000C9
:1047F00000000000000000000000000000000000B9
:1048000000000000000000000000000000000000A8
:104810000000000000000000000000000000000098
:104820000000000000000000000000000000000088
:104830000000000000000000000000000000000078
:104840000000000000000000000080FF0000807FEA
:00000001FF
